{
  "_format": "hh-sol-artifact-1",
  "contractName": "AVFXRent",
  "sourceName": "contracts/AVFXRent.sol",
  "abi": [
    {
      "inputs": [
        {
          "internalType": "string",
          "name": "_tokenName",
          "type": "string"
        },
        {
          "internalType": "string",
          "name": "_tokenSymbol",
          "type": "string"
        }
      ],
      "stateMutability": "nonpayable",
      "type": "constructor"
    },
    {
      "anonymous": false,
      "inputs": [
        {
          "indexed": true,
          "internalType": "address",
          "name": "owner",
          "type": "address"
        },
        {
          "indexed": true,
          "internalType": "address",
          "name": "approved",
          "type": "address"
        },
        {
          "indexed": true,
          "internalType": "uint256",
          "name": "tokenId",
          "type": "uint256"
        }
      ],
      "name": "Approval",
      "type": "event"
    },
    {
      "anonymous": false,
      "inputs": [
        {
          "indexed": true,
          "internalType": "address",
          "name": "owner",
          "type": "address"
        },
        {
          "indexed": true,
          "internalType": "address",
          "name": "operator",
          "type": "address"
        },
        {
          "indexed": false,
          "internalType": "bool",
          "name": "approved",
          "type": "bool"
        }
      ],
      "name": "ApprovalForAll",
      "type": "event"
    },
    {
      "anonymous": false,
      "inputs": [
        {
          "indexed": true,
          "internalType": "address",
          "name": "from",
          "type": "address"
        },
        {
          "indexed": true,
          "internalType": "address",
          "name": "to",
          "type": "address"
        },
        {
          "indexed": true,
          "internalType": "uint256",
          "name": "tokenId",
          "type": "uint256"
        }
      ],
      "name": "Transfer",
      "type": "event"
    },
    {
      "anonymous": false,
      "inputs": [
        {
          "indexed": true,
          "internalType": "uint256",
          "name": "tokenId",
          "type": "uint256"
        },
        {
          "indexed": true,
          "internalType": "address",
          "name": "user",
          "type": "address"
        },
        {
          "indexed": false,
          "internalType": "uint64",
          "name": "expires",
          "type": "uint64"
        }
      ],
      "name": "UpdateUser",
      "type": "event"
    },
    {
      "inputs": [],
      "name": "MAX_TOKENS",
      "outputs": [
        {
          "internalType": "uint256",
          "name": "",
          "type": "uint256"
        }
      ],
      "stateMutability": "view",
      "type": "function"
    },
    {
      "inputs": [
        {
          "internalType": "address",
          "name": "to",
          "type": "address"
        },
        {
          "internalType": "uint256",
          "name": "tokenId",
          "type": "uint256"
        }
      ],
      "name": "approve",
      "outputs": [],
      "stateMutability": "nonpayable",
      "type": "function"
    },
    {
      "inputs": [
        {
          "internalType": "address",
          "name": "owner",
          "type": "address"
        }
      ],
      "name": "balanceOf",
      "outputs": [
        {
          "internalType": "uint256",
          "name": "",
          "type": "uint256"
        }
      ],
      "stateMutability": "view",
      "type": "function"
    },
    {
      "inputs": [
        {
          "internalType": "uint256",
          "name": "tokenId",
          "type": "uint256"
        }
      ],
      "name": "getApproved",
      "outputs": [
        {
          "internalType": "address",
          "name": "",
          "type": "address"
        }
      ],
      "stateMutability": "view",
      "type": "function"
    },
    {
      "inputs": [
        {
          "internalType": "address",
          "name": "owner",
          "type": "address"
        },
        {
          "internalType": "address",
          "name": "operator",
          "type": "address"
        }
      ],
      "name": "isApprovedForAll",
      "outputs": [
        {
          "internalType": "bool",
          "name": "",
          "type": "bool"
        }
      ],
      "stateMutability": "view",
      "type": "function"
    },
    {
      "inputs": [
        {
          "internalType": "string",
          "name": "_tokenUri",
          "type": "string"
        }
      ],
      "name": "mint",
      "outputs": [],
      "stateMutability": "payable",
      "type": "function"
    },
    {
      "inputs": [],
      "name": "name",
      "outputs": [
        {
          "internalType": "string",
          "name": "",
          "type": "string"
        }
      ],
      "stateMutability": "view",
      "type": "function"
    },
    {
      "inputs": [
        {
          "internalType": "uint256",
          "name": "tokenId",
          "type": "uint256"
        }
      ],
      "name": "ownerOf",
      "outputs": [
        {
          "internalType": "address",
          "name": "",
          "type": "address"
        }
      ],
      "stateMutability": "view",
      "type": "function"
    },
    {
      "inputs": [
        {
          "internalType": "address",
          "name": "from",
          "type": "address"
        },
        {
          "internalType": "address",
          "name": "to",
          "type": "address"
        },
        {
          "internalType": "uint256",
          "name": "tokenId",
          "type": "uint256"
        }
      ],
      "name": "safeTransferFrom",
      "outputs": [],
      "stateMutability": "nonpayable",
      "type": "function"
    },
    {
      "inputs": [
        {
          "internalType": "address",
          "name": "from",
          "type": "address"
        },
        {
          "internalType": "address",
          "name": "to",
          "type": "address"
        },
        {
          "internalType": "uint256",
          "name": "tokenId",
          "type": "uint256"
        },
        {
          "internalType": "bytes",
          "name": "data",
          "type": "bytes"
        }
      ],
      "name": "safeTransferFrom",
      "outputs": [],
      "stateMutability": "nonpayable",
      "type": "function"
    },
    {
      "inputs": [
        {
          "internalType": "address",
          "name": "operator",
          "type": "address"
        },
        {
          "internalType": "bool",
          "name": "approved",
          "type": "bool"
        }
      ],
      "name": "setApprovalForAll",
      "outputs": [],
      "stateMutability": "nonpayable",
      "type": "function"
    },
    {
      "inputs": [
        {
          "internalType": "uint256",
          "name": "tokenId",
          "type": "uint256"
        },
        {
          "internalType": "address",
          "name": "user",
          "type": "address"
        },
        {
          "internalType": "uint64",
          "name": "expires",
          "type": "uint64"
        }
      ],
      "name": "setUser",
      "outputs": [],
      "stateMutability": "nonpayable",
      "type": "function"
    },
    {
      "inputs": [
        {
          "internalType": "bytes4",
          "name": "interfaceId",
          "type": "bytes4"
        }
      ],
      "name": "supportsInterface",
      "outputs": [
        {
          "internalType": "bool",
          "name": "",
          "type": "bool"
        }
      ],
      "stateMutability": "view",
      "type": "function"
    },
    {
      "inputs": [],
      "name": "symbol",
      "outputs": [
        {
          "internalType": "string",
          "name": "",
          "type": "string"
        }
      ],
      "stateMutability": "view",
      "type": "function"
    },
    {
      "inputs": [],
      "name": "tokenCounter",
      "outputs": [
        {
          "internalType": "uint256",
          "name": "",
          "type": "uint256"
        }
      ],
      "stateMutability": "view",
      "type": "function"
    },
    {
      "inputs": [
        {
          "internalType": "uint256",
          "name": "tokenId",
          "type": "uint256"
        }
      ],
      "name": "tokenURI",
      "outputs": [
        {
          "internalType": "string",
          "name": "",
          "type": "string"
        }
      ],
      "stateMutability": "view",
      "type": "function"
    },
    {
      "inputs": [
        {
          "internalType": "address",
          "name": "from",
          "type": "address"
        },
        {
          "internalType": "address",
          "name": "to",
          "type": "address"
        },
        {
          "internalType": "uint256",
          "name": "tokenId",
          "type": "uint256"
        }
      ],
      "name": "transferFrom",
      "outputs": [],
      "stateMutability": "nonpayable",
      "type": "function"
    },
    {
      "inputs": [
        {
          "internalType": "uint256",
          "name": "tokenId",
          "type": "uint256"
        }
      ],
      "name": "userExpires",
      "outputs": [
        {
          "internalType": "uint256",
          "name": "",
          "type": "uint256"
        }
      ],
      "stateMutability": "view",
      "type": "function"
    },
    {
      "inputs": [
        {
          "internalType": "uint256",
          "name": "tokenId",
          "type": "uint256"
        }
      ],
      "name": "userOf",
      "outputs": [
        {
          "internalType": "address",
          "name": "",
          "type": "address"
        }
      ],
      "stateMutability": "view",
      "type": "function"
    }
  ],
  "bytecode": "0x60806040526103e86009553480156200001757600080fd5b50604051620039e7380380620039e783398181016040528101906200003d91906200020c565b818181818160009081620000529190620004dc565b508060019081620000649190620004dc565b505050505060006008819055505050620005c3565b6000604051905090565b600080fd5b600080fd5b600080fd5b600080fd5b6000601f19601f8301169050919050565b7f4e487b7100000000000000000000000000000000000000000000000000000000600052604160045260246000fd5b620000e28262000097565b810181811067ffffffffffffffff82111715620001045762000103620000a8565b5b80604052505050565b60006200011962000079565b9050620001278282620000d7565b919050565b600067ffffffffffffffff8211156200014a5762000149620000a8565b5b620001558262000097565b9050602081019050919050565b60005b838110156200018257808201518184015260208101905062000165565b60008484015250505050565b6000620001a56200019f846200012c565b6200010d565b905082815260208101848484011115620001c457620001c362000092565b5b620001d184828562000162565b509392505050565b600082601f830112620001f157620001f06200008d565b5b8151620002038482602086016200018e565b91505092915050565b6000806040838503121562000226576200022562000083565b5b600083015167ffffffffffffffff81111562000247576200024662000088565b5b6200025585828601620001d9565b925050602083015167ffffffffffffffff81111562000279576200027862000088565b5b6200028785828601620001d9565b9150509250929050565b600081519050919050565b7f4e487b7100000000000000000000000000000000000000000000000000000000600052602260045260246000fd5b60006002820490506001821680620002e457607f821691505b602082108103620002fa57620002f96200029c565b5b50919050565b60008190508160005260206000209050919050565b60006020601f8301049050919050565b600082821b905092915050565b600060088302620003647fffffffffffffffffffffffffffffffffffffffffffffffffffffffffffffffff8262000325565b62000370868362000325565b95508019841693508086168417925050509392505050565b6000819050919050565b6000819050919050565b6000620003bd620003b7620003b18462000388565b62000392565b62000388565b9050919050565b6000819050919050565b620003d9836200039c565b620003f1620003e882620003c4565b84845462000332565b825550505050565b600090565b62000408620003f9565b62000415818484620003ce565b505050565b5b818110156200043d5762000431600082620003fe565b6001810190506200041b565b5050565b601f8211156200048c57620004568162000300565b620004618462000315565b8101602085101562000471578190505b62000489620004808562000315565b8301826200041a565b50505b505050565b600082821c905092915050565b6000620004b16000198460080262000491565b1980831691505092915050565b6000620004cc83836200049e565b9150826002028217905092915050565b620004e78262000291565b67ffffffffffffffff811115620005035762000502620000a8565b5b6200050f8254620002cb565b6200051c82828562000441565b600060209050601f8311600181146200055457600084156200053f578287015190505b6200054b8582620004be565b865550620005bb565b601f198416620005648662000300565b60005b828110156200058e5784890151825560018201915060208501945060208101905062000567565b86831015620005ae5784890151620005aa601f8916826200049e565b8355505b6001600288020188555050505b505050505050565b61341480620005d36000396000f3fe6080604052600436106101145760003560e01c806395d89b41116100a0578063d082e38111610064578063d082e381146103e7578063d85d3d2714610412578063e030565e1461042e578063e985e9c514610457578063f47c84c51461049457610114565b806395d89b41146102f0578063a22cb4651461031b578063b88d4fde14610344578063c2f1f14a1461036d578063c87b56dd146103aa57610114565b806323b872dd116100e757806323b872dd146101e757806342842e0e146102105780636352211e1461023957806370a08231146102765780638fc88c48146102b357610114565b806301ffc9a71461011957806306fdde0314610156578063081812fc14610181578063095ea7b3146101be575b600080fd5b34801561012557600080fd5b50610140600480360381019061013b919061206e565b6104bf565b60405161014d91906120b6565b60405180910390f35b34801561016257600080fd5b5061016b610539565b6040516101789190612161565b60405180910390f35b34801561018d57600080fd5b506101a860048036038101906101a391906121b9565b6105cb565b6040516101b59190612227565b60405180910390f35b3480156101ca57600080fd5b506101e560048036038101906101e0919061226e565b610611565b005b3480156101f357600080fd5b5061020e600480360381019061020991906122ae565b610728565b005b34801561021c57600080fd5b50610237600480360381019061023291906122ae565b610788565b005b34801561024557600080fd5b50610260600480360381019061025b91906121b9565b6107a8565b60405161026d9190612227565b60405180910390f35b34801561028257600080fd5b5061029d60048036038101906102989190612301565b61082e565b6040516102aa919061233d565b60405180910390f35b3480156102bf57600080fd5b506102da60048036038101906102d591906121b9565b6108e5565b6040516102e7919061233d565b60405180910390f35b3480156102fc57600080fd5b50610305610923565b6040516103129190612161565b60405180910390f35b34801561032757600080fd5b50610342600480360381019061033d9190612384565b6109b5565b005b34801561035057600080fd5b5061036b600480360381019061036691906124f9565b6109cb565b005b34801561037957600080fd5b50610394600480360381019061038f91906121b9565b610a2d565b6040516103a19190612227565b60405180910390f35b3480156103b657600080fd5b506103d160048036038101906103cc91906121b9565b610ab2565b6040516103de9190612161565b60405180910390f35b3480156103f357600080fd5b506103fc610bc4565b604051610409919061233d565b60405180910390f35b61042c6004803603810190610427919061261d565b610bca565b005b34801561043a57600080fd5b50610455600480360381019061045091906126a6565b610c40565b005b34801561046357600080fd5b5061047e600480360381019061047991906126f9565b610d63565b60405161048b91906120b6565b60405180910390f35b3480156104a057600080fd5b506104a9610df7565b6040516104b6919061233d565b60405180910390f35b60007fad092b5c000000000000000000000000000000000000000000000000000000007bffffffffffffffffffffffffffffffffffffffffffffffffffffffff1916827bffffffffffffffffffffffffffffffffffffffffffffffffffffffff19161480610532575061053182610dfd565b5b9050919050565b60606000805461054890612768565b80601f016020809104026020016040519081016040528092919081815260200182805461057490612768565b80156105c15780601f10610596576101008083540402835291602001916105c1565b820191906000526020600020905b8154815290600101906020018083116105a457829003601f168201915b5050505050905090565b60006105d682610edf565b6004600083815260200190815260200160002060009054906101000a900473ffffffffffffffffffffffffffffffffffffffff169050919050565b600061061c826107a8565b90508073ffffffffffffffffffffffffffffffffffffffff168373ffffffffffffffffffffffffffffffffffffffff160361068c576040517f08c379a00000000000000000000000000000000000000000000000000000000081526004016106839061280b565b60405180910390fd5b8073ffffffffffffffffffffffffffffffffffffffff166106ab610f2a565b73ffffffffffffffffffffffffffffffffffffffff1614806106da57506106d9816106d4610f2a565b610d63565b5b610719576040517f08c379a00000000000000000000000000000000000000000000000000000000081526004016107109061289d565b60405180910390fd5b6107238383610f32565b505050565b610739610733610f2a565b82610feb565b610778576040517f08c379a000000000000000000000000000000000000000000000000000000000815260040161076f9061292f565b60405180910390fd5b610783838383611080565b505050565b6107a3838383604051806020016040528060008152506109cb565b505050565b6000806107b483611379565b9050600073ffffffffffffffffffffffffffffffffffffffff168173ffffffffffffffffffffffffffffffffffffffff1603610825576040517f08c379a000000000000000000000000000000000000000000000000000000000815260040161081c9061299b565b60405180910390fd5b80915050919050565b60008073ffffffffffffffffffffffffffffffffffffffff168273ffffffffffffffffffffffffffffffffffffffff160361089e576040517f08c379a000000000000000000000000000000000000000000000000000000000815260040161089590612a2d565b60405180910390fd5b600360008373ffffffffffffffffffffffffffffffffffffffff1673ffffffffffffffffffffffffffffffffffffffff168152602001908152602001600020549050919050565b60006007600083815260200190815260200160002060000160149054906101000a900467ffffffffffffffff1667ffffffffffffffff169050919050565b60606001805461093290612768565b80601f016020809104026020016040519081016040528092919081815260200182805461095e90612768565b80156109ab5780601f10610980576101008083540402835291602001916109ab565b820191906000526020600020905b81548152906001019060200180831161098e57829003601f168201915b5050505050905090565b6109c76109c0610f2a565b83836113b6565b5050565b6109dc6109d6610f2a565b83610feb565b610a1b576040517f08c379a0000000000000000000000000000000000000000000000000000000008152600401610a129061292f565b60405180910390fd5b610a2784848484611522565b50505050565b6000426007600084815260200190815260200160002060000160149054906101000a900467ffffffffffffffff1667ffffffffffffffff1610610aa8576007600083815260200190815260200160002060000160009054906101000a900473ffffffffffffffffffffffffffffffffffffffff169050610aad565b600090505b919050565b6060610abd82610edf565b6000600660008481526020019081526020016000208054610add90612768565b80601f0160208091040260200160405190810160405280929190818152602001828054610b0990612768565b8015610b565780601f10610b2b57610100808354040283529160200191610b56565b820191906000526020600020905b815481529060010190602001808311610b3957829003601f168201915b505050505090506000610b6761157e565b90506000815103610b7c578192505050610bbf565b600082511115610bb1578082604051602001610b99929190612a89565b60405160208183030381529060405292505050610bbf565b610bba84611595565b925050505b919050565b60085481565b60095460085410610c10576040517f08c379a0000000000000000000000000000000000000000000000000000000008152600401610c0790612af9565b60405180910390fd5b610c1c336008546115fd565b610c286008548261161b565b6001600854610c379190612b48565b60088190555050565b610c4a3384610feb565b610c89576040517f08c379a0000000000000000000000000000000000000000000000000000000008152600401610c8090612bee565b60405180910390fd5b6000600760008581526020019081526020016000209050828160000160006101000a81548173ffffffffffffffffffffffffffffffffffffffff021916908373ffffffffffffffffffffffffffffffffffffffff160217905550818160000160146101000a81548167ffffffffffffffff021916908367ffffffffffffffff1602179055508273ffffffffffffffffffffffffffffffffffffffff16847f4e06b4e7000e659094299b3533b47b6aa8ad048e95e872d23d1f4ee55af89cfe84604051610d559190612c1d565b60405180910390a350505050565b6000600560008473ffffffffffffffffffffffffffffffffffffffff1673ffffffffffffffffffffffffffffffffffffffff16815260200190815260200160002060008373ffffffffffffffffffffffffffffffffffffffff1673ffffffffffffffffffffffffffffffffffffffff16815260200190815260200160002060009054906101000a900460ff16905092915050565b60095481565b60007f80ac58cd000000000000000000000000000000000000000000000000000000007bffffffffffffffffffffffffffffffffffffffffffffffffffffffff1916827bffffffffffffffffffffffffffffffffffffffffffffffffffffffff19161480610ec857507f5b5e139f000000000000000000000000000000000000000000000000000000007bffffffffffffffffffffffffffffffffffffffffffffffffffffffff1916827bffffffffffffffffffffffffffffffffffffffffffffffffffffffff1916145b80610ed85750610ed782611688565b5b9050919050565b610ee8816116f2565b610f27576040517f08c379a0000000000000000000000000000000000000000000000000000000008152600401610f1e9061299b565b60405180910390fd5b50565b600033905090565b816004600083815260200190815260200160002060006101000a81548173ffffffffffffffffffffffffffffffffffffffff021916908373ffffffffffffffffffffffffffffffffffffffff160217905550808273ffffffffffffffffffffffffffffffffffffffff16610fa5836107a8565b73ffffffffffffffffffffffffffffffffffffffff167f8c5be1e5ebec7d5bd14f71427d1e84f3dd0314c0f7b2291e5b200ac8c7c3b92560405160405180910390a45050565b600080610ff7836107a8565b90508073ffffffffffffffffffffffffffffffffffffffff168473ffffffffffffffffffffffffffffffffffffffff16148061103957506110388185610d63565b5b8061107757508373ffffffffffffffffffffffffffffffffffffffff1661105f846105cb565b73ffffffffffffffffffffffffffffffffffffffff16145b91505092915050565b8273ffffffffffffffffffffffffffffffffffffffff166110a0826107a8565b73ffffffffffffffffffffffffffffffffffffffff16146110f6576040517f08c379a00000000000000000000000000000000000000000000000000000000081526004016110ed90612caa565b60405180910390fd5b600073ffffffffffffffffffffffffffffffffffffffff168273ffffffffffffffffffffffffffffffffffffffff1603611165576040517f08c379a000000000000000000000000000000000000000000000000000000000815260040161115c90612d3c565b60405180910390fd5b6111728383836001611733565b8273ffffffffffffffffffffffffffffffffffffffff16611192826107a8565b73ffffffffffffffffffffffffffffffffffffffff16146111e8576040517f08c379a00000000000000000000000000000000000000000000000000000000081526004016111df90612caa565b60405180910390fd5b6004600082815260200190815260200160002060006101000a81549073ffffffffffffffffffffffffffffffffffffffff02191690556001600360008573ffffffffffffffffffffffffffffffffffffffff1673ffffffffffffffffffffffffffffffffffffffff168152602001908152602001600020600082825403925050819055506001600360008473ffffffffffffffffffffffffffffffffffffffff1673ffffffffffffffffffffffffffffffffffffffff16815260200190815260200160002060008282540192505081905550816002600083815260200190815260200160002060006101000a81548173ffffffffffffffffffffffffffffffffffffffff021916908373ffffffffffffffffffffffffffffffffffffffff160217905550808273ffffffffffffffffffffffffffffffffffffffff168473ffffffffffffffffffffffffffffffffffffffff167fddf252ad1be2c89b69c2b068fc378daa952ba7f163c4a11628f55a4df523b3ef60405160405180910390a46113748383836001611893565b505050565b60006002600083815260200190815260200160002060009054906101000a900473ffffffffffffffffffffffffffffffffffffffff169050919050565b8173ffffffffffffffffffffffffffffffffffffffff168373ffffffffffffffffffffffffffffffffffffffff1603611424576040517f08c379a000000000000000000000000000000000000000000000000000000000815260040161141b90612da8565b60405180910390fd5b80600560008573ffffffffffffffffffffffffffffffffffffffff1673ffffffffffffffffffffffffffffffffffffffff16815260200190815260200160002060008473ffffffffffffffffffffffffffffffffffffffff1673ffffffffffffffffffffffffffffffffffffffff16815260200190815260200160002060006101000a81548160ff0219169083151502179055508173ffffffffffffffffffffffffffffffffffffffff168373ffffffffffffffffffffffffffffffffffffffff167f17307eab39ab6107e8899845ad3d59bd9653f200f220920489ca2b5937696c318360405161151591906120b6565b60405180910390a3505050565b61152d848484611080565b61153984848484611899565b611578576040517f08c379a000000000000000000000000000000000000000000000000000000000815260040161156f90612e3a565b60405180910390fd5b50505050565b606060405180602001604052806000815250905090565b60606115a082610edf565b60006115aa61157e565b905060008151116115ca57604051806020016040528060008152506115f5565b806115d484611a20565b6040516020016115e5929190612a89565b6040516020818303038152906040525b915050919050565b611617828260405180602001604052806000815250611aee565b5050565b611624826116f2565b611663576040517f08c379a000000000000000000000000000000000000000000000000000000000815260040161165a90612ecc565b60405180910390fd5b806006600084815260200190815260200160002090816116839190613098565b505050565b60007f01ffc9a7000000000000000000000000000000000000000000000000000000007bffffffffffffffffffffffffffffffffffffffffffffffffffffffff1916827bffffffffffffffffffffffffffffffffffffffffffffffffffffffff1916149050919050565b60008073ffffffffffffffffffffffffffffffffffffffff1661171483611379565b73ffffffffffffffffffffffffffffffffffffffff1614159050919050565b61173f84848484611b49565b8273ffffffffffffffffffffffffffffffffffffffff168473ffffffffffffffffffffffffffffffffffffffff16141580156117de5750600073ffffffffffffffffffffffffffffffffffffffff166007600084815260200190815260200160002060000160009054906101000a900473ffffffffffffffffffffffffffffffffffffffff1673ffffffffffffffffffffffffffffffffffffffff1614155b1561188d5760076000838152602001908152602001600020600080820160006101000a81549073ffffffffffffffffffffffffffffffffffffffff02191690556000820160146101000a81549067ffffffffffffffff02191690555050600073ffffffffffffffffffffffffffffffffffffffff16827f4e06b4e7000e659094299b3533b47b6aa8ad048e95e872d23d1f4ee55af89cfe600060405161188491906131a5565b60405180910390a35b50505050565b50505050565b60006118ba8473ffffffffffffffffffffffffffffffffffffffff16611c6f565b15611a13578373ffffffffffffffffffffffffffffffffffffffff1663150b7a026118e3610f2a565b8786866040518563ffffffff1660e01b81526004016119059493929190613215565b6020604051808303816000875af192505050801561194157506040513d601f19601f8201168201806040525081019061193e9190613276565b60015b6119c3573d8060008114611971576040519150601f19603f3d011682016040523d82523d6000602084013e611976565b606091505b5060008151036119bb576040517f08c379a00000000000000000000000000000000000000000000000000000000081526004016119b290612e3a565b60405180910390fd5b805181602001fd5b63150b7a0260e01b7bffffffffffffffffffffffffffffffffffffffffffffffffffffffff1916817bffffffffffffffffffffffffffffffffffffffffffffffffffffffff191614915050611a18565b600190505b949350505050565b606060006001611a2f84611c92565b01905060008167ffffffffffffffff811115611a4e57611a4d6123ce565b5b6040519080825280601f01601f191660200182016040528015611a805781602001600182028036833780820191505090505b509050600082602001820190505b600115611ae3578080600190039150507f3031323334353637383961626364656600000000000000000000000000000000600a86061a8153600a8581611ad757611ad66132a3565b5b04945060008503611a8e575b819350505050919050565b611af88383611de5565b611b056000848484611899565b611b44576040517f08c379a0000000000000000000000000000000000000000000000000000000008152600401611b3b90612e3a565b60405180910390fd5b505050565b6001811115611c6957600073ffffffffffffffffffffffffffffffffffffffff168473ffffffffffffffffffffffffffffffffffffffff1614611bdd5780600360008673ffffffffffffffffffffffffffffffffffffffff1673ffffffffffffffffffffffffffffffffffffffff1681526020019081526020016000206000828254611bd591906132d2565b925050819055505b600073ffffffffffffffffffffffffffffffffffffffff168373ffffffffffffffffffffffffffffffffffffffff1614611c685780600360008573ffffffffffffffffffffffffffffffffffffffff1673ffffffffffffffffffffffffffffffffffffffff1681526020019081526020016000206000828254611c609190612b48565b925050819055505b5b50505050565b6000808273ffffffffffffffffffffffffffffffffffffffff163b119050919050565b600080600090507a184f03e93ff9f4daa797ed6e38ed64bf6a1f0100000000000000008310611cf0577a184f03e93ff9f4daa797ed6e38ed64bf6a1f0100000000000000008381611ce657611ce56132a3565b5b0492506040810190505b6d04ee2d6d415b85acef81000000008310611d2d576d04ee2d6d415b85acef81000000008381611d2357611d226132a3565b5b0492506020810190505b662386f26fc100008310611d5c57662386f26fc100008381611d5257611d516132a3565b5b0492506010810190505b6305f5e1008310611d85576305f5e1008381611d7b57611d7a6132a3565b5b0492506008810190505b6127108310611daa576127108381611da057611d9f6132a3565b5b0492506004810190505b60648310611dcd5760648381611dc357611dc26132a3565b5b0492506002810190505b600a8310611ddc576001810190505b80915050919050565b600073ffffffffffffffffffffffffffffffffffffffff168273ffffffffffffffffffffffffffffffffffffffff1603611e54576040517f08c379a0000000000000000000000000000000000000000000000000000000008152600401611e4b90613352565b60405180910390fd5b611e5d816116f2565b15611e9d576040517f08c379a0000000000000000000000000000000000000000000000000000000008152600401611e94906133be565b60405180910390fd5b611eab600083836001611733565b611eb4816116f2565b15611ef4576040517f08c379a0000000000000000000000000000000000000000000000000000000008152600401611eeb906133be565b60405180910390fd5b6001600360008473ffffffffffffffffffffffffffffffffffffffff1673ffffffffffffffffffffffffffffffffffffffff16815260200190815260200160002060008282540192505081905550816002600083815260200190815260200160002060006101000a81548173ffffffffffffffffffffffffffffffffffffffff021916908373ffffffffffffffffffffffffffffffffffffffff160217905550808273ffffffffffffffffffffffffffffffffffffffff16600073ffffffffffffffffffffffffffffffffffffffff167fddf252ad1be2c89b69c2b068fc378daa952ba7f163c4a11628f55a4df523b3ef60405160405180910390a4611ffe600083836001611893565b5050565b6000604051905090565b600080fd5b600080fd5b60007fffffffff0000000000000000000000000000000000000000000000000000000082169050919050565b61204b81612016565b811461205657600080fd5b50565b60008135905061206881612042565b92915050565b6000602082840312156120845761208361200c565b5b600061209284828501612059565b91505092915050565b60008115159050919050565b6120b08161209b565b82525050565b60006020820190506120cb60008301846120a7565b92915050565b600081519050919050565b600082825260208201905092915050565b60005b8381101561210b5780820151818401526020810190506120f0565b60008484015250505050565b6000601f19601f8301169050919050565b6000612133826120d1565b61213d81856120dc565b935061214d8185602086016120ed565b61215681612117565b840191505092915050565b6000602082019050818103600083015261217b8184612128565b905092915050565b6000819050919050565b61219681612183565b81146121a157600080fd5b50565b6000813590506121b38161218d565b92915050565b6000602082840312156121cf576121ce61200c565b5b60006121dd848285016121a4565b91505092915050565b600073ffffffffffffffffffffffffffffffffffffffff82169050919050565b6000612211826121e6565b9050919050565b61222181612206565b82525050565b600060208201905061223c6000830184612218565b92915050565b61224b81612206565b811461225657600080fd5b50565b60008135905061226881612242565b92915050565b600080604083850312156122855761228461200c565b5b600061229385828601612259565b92505060206122a4858286016121a4565b9150509250929050565b6000806000606084860312156122c7576122c661200c565b5b60006122d586828701612259565b93505060206122e686828701612259565b92505060406122f7868287016121a4565b9150509250925092565b6000602082840312156123175761231661200c565b5b600061232584828501612259565b91505092915050565b61233781612183565b82525050565b6000602082019050612352600083018461232e565b92915050565b6123618161209b565b811461236c57600080fd5b50565b60008135905061237e81612358565b92915050565b6000806040838503121561239b5761239a61200c565b5b60006123a985828601612259565b92505060206123ba8582860161236f565b9150509250929050565b600080fd5b600080fd5b7f4e487b7100000000000000000000000000000000000000000000000000000000600052604160045260246000fd5b61240682612117565b810181811067ffffffffffffffff82111715612425576124246123ce565b5b80604052505050565b6000612438612002565b905061244482826123fd565b919050565b600067ffffffffffffffff821115612464576124636123ce565b5b61246d82612117565b9050602081019050919050565b82818337600083830152505050565b600061249c61249784612449565b61242e565b9050828152602081018484840111156124b8576124b76123c9565b5b6124c384828561247a565b509392505050565b600082601f8301126124e0576124df6123c4565b5b81356124f0848260208601612489565b91505092915050565b600080600080608085870312156125135761251261200c565b5b600061252187828801612259565b945050602061253287828801612259565b9350506040612543878288016121a4565b925050606085013567ffffffffffffffff81111561256457612563612011565b5b612570878288016124cb565b91505092959194509250565b600067ffffffffffffffff821115612597576125966123ce565b5b6125a082612117565b9050602081019050919050565b60006125c06125bb8461257c565b61242e565b9050828152602081018484840111156125dc576125db6123c9565b5b6125e784828561247a565b509392505050565b600082601f830112612604576126036123c4565b5b81356126148482602086016125ad565b91505092915050565b6000602082840312156126335761263261200c565b5b600082013567ffffffffffffffff81111561265157612650612011565b5b61265d848285016125ef565b91505092915050565b600067ffffffffffffffff82169050919050565b61268381612666565b811461268e57600080fd5b50565b6000813590506126a08161267a565b92915050565b6000806000606084860312156126bf576126be61200c565b5b60006126cd868287016121a4565b93505060206126de86828701612259565b92505060406126ef86828701612691565b9150509250925092565b600080604083850312156127105761270f61200c565b5b600061271e85828601612259565b925050602061272f85828601612259565b9150509250929050565b7f4e487b7100000000000000000000000000000000000000000000000000000000600052602260045260246000fd5b6000600282049050600182168061278057607f821691505b60208210810361279357612792612739565b5b50919050565b7f4552433732313a20617070726f76616c20746f2063757272656e74206f776e6560008201527f7200000000000000000000000000000000000000000000000000000000000000602082015250565b60006127f56021836120dc565b915061280082612799565b604082019050919050565b60006020820190508181036000830152612824816127e8565b9050919050565b7f4552433732313a20617070726f76652063616c6c6572206973206e6f7420746f60008201527f6b656e206f776e6572206f7220617070726f76656420666f7220616c6c000000602082015250565b6000612887603d836120dc565b91506128928261282b565b604082019050919050565b600060208201905081810360008301526128b68161287a565b9050919050565b7f4552433732313a2063616c6c6572206973206e6f7420746f6b656e206f776e6560008201527f72206f7220617070726f76656400000000000000000000000000000000000000602082015250565b6000612919602d836120dc565b9150612924826128bd565b604082019050919050565b600060208201905081810360008301526129488161290c565b9050919050565b7f4552433732313a20696e76616c696420746f6b656e2049440000000000000000600082015250565b60006129856018836120dc565b91506129908261294f565b602082019050919050565b600060208201905081810360008301526129b481612978565b9050919050565b7f4552433732313a2061646472657373207a65726f206973206e6f74206120766160008201527f6c6964206f776e65720000000000000000000000000000000000000000000000602082015250565b6000612a176029836120dc565b9150612a22826129bb565b604082019050919050565b60006020820190508181036000830152612a4681612a0a565b9050919050565b600081905092915050565b6000612a63826120d1565b612a6d8185612a4d565b9350612a7d8185602086016120ed565b80840191505092915050565b6000612a958285612a58565b9150612aa18284612a58565b91508190509392505050565b7f455243343930373a204d617820737570706c7900000000000000000000000000600082015250565b6000612ae36013836120dc565b9150612aee82612aad565b602082019050919050565b60006020820190508181036000830152612b1281612ad6565b9050919050565b7f4e487b7100000000000000000000000000000000000000000000000000000000600052601160045260246000fd5b6000612b5382612183565b9150612b5e83612183565b9250828201905080821115612b7657612b75612b19565b5b92915050565b7f4552433732313a207472616e736665722063616c6c6572206973206e6f74206f60008201527f776e6572206e6f7220617070726f766564000000000000000000000000000000602082015250565b6000612bd86031836120dc565b9150612be382612b7c565b604082019050919050565b60006020820190508181036000830152612c0781612bcb565b9050919050565b612c1781612666565b82525050565b6000602082019050612c326000830184612c0e565b92915050565b7f4552433732313a207472616e736665722066726f6d20696e636f72726563742060008201527f6f776e6572000000000000000000000000000000000000000000000000000000602082015250565b6000612c946025836120dc565b9150612c9f82612c38565b604082019050919050565b60006020820190508181036000830152612cc381612c87565b9050919050565b7f4552433732313a207472616e7366657220746f20746865207a65726f2061646460008201527f7265737300000000000000000000000000000000000000000000000000000000602082015250565b6000612d266024836120dc565b9150612d3182612cca565b604082019050919050565b60006020820190508181036000830152612d5581612d19565b9050919050565b7f4552433732313a20617070726f766520746f2063616c6c657200000000000000600082015250565b6000612d926019836120dc565b9150612d9d82612d5c565b602082019050919050565b60006020820190508181036000830152612dc181612d85565b9050919050565b7f4552433732313a207472616e7366657220746f206e6f6e20455243373231526560008201527f63656976657220696d706c656d656e7465720000000000000000000000000000602082015250565b6000612e246032836120dc565b9150612e2f82612dc8565b604082019050919050565b60006020820190508181036000830152612e5381612e17565b9050919050565b7f45524337323155524953746f726167653a2055524920736574206f66206e6f6e60008201527f6578697374656e7420746f6b656e000000000000000000000000000000000000602082015250565b6000612eb6602e836120dc565b9150612ec182612e5a565b604082019050919050565b60006020820190508181036000830152612ee581612ea9565b9050919050565b60008190508160005260206000209050919050565b60006020601f8301049050919050565b600082821b905092915050565b600060088302612f4e7fffffffffffffffffffffffffffffffffffffffffffffffffffffffffffffffff82612f11565b612f588683612f11565b95508019841693508086168417925050509392505050565b6000819050919050565b6000612f95612f90612f8b84612183565b612f70565b612183565b9050919050565b6000819050919050565b612faf83612f7a565b612fc3612fbb82612f9c565b848454612f1e565b825550505050565b600090565b612fd8612fcb565b612fe3818484612fa6565b505050565b5b8181101561300757612ffc600082612fd0565b600181019050612fe9565b5050565b601f82111561304c5761301d81612eec565b61302684612f01565b81016020851015613035578190505b61304961304185612f01565b830182612fe8565b50505b505050565b600082821c905092915050565b600061306f60001984600802613051565b1980831691505092915050565b6000613088838361305e565b9150826002028217905092915050565b6130a1826120d1565b67ffffffffffffffff8111156130ba576130b96123ce565b5b6130c48254612768565b6130cf82828561300b565b600060209050601f83116001811461310257600084156130f0578287015190505b6130fa858261307c565b865550613162565b601f19841661311086612eec565b60005b8281101561313857848901518255600182019150602085019450602081019050613113565b868310156131555784890151613151601f89168261305e565b8355505b6001600288020188555050505b505050505050565b6000819050919050565b600061318f61318a6131858461316a565b612f70565b612666565b9050919050565b61319f81613174565b82525050565b60006020820190506131ba6000830184613196565b92915050565b600081519050919050565b600082825260208201905092915050565b60006131e7826131c0565b6131f181856131cb565b93506132018185602086016120ed565b61320a81612117565b840191505092915050565b600060808201905061322a6000830187612218565b6132376020830186612218565b613244604083018561232e565b818103606083015261325681846131dc565b905095945050505050565b60008151905061327081612042565b92915050565b60006020828403121561328c5761328b61200c565b5b600061329a84828501613261565b91505092915050565b7f4e487b7100000000000000000000000000000000000000000000000000000000600052601260045260246000fd5b60006132dd82612183565b91506132e883612183565b9250828203905081811115613300576132ff612b19565b5b92915050565b7f4552433732313a206d696e7420746f20746865207a65726f2061646472657373600082015250565b600061333c6020836120dc565b915061334782613306565b602082019050919050565b6000602082019050818103600083015261336b8161332f565b9050919050565b7f4552433732313a20746f6b656e20616c7265616479206d696e74656400000000600082015250565b60006133a8601c836120dc565b91506133b382613372565b602082019050919050565b600060208201905081810360008301526133d78161339b565b905091905056fea264697066735822122050edef55689016214308efe659b6ef3fbf257342685f193fb03b887860aadfb764736f6c63430008110033",
  "linkReferences": {},
  "deployedLinkReferences": {}
}