{
  "_format": "hh-sol-artifact-1",
  "contractName": "ASE_Proxy",
  "sourceName": "contracts/ASEProxy.sol",
  "abi": [
    {
      "inputs": [
        {
          "internalType": "address",
          "name": "implContract",
          "type": "address"
        },
        {
          "internalType": "address",
          "name": "address1",
          "type": "address"
        },
        {
          "internalType": "address",
          "name": "address2",
          "type": "address"
        }
      ],
      "stateMutability": "nonpayable",
      "type": "constructor"
    },
    {
      "inputs": [],
      "name": "NotOwner",
      "type": "error"
    },
    {
      "anonymous": false,
      "inputs": [
        {
          "indexed": true,
          "internalType": "address",
          "name": "marketowner",
          "type": "address"
        },
        {
          "indexed": true,
          "internalType": "address",
          "name": "newImplAddrs",
          "type": "address"
        }
      ],
      "name": "ImplUpgrade",
      "type": "event"
    },
    {
      "anonymous": false,
      "inputs": [
        {
          "indexed": true,
          "internalType": "address",
          "name": "buyer",
          "type": "address"
        },
        {
          "indexed": true,
          "internalType": "address",
          "name": "nftAddress",
          "type": "address"
        },
        {
          "indexed": true,
          "internalType": "uint256",
          "name": "tokenId",
          "type": "uint256"
        },
        {
          "indexed": false,
          "internalType": "uint256",
          "name": "price",
          "type": "uint256"
        }
      ],
      "name": "ItemBought",
      "type": "event"
    },
    {
      "anonymous": false,
      "inputs": [
        {
          "indexed": true,
          "internalType": "address",
          "name": "seller",
          "type": "address"
        },
        {
          "indexed": true,
          "internalType": "address",
          "name": "nftAddress",
          "type": "address"
        },
        {
          "indexed": true,
          "internalType": "uint256",
          "name": "tokenId",
          "type": "uint256"
        }
      ],
      "name": "ItemCanceled",
      "type": "event"
    },
    {
      "anonymous": false,
      "inputs": [
        {
          "indexed": true,
          "internalType": "address",
          "name": "seller",
          "type": "address"
        },
        {
          "indexed": true,
          "internalType": "address",
          "name": "nftAddress",
          "type": "address"
        },
        {
          "indexed": true,
          "internalType": "uint256",
          "name": "tokenId",
          "type": "uint256"
        },
        {
          "indexed": false,
          "internalType": "uint256",
          "name": "price",
          "type": "uint256"
        }
      ],
      "name": "ItemListed",
      "type": "event"
    },
    {
      "inputs": [
        {
          "internalType": "address",
          "name": "nftAddress",
          "type": "address"
        },
        {
          "internalType": "uint256",
          "name": "tokenId",
          "type": "uint256"
        }
      ],
      "name": "buyItem",
      "outputs": [
        {
          "internalType": "string",
          "name": "",
          "type": "string"
        }
      ],
      "stateMutability": "payable",
      "type": "function"
    },
    {
      "inputs": [
        {
          "internalType": "address",
          "name": "nftAddress",
          "type": "address"
        },
        {
          "internalType": "uint256",
          "name": "tokenId",
          "type": "uint256"
        }
      ],
      "name": "cancelListing",
      "outputs": [
        {
          "internalType": "string",
          "name": "",
          "type": "string"
        }
      ],
      "stateMutability": "nonpayable",
      "type": "function"
    },
    {
      "inputs": [
        {
          "internalType": "address",
          "name": "cAddress",
          "type": "address"
        }
      ],
      "name": "createVotingProposal",
      "outputs": [],
      "stateMutability": "nonpayable",
      "type": "function"
    },
    {
      "inputs": [
        {
          "internalType": "address",
          "name": "nftAddress",
          "type": "address"
        },
        {
          "internalType": "uint256",
          "name": "tokenId",
          "type": "uint256"
        }
      ],
      "name": "getASListing",
      "outputs": [
        {
          "components": [
            {
              "internalType": "address",
              "name": "owner",
              "type": "address"
            },
            {
              "internalType": "address",
              "name": "nftContract",
              "type": "address"
            },
            {
              "internalType": "uint256",
              "name": "tokenId",
              "type": "uint256"
            },
            {
              "internalType": "uint256",
              "name": "price",
              "type": "uint256"
            }
          ],
          "internalType": "struct ASE_Proxy.Listing_sell",
          "name": "",
          "type": "tuple"
        }
      ],
      "stateMutability": "view",
      "type": "function"
    },
    {
      "inputs": [],
      "name": "getImplAddrs",
      "outputs": [
        {
          "internalType": "address",
          "name": "",
          "type": "address"
        }
      ],
      "stateMutability": "view",
      "type": "function"
    },
    {
      "inputs": [],
      "name": "getProceeds",
      "outputs": [
        {
          "internalType": "uint256",
          "name": "",
          "type": "uint256"
        }
      ],
      "stateMutability": "view",
      "type": "function"
    },
    {
      "inputs": [
        {
          "internalType": "address",
          "name": "nftAddress",
          "type": "address"
        }
      ],
      "name": "getSListedAdddressTokens",
      "outputs": [
        {
          "internalType": "uint256[]",
          "name": "",
          "type": "uint256[]"
        }
      ],
      "stateMutability": "view",
      "type": "function"
    },
    {
      "inputs": [],
      "name": "getSListedAdddresses",
      "outputs": [
        {
          "internalType": "address[]",
          "name": "",
          "type": "address[]"
        }
      ],
      "stateMutability": "view",
      "type": "function"
    },
    {
      "inputs": [
        {
          "internalType": "address",
          "name": "nftContract",
          "type": "address"
        }
      ],
      "name": "isNFT",
      "outputs": [
        {
          "internalType": "bool",
          "name": "",
          "type": "bool"
        }
      ],
      "stateMutability": "view",
      "type": "function"
    },
    {
      "inputs": [],
      "name": "isProposalApproved",
      "outputs": [
        {
          "internalType": "bool",
          "name": "",
          "type": "bool"
        }
      ],
      "stateMutability": "view",
      "type": "function"
    },
    {
      "inputs": [
        {
          "internalType": "address",
          "name": "nftAddress",
          "type": "address"
        },
        {
          "internalType": "uint256",
          "name": "tokenId",
          "type": "uint256"
        },
        {
          "internalType": "uint256",
          "name": "price",
          "type": "uint256"
        }
      ],
      "name": "listItem",
      "outputs": [
        {
          "internalType": "string",
          "name": "",
          "type": "string"
        }
      ],
      "stateMutability": "nonpayable",
      "type": "function"
    },
    {
      "inputs": [],
      "name": "updateImplContract",
      "outputs": [],
      "stateMutability": "nonpayable",
      "type": "function"
    },
    {
      "inputs": [
        {
          "internalType": "address",
          "name": "nftAddress",
          "type": "address"
        },
        {
          "internalType": "uint256",
          "name": "tokenId",
          "type": "uint256"
        },
        {
          "internalType": "uint256",
          "name": "newPrice",
          "type": "uint256"
        }
      ],
      "name": "updateListing",
      "outputs": [
        {
          "internalType": "string",
          "name": "",
          "type": "string"
        }
      ],
      "stateMutability": "nonpayable",
      "type": "function"
    },
    {
      "inputs": [
        {
          "internalType": "bool",
          "name": "supportChanges",
          "type": "bool"
        }
      ],
      "name": "voteOnProposal",
      "outputs": [],
      "stateMutability": "nonpayable",
      "type": "function"
    },
    {
      "inputs": [],
      "name": "withdrawProceeds",
      "outputs": [
        {
          "internalType": "string",
          "name": "",
          "type": "string"
        }
      ],
      "stateMutability": "nonpayable",
      "type": "function"
    }
  ],
  "bytecode": "0x6080604052662386f26fc100006002553480156200001c57600080fd5b506040516200232c3803806200232c8339818101604052810190620000429190620001c1565b600160008190555033600160006101000a81548173ffffffffffffffffffffffffffffffffffffffff021916908373ffffffffffffffffffffffffffffffffffffffff16021790555082600860006101000a81548173ffffffffffffffffffffffffffffffffffffffff021916908373ffffffffffffffffffffffffffffffffffffffff16021790555081600a60006101000a81548173ffffffffffffffffffffffffffffffffffffffff021916908373ffffffffffffffffffffffffffffffffffffffff16021790555080600b60006101000a81548173ffffffffffffffffffffffffffffffffffffffff021916908373ffffffffffffffffffffffffffffffffffffffff1602179055505050506200021d565b600080fd5b600073ffffffffffffffffffffffffffffffffffffffff82169050919050565b600062000189826200015c565b9050919050565b6200019b816200017c565b8114620001a757600080fd5b50565b600081519050620001bb8162000190565b92915050565b600080600060608486031215620001dd57620001dc62000157565b5b6000620001ed86828701620001aa565b93505060206200020086828701620001aa565b92505060406200021386828701620001aa565b9150509250925092565b6120ff806200022d6000396000f3fe6080604052600436106100e85760003560e01c8063b2ddee061161008a578063e3ccb80911610059578063e3ccb80914610325578063f5fa4d471461034e578063f772adf114610365578063f8e97ef9146103a2576100e8565b8063b2ddee0614610231578063b31b85c91461026e578063be587251146102ab578063cc6b11b1146102e8576100e8565b806389bfd38f116100c657806389bfd38f1461016e5780639038e693146101ab5780639f37092a146101d6578063ae546f7e14610206576100e8565b8063341a0b8a146100ed5780636ae012c81461011857806383bd958714610143575b600080fd5b3480156100f957600080fd5b506101026103cb565b60405161010f9190611682565b60405180910390f35b34801561012457600080fd5b5061012d6103e2565b60405161013a91906116b3565b60405180910390f35b34801561014f57600080fd5b5061015861040c565b60405161016591906116e7565b60405180910390f35b34801561017a57600080fd5b506101956004803603810190610190919061176e565b610453565b6040516101a29190611851565b60405180910390f35b3480156101b757600080fd5b506101c06105d4565b6040516101cd9190611851565b60405180910390f35b6101f060048036038101906101eb9190611873565b610742565b6040516101fd9190611851565b60405180910390f35b34801561021257600080fd5b5061021b6108c0565b60405161022891906118ce565b60405180910390f35b34801561023d57600080fd5b5061025860048036038101906102539190611873565b610913565b6040516102659190611851565b60405180910390f35b34801561027a57600080fd5b50610295600480360381019061029091906118e9565b610a91565b6040516102a291906118ce565b60405180910390f35b3480156102b757600080fd5b506102d260048036038101906102cd91906118e9565b610b47565b6040516102df91906119d4565b60405180910390f35b3480156102f457600080fd5b5061030f600480360381019061030a9190611873565b610b9d565b60405161031c9190611a4b565b60405180910390f35b34801561033157600080fd5b5061034c60048036038101906103479190611a92565b610cc8565b005b34801561035a57600080fd5b50610363610f0a565b005b34801561037157600080fd5b5061038c6004803603810190610387919061176e565b61119d565b6040516103999190611851565b60405180910390f35b3480156103ae57600080fd5b506103c960048036038101906103c491906118e9565b61131e565b005b606060006103d9600661142c565b90508091505090565b6000600860009054906101000a900473ffffffffffffffffffffffffffffffffffffffff16905090565b6000600460003373ffffffffffffffffffffffffffffffffffffffff1673ffffffffffffffffffffffffffffffffffffffff16815260200190815260200160002054905090565b6060600080600860009054906101000a900473ffffffffffffffffffffffffffffffffffffffff1673ffffffffffffffffffffffffffffffffffffffff168686866040516024016104a693929190611abf565b6040516020818303038152906040527f89bfd38f000000000000000000000000000000000000000000000000000000007bffffffffffffffffffffffffffffffffffffffffffffffffffffffff19166020820180517bffffffffffffffffffffffffffffffffffffffffffffffffffffffff83818316178352505050506040516105309190611b3d565b600060405180830381855af49150503d806000811461056b576040519150601f19603f3d011682016040523d82523d6000602084013e610570565b606091505b5091509150816105b5576040517f08c379a00000000000000000000000000000000000000000000000000000000081526004016105ac90611ba0565b60405180910390fd5b808060200190518101906105c99190611ce6565b925050509392505050565b6060600080600860009054906101000a900473ffffffffffffffffffffffffffffffffffffffff1673ffffffffffffffffffffffffffffffffffffffff166040516024016040516020818303038152906040527f9038e693000000000000000000000000000000000000000000000000000000007bffffffffffffffffffffffffffffffffffffffffffffffffffffffff19166020820180517bffffffffffffffffffffffffffffffffffffffffffffffffffffffff83818316178352505050506040516106a29190611b3d565b600060405180830381855af49150503d80600081146106dd576040519150601f19603f3d011682016040523d82523d6000602084013e6106e2565b606091505b509150915081610727576040517f08c379a000000000000000000000000000000000000000000000000000000000815260040161071e90611ba0565b60405180910390fd5b8080602001905181019061073b9190611ce6565b9250505090565b6060600080600860009054906101000a900473ffffffffffffffffffffffffffffffffffffffff1673ffffffffffffffffffffffffffffffffffffffff168585604051602401610793929190611d2f565b6040516020818303038152906040527f9f37092a000000000000000000000000000000000000000000000000000000007bffffffffffffffffffffffffffffffffffffffffffffffffffffffff19166020820180517bffffffffffffffffffffffffffffffffffffffffffffffffffffffff838183161783525050505060405161081d9190611b3d565b600060405180830381855af49150503d8060008114610858576040519150601f19603f3d011682016040523d82523d6000602084013e61085d565b606091505b5091509150816108a2576040517f08c379a000000000000000000000000000000000000000000000000000000000815260040161089990611ba0565b60405180910390fd5b808060200190518101906108b69190611ce6565b9250505092915050565b600080600960000160159054906101000a900460ff16600960000160149054906101000a900460ff166108f39190611d94565b905060048160ff160361090a576001915050610910565b60009150505b90565b6060600080600860009054906101000a900473ffffffffffffffffffffffffffffffffffffffff1673ffffffffffffffffffffffffffffffffffffffff168585604051602401610964929190611d2f565b6040516020818303038152906040527fb2ddee06000000000000000000000000000000000000000000000000000000007bffffffffffffffffffffffffffffffffffffffffffffffffffffffff19166020820180517bffffffffffffffffffffffffffffffffffffffffffffffffffffffff83818316178352505050506040516109ee9190611b3d565b600060405180830381855af49150503d8060008114610a29576040519150601f19603f3d011682016040523d82523d6000602084013e610a2e565b606091505b509150915081610a73576040517f08c379a0000000000000000000000000000000000000000000000000000000008152600401610a6a90611ba0565b60405180910390fd5b80806020019051810190610a879190611ce6565b9250505092915050565b600080600090508273ffffffffffffffffffffffffffffffffffffffff166301ffc9a77f80ac58cd000000000000000000000000000000000000000000000000000000006040518263ffffffff1660e01b8152600401610af19190611e04565b602060405180830381865afa925050508015610b2b57506040513d601f19601f82011682018060405250810190610b289190611e34565b60015b610b39576000915050610b42565b80915050809150505b919050565b60606000610b92600560008573ffffffffffffffffffffffffffffffffffffffff1673ffffffffffffffffffffffffffffffffffffffff16815260200190815260200160002061144d565b905080915050919050565b610ba561153e565b600360008473ffffffffffffffffffffffffffffffffffffffff1673ffffffffffffffffffffffffffffffffffffffff16815260200190815260200160002060008381526020019081526020016000206040518060800160405290816000820160009054906101000a900473ffffffffffffffffffffffffffffffffffffffff1673ffffffffffffffffffffffffffffffffffffffff1673ffffffffffffffffffffffffffffffffffffffff1681526020016001820160009054906101000a900473ffffffffffffffffffffffffffffffffffffffff1673ffffffffffffffffffffffffffffffffffffffff1673ffffffffffffffffffffffffffffffffffffffff16815260200160028201548152602001600382015481525050905092915050565b600a60009054906101000a900473ffffffffffffffffffffffffffffffffffffffff1673ffffffffffffffffffffffffffffffffffffffff163373ffffffffffffffffffffffffffffffffffffffff161480610d715750600b60009054906101000a900473ffffffffffffffffffffffffffffffffffffffff1673ffffffffffffffffffffffffffffffffffffffff163373ffffffffffffffffffffffffffffffffffffffff16145b610db0576040517f08c379a0000000000000000000000000000000000000000000000000000000008152600401610da790611ead565b60405180910390fd5b600a60009054906101000a900473ffffffffffffffffffffffffffffffffffffffff1673ffffffffffffffffffffffffffffffffffffffff163373ffffffffffffffffffffffffffffffffffffffff1603610e88576000600960000160149054906101000a900460ff1660ff1614610e5d576040517f08c379a0000000000000000000000000000000000000000000000000000000008152600401610e5490611f3f565b60405180910390fd5b610e668161146e565b600960000160146101000a81548160ff021916908360ff160217905550610f07565b6000600960000160159054906101000a900460ff1660ff1614610ee0576040517f08c379a0000000000000000000000000000000000000000000000000000000008152600401610ed790611f3f565b60405180910390fd5b610ee98161146e565b600960000160156101000a81548160ff021916908360ff1602179055505b50565b610f12611489565b338073ffffffffffffffffffffffffffffffffffffffff16600160009054906101000a900473ffffffffffffffffffffffffffffffffffffffff1673ffffffffffffffffffffffffffffffffffffffff1614610f9a576040517f30cd747100000000000000000000000000000000000000000000000000000000815260040160405180910390fd5b6000600960000160149054906101000a900460ff1660ff1614158015610fd657506000600960000160159054906101000a900460ff1660ff1614155b611015576040517f08c379a000000000000000000000000000000000000000000000000000000000815260040161100c90611fab565b60405180910390fd5b6002600960000160149054906101000a900460ff1660ff1614801561104f57506002600960000160159054906101000a900460ff1660ff16145b61108e576040517f08c379a00000000000000000000000000000000000000000000000000000000081526004016110859061203d565b60405180910390fd5b600960000160009054906101000a900473ffffffffffffffffffffffffffffffffffffffff16600860006101000a81548173ffffffffffffffffffffffffffffffffffffffff021916908373ffffffffffffffffffffffffffffffffffffffff160217905550600860009054906101000a900473ffffffffffffffffffffffffffffffffffffffff1673ffffffffffffffffffffffffffffffffffffffff16600160009054906101000a900473ffffffffffffffffffffffffffffffffffffffff1673ffffffffffffffffffffffffffffffffffffffff167f1ed34c9a7b236ee6031785cd9ca32de930e1ae39020c1279886b687a307e7fcb60405160405180910390a35061119b6114d8565b565b6060600080600860009054906101000a900473ffffffffffffffffffffffffffffffffffffffff1673ffffffffffffffffffffffffffffffffffffffff168686866040516024016111f093929190611abf565b6040516020818303038152906040527ff772adf1000000000000000000000000000000000000000000000000000000007bffffffffffffffffffffffffffffffffffffffffffffffffffffffff19166020820180517bffffffffffffffffffffffffffffffffffffffffffffffffffffffff838183161783525050505060405161127a9190611b3d565b600060405180830381855af49150503d80600081146112b5576040519150601f19603f3d011682016040523d82523d6000602084013e6112ba565b606091505b5091509150816112ff576040517f08c379a00000000000000000000000000000000000000000000000000000000081526004016112f690611ba0565b60405180910390fd5b808060200190518101906113139190611ce6565b925050509392505050565b338073ffffffffffffffffffffffffffffffffffffffff16600160009054906101000a900473ffffffffffffffffffffffffffffffffffffffff1673ffffffffffffffffffffffffffffffffffffffff16146113a6576040517f30cd747100000000000000000000000000000000000000000000000000000000815260040160405180910390fd5b81600960000160006101000a81548173ffffffffffffffffffffffffffffffffffffffff021916908373ffffffffffffffffffffffffffffffffffffffff1602179055506000600960000160146101000a81548160ff021916908360ff1602179055506000600960000160156101000a81548160ff021916908360ff1602179055505050565b6060600061143c836000016114e2565b905060608190508092505050919050565b6060600061145d836000016114e2565b905060608190508092505050919050565b6000811561147f5760029050611484565b600190505b919050565b6002600054036114ce576040517f08c379a00000000000000000000000000000000000000000000000000000000081526004016114c5906120a9565b60405180910390fd5b6002600081905550565b6001600081905550565b60608160000180548060200260200160405190810160405280929190818152602001828054801561153257602002820191906000526020600020905b81548152602001906001019080831161151e575b50505050509050919050565b6040518060800160405280600073ffffffffffffffffffffffffffffffffffffffff168152602001600073ffffffffffffffffffffffffffffffffffffffff16815260200160008152602001600081525090565b600081519050919050565b600082825260208201905092915050565b6000819050602082019050919050565b600073ffffffffffffffffffffffffffffffffffffffff82169050919050565b60006115e9826115be565b9050919050565b6115f9816115de565b82525050565b600061160b83836115f0565b60208301905092915050565b6000602082019050919050565b600061162f82611592565b611639818561159d565b9350611644836115ae565b8060005b8381101561167557815161165c88826115ff565b975061166783611617565b925050600181019050611648565b5085935050505092915050565b6000602082019050818103600083015261169c8184611624565b905092915050565b6116ad816115de565b82525050565b60006020820190506116c860008301846116a4565b92915050565b6000819050919050565b6116e1816116ce565b82525050565b60006020820190506116fc60008301846116d8565b92915050565b6000604051905090565b600080fd5b600080fd5b61171f816115de565b811461172a57600080fd5b50565b60008135905061173c81611716565b92915050565b61174b816116ce565b811461175657600080fd5b50565b60008135905061176881611742565b92915050565b6000806000606084860312156117875761178661170c565b5b60006117958682870161172d565b93505060206117a686828701611759565b92505060406117b786828701611759565b9150509250925092565b600081519050919050565b600082825260208201905092915050565b60005b838110156117fb5780820151818401526020810190506117e0565b60008484015250505050565b6000601f19601f8301169050919050565b6000611823826117c1565b61182d81856117cc565b935061183d8185602086016117dd565b61184681611807565b840191505092915050565b6000602082019050818103600083015261186b8184611818565b905092915050565b6000806040838503121561188a5761188961170c565b5b60006118988582860161172d565b92505060206118a985828601611759565b9150509250929050565b60008115159050919050565b6118c8816118b3565b82525050565b60006020820190506118e360008301846118bf565b92915050565b6000602082840312156118ff576118fe61170c565b5b600061190d8482850161172d565b91505092915050565b600081519050919050565b600082825260208201905092915050565b6000819050602082019050919050565b61194b816116ce565b82525050565b600061195d8383611942565b60208301905092915050565b6000602082019050919050565b600061198182611916565b61198b8185611921565b935061199683611932565b8060005b838110156119c75781516119ae8882611951565b97506119b983611969565b92505060018101905061199a565b5085935050505092915050565b600060208201905081810360008301526119ee8184611976565b905092915050565b608082016000820151611a0c60008501826115f0565b506020820151611a1f60208501826115f0565b506040820151611a326040850182611942565b506060820151611a456060850182611942565b50505050565b6000608082019050611a6060008301846119f6565b92915050565b611a6f816118b3565b8114611a7a57600080fd5b50565b600081359050611a8c81611a66565b92915050565b600060208284031215611aa857611aa761170c565b5b6000611ab684828501611a7d565b91505092915050565b6000606082019050611ad460008301866116a4565b611ae160208301856116d8565b611aee60408301846116d8565b949350505050565b600081519050919050565b600081905092915050565b6000611b1782611af6565b611b218185611b01565b9350611b318185602086016117dd565b80840191505092915050565b6000611b498284611b0c565b915081905092915050565b7f7472616e73616374696f6e206661696c65640000000000000000000000000000600082015250565b6000611b8a6012836117cc565b9150611b9582611b54565b602082019050919050565b60006020820190508181036000830152611bb981611b7d565b9050919050565b600080fd5b600080fd5b7f4e487b7100000000000000000000000000000000000000000000000000000000600052604160045260246000fd5b611c0282611807565b810181811067ffffffffffffffff82111715611c2157611c20611bca565b5b80604052505050565b6000611c34611702565b9050611c408282611bf9565b919050565b600067ffffffffffffffff821115611c6057611c5f611bca565b5b611c6982611807565b9050602081019050919050565b6000611c89611c8484611c45565b611c2a565b905082815260208101848484011115611ca557611ca4611bc5565b5b611cb08482856117dd565b509392505050565b600082601f830112611ccd57611ccc611bc0565b5b8151611cdd848260208601611c76565b91505092915050565b600060208284031215611cfc57611cfb61170c565b5b600082015167ffffffffffffffff811115611d1a57611d19611711565b5b611d2684828501611cb8565b91505092915050565b6000604082019050611d4460008301856116a4565b611d5160208301846116d8565b9392505050565b600060ff82169050919050565b7f4e487b7100000000000000000000000000000000000000000000000000000000600052601160045260246000fd5b6000611d9f82611d58565b9150611daa83611d58565b9250828201905060ff811115611dc357611dc2611d65565b5b92915050565b60007fffffffff0000000000000000000000000000000000000000000000000000000082169050919050565b611dfe81611dc9565b82525050565b6000602082019050611e196000830184611df5565b92915050565b600081519050611e2e81611a66565b92915050565b600060208284031215611e4a57611e4961170c565b5b6000611e5884828501611e1f565b91505092915050565b7f4e6f7420617574686f72697a656420746f20766f746500000000000000000000600082015250565b6000611e976016836117cc565b9150611ea282611e61565b602082019050919050565b60006020820190508181036000830152611ec681611e8a565b9050919050565b7f596f75206861766520616c726561647920766f746564206f6e2074686973207060008201527f726f706f73616c00000000000000000000000000000000000000000000000000602082015250565b6000611f296027836117cc565b9150611f3482611ecd565b604082019050919050565b60006020820190508181036000830152611f5881611f1c565b9050919050565b7f566f746572732068617665206e6f7420636f6d706c6574656420766f74696e67600082015250565b6000611f956020836117cc565b9150611fa082611f5f565b602082019050919050565b60006020820190508181036000830152611fc481611f88565b9050919050565b7f566f746572732068617665206e6f7420616772656564206f6e2074686520707260008201527f6f706f73616c0000000000000000000000000000000000000000000000000000602082015250565b60006120276026836117cc565b915061203282611fcb565b604082019050919050565b600060208201905081810360008301526120568161201a565b9050919050565b7f5265656e7472616e637947756172643a207265656e7472616e742063616c6c00600082015250565b6000612093601f836117cc565b915061209e8261205d565b602082019050919050565b600060208201905081810360008301526120c281612086565b905091905056fea2646970667358221220152094f7bf04d7846b0aa92aad5c6f2ade7ae50d48c2c1fdcc358522bfb3204864736f6c63430008110033",
  "linkReferences": {},
  "deployedLinkReferences": {}
}