{
  "_format": "hh-sol-artifact-1",
  "contractName": "ARE_Proxy",
  "sourceName": "contracts/AREProxy.sol",
  "abi": [
    {
      "inputs": [
        {
          "internalType": "address",
          "name": "implContract",
          "type": "address"
        },
        {
          "internalType": "address",
          "name": "address1",
          "type": "address"
        },
        {
          "internalType": "address",
          "name": "address2",
          "type": "address"
        }
      ],
      "stateMutability": "nonpayable",
      "type": "constructor"
    },
    {
      "inputs": [],
      "name": "NotOwner",
      "type": "error"
    },
    {
      "anonymous": false,
      "inputs": [
        {
          "indexed": true,
          "internalType": "address",
          "name": "marketowner",
          "type": "address"
        },
        {
          "indexed": true,
          "internalType": "address",
          "name": "newImplAddrs",
          "type": "address"
        }
      ],
      "name": "ImplUpgrade",
      "type": "event"
    },
    {
      "anonymous": false,
      "inputs": [
        {
          "indexed": true,
          "internalType": "address",
          "name": "owner",
          "type": "address"
        },
        {
          "indexed": true,
          "internalType": "address",
          "name": "user",
          "type": "address"
        },
        {
          "indexed": true,
          "internalType": "address",
          "name": "nftContract",
          "type": "address"
        },
        {
          "indexed": false,
          "internalType": "uint256",
          "name": "tokenId",
          "type": "uint256"
        },
        {
          "indexed": false,
          "internalType": "uint256",
          "name": "pricePerDay",
          "type": "uint256"
        },
        {
          "indexed": false,
          "internalType": "uint256",
          "name": "expires",
          "type": "uint256"
        }
      ],
      "name": "NFTListed",
      "type": "event"
    },
    {
      "anonymous": false,
      "inputs": [
        {
          "indexed": true,
          "internalType": "address",
          "name": "owner",
          "type": "address"
        },
        {
          "indexed": true,
          "internalType": "address",
          "name": "user",
          "type": "address"
        },
        {
          "indexed": true,
          "internalType": "address",
          "name": "nftContract",
          "type": "address"
        },
        {
          "indexed": false,
          "internalType": "uint256",
          "name": "tokenId",
          "type": "uint256"
        },
        {
          "indexed": false,
          "internalType": "uint64",
          "name": "expires",
          "type": "uint64"
        },
        {
          "indexed": false,
          "internalType": "uint256",
          "name": "rentalFee",
          "type": "uint256"
        }
      ],
      "name": "NFTRented",
      "type": "event"
    },
    {
      "anonymous": false,
      "inputs": [
        {
          "indexed": true,
          "internalType": "address",
          "name": "unlistSender",
          "type": "address"
        },
        {
          "indexed": true,
          "internalType": "address",
          "name": "nftContract",
          "type": "address"
        },
        {
          "indexed": true,
          "internalType": "uint256",
          "name": "tokenId",
          "type": "uint256"
        }
      ],
      "name": "NFTUnlisted",
      "type": "event"
    },
    {
      "inputs": [
        {
          "internalType": "address",
          "name": "cAddress",
          "type": "address"
        }
      ],
      "name": "createVotingProposal",
      "outputs": [],
      "stateMutability": "nonpayable",
      "type": "function"
    },
    {
      "inputs": [
        {
          "internalType": "address",
          "name": "nftAddress",
          "type": "address"
        },
        {
          "internalType": "uint256",
          "name": "tokenId",
          "type": "uint256"
        }
      ],
      "name": "getARListing",
      "outputs": [
        {
          "components": [
            {
              "internalType": "address",
              "name": "owner",
              "type": "address"
            },
            {
              "internalType": "address",
              "name": "user",
              "type": "address"
            },
            {
              "internalType": "address",
              "name": "nftContract",
              "type": "address"
            },
            {
              "internalType": "uint256",
              "name": "tokenId",
              "type": "uint256"
            },
            {
              "internalType": "uint256",
              "name": "pricePerDay",
              "type": "uint256"
            },
            {
              "internalType": "uint256",
              "name": "expires",
              "type": "uint256"
            }
          ],
          "internalType": "struct ARE_Proxy.Listing_rent",
          "name": "",
          "type": "tuple"
        }
      ],
      "stateMutability": "view",
      "type": "function"
    },
    {
      "inputs": [],
      "name": "getImplAddrs",
      "outputs": [
        {
          "internalType": "address",
          "name": "",
          "type": "address"
        }
      ],
      "stateMutability": "view",
      "type": "function"
    },
    {
      "inputs": [],
      "name": "getListingFee",
      "outputs": [
        {
          "internalType": "uint256",
          "name": "",
          "type": "uint256"
        }
      ],
      "stateMutability": "view",
      "type": "function"
    },
    {
      "inputs": [
        {
          "internalType": "address",
          "name": "nftAddress",
          "type": "address"
        }
      ],
      "name": "getRListedAdddressTokens",
      "outputs": [
        {
          "internalType": "uint256[]",
          "name": "",
          "type": "uint256[]"
        }
      ],
      "stateMutability": "view",
      "type": "function"
    },
    {
      "inputs": [],
      "name": "getRListedAdddresses",
      "outputs": [
        {
          "internalType": "address[]",
          "name": "",
          "type": "address[]"
        }
      ],
      "stateMutability": "view",
      "type": "function"
    },
    {
      "inputs": [
        {
          "internalType": "address",
          "name": "nftContract",
          "type": "address"
        }
      ],
      "name": "isNFT",
      "outputs": [
        {
          "internalType": "bool",
          "name": "",
          "type": "bool"
        }
      ],
      "stateMutability": "view",
      "type": "function"
    },
    {
      "inputs": [],
      "name": "isProposalApproved",
      "outputs": [
        {
          "internalType": "bool",
          "name": "",
          "type": "bool"
        }
      ],
      "stateMutability": "view",
      "type": "function"
    },
    {
      "inputs": [
        {
          "internalType": "address",
          "name": "nftContract",
          "type": "address"
        }
      ],
      "name": "isRentableNFT",
      "outputs": [
        {
          "internalType": "bool",
          "name": "",
          "type": "bool"
        }
      ],
      "stateMutability": "view",
      "type": "function"
    },
    {
      "inputs": [
        {
          "internalType": "address",
          "name": "nftAddress",
          "type": "address"
        },
        {
          "internalType": "uint256",
          "name": "tokenId",
          "type": "uint256"
        },
        {
          "internalType": "uint256",
          "name": "pricePerDay",
          "type": "uint256"
        }
      ],
      "name": "listNFT",
      "outputs": [
        {
          "internalType": "string",
          "name": "",
          "type": "string"
        }
      ],
      "stateMutability": "payable",
      "type": "function"
    },
    {
      "inputs": [
        {
          "internalType": "address",
          "name": "nftAddress",
          "type": "address"
        },
        {
          "internalType": "uint256",
          "name": "tokenId",
          "type": "uint256"
        },
        {
          "internalType": "uint64",
          "name": "numDays",
          "type": "uint64"
        }
      ],
      "name": "rentNFT",
      "outputs": [
        {
          "internalType": "string",
          "name": "",
          "type": "string"
        }
      ],
      "stateMutability": "payable",
      "type": "function"
    },
    {
      "inputs": [
        {
          "internalType": "address",
          "name": "nftAddress",
          "type": "address"
        },
        {
          "internalType": "uint256",
          "name": "tokenId",
          "type": "uint256"
        }
      ],
      "name": "unlistNFT",
      "outputs": [
        {
          "internalType": "string",
          "name": "",
          "type": "string"
        }
      ],
      "stateMutability": "payable",
      "type": "function"
    },
    {
      "inputs": [],
      "name": "updateImplContract",
      "outputs": [],
      "stateMutability": "nonpayable",
      "type": "function"
    },
    {
      "inputs": [
        {
          "internalType": "address",
          "name": "nftAddress",
          "type": "address"
        },
        {
          "internalType": "uint256",
          "name": "tokenId",
          "type": "uint256"
        },
        {
          "internalType": "uint256",
          "name": "pricePerDay",
          "type": "uint256"
        }
      ],
      "name": "updateNFT",
      "outputs": [
        {
          "internalType": "string",
          "name": "",
          "type": "string"
        }
      ],
      "stateMutability": "nonpayable",
      "type": "function"
    },
    {
      "inputs": [
        {
          "internalType": "bool",
          "name": "supportChanges",
          "type": "bool"
        }
      ],
      "name": "voteOnProposal",
      "outputs": [],
      "stateMutability": "nonpayable",
      "type": "function"
    }
  ],
  "bytecode": "0x6080604052662386f26fc10000600255600a600360006101000a81548167ffffffffffffffff021916908367ffffffffffffffff1602179055503480156200004657600080fd5b50604051620024923803806200249283398181016040528101906200006c9190620001eb565b600160008190555033600160006101000a81548173ffffffffffffffffffffffffffffffffffffffff021916908373ffffffffffffffffffffffffffffffffffffffff16021790555082600860006101000a81548173ffffffffffffffffffffffffffffffffffffffff021916908373ffffffffffffffffffffffffffffffffffffffff16021790555081600a60006101000a81548173ffffffffffffffffffffffffffffffffffffffff021916908373ffffffffffffffffffffffffffffffffffffffff16021790555080600b60006101000a81548173ffffffffffffffffffffffffffffffffffffffff021916908373ffffffffffffffffffffffffffffffffffffffff16021790555050505062000247565b600080fd5b600073ffffffffffffffffffffffffffffffffffffffff82169050919050565b6000620001b38262000186565b9050919050565b620001c581620001a6565b8114620001d157600080fd5b50565b600081519050620001e581620001ba565b92915050565b60008060006060848603121562000207576200020662000181565b5b60006200021786828701620001d4565b93505060206200022a86828701620001d4565b92505060406200023d86828701620001d4565b9150509250925092565b61223b80620002576000396000f3fe6080604052600436106100e85760003560e01c8063ae546f7e1161008a578063e9a6f4f611610059578063e9a6f4f614610309578063f5fa4d4714610346578063f8e97ef91461035d578063f9b8ed2514610386576100e8565b8063ae546f7e1461024d578063b31b85c914610278578063b8fe6abe146102b5578063e3ccb809146102e0576100e8565b80637fc27efd116100c65780637fc27efd1461019257806395046b7c146101c25780639a34f003146101ed578063ad05f1b41461021d576100e8565b80631578e7c8146100ed578063555df3cd1461012a5780636ae012c814610167575b600080fd5b3480156100f957600080fd5b50610114600480360381019061010f9190611677565b6103c3565b6040516101219190611750565b60405180910390f35b34801561013657600080fd5b50610151600480360381019061014c919061176b565b61054e565b60405161015e9190611847565b60405180910390f35b34801561017357600080fd5b5061017c6105a4565b6040516101899190611878565b60405180910390f35b6101ac60048036038101906101a79190611677565b6105ce565b6040516101b99190611923565b60405180910390f35b3480156101ce57600080fd5b506101d761074c565b6040516101e491906119f4565b60405180910390f35b61020760048036038101906102029190611a56565b610763565b6040516102149190611923565b60405180910390f35b61023760048036038101906102329190611aa9565b6108e4565b6040516102449190611923565b60405180910390f35b34801561025957600080fd5b50610262610a65565b60405161026f9190611b17565b60405180910390f35b34801561028457600080fd5b5061029f600480360381019061029a919061176b565b610ab8565b6040516102ac9190611b17565b60405180910390f35b3480156102c157600080fd5b506102ca610b6e565b6040516102d79190611b41565b60405180910390f35b3480156102ec57600080fd5b5061030760048036038101906103029190611b88565b610b78565b005b34801561031557600080fd5b50610330600480360381019061032b919061176b565b610dba565b60405161033d9190611b17565b60405180910390f35b34801561035257600080fd5b5061035b610f23565b005b34801561036957600080fd5b50610384600480360381019061037f919061176b565b6111b6565b005b34801561039257600080fd5b506103ad60048036038101906103a89190611aa9565b6112c4565b6040516103ba9190611923565b60405180910390f35b6103cb611557565b600460008473ffffffffffffffffffffffffffffffffffffffff1673ffffffffffffffffffffffffffffffffffffffff16815260200190815260200160002060008381526020019081526020016000206040518060c00160405290816000820160009054906101000a900473ffffffffffffffffffffffffffffffffffffffff1673ffffffffffffffffffffffffffffffffffffffff1673ffffffffffffffffffffffffffffffffffffffff1681526020016001820160009054906101000a900473ffffffffffffffffffffffffffffffffffffffff1673ffffffffffffffffffffffffffffffffffffffff1673ffffffffffffffffffffffffffffffffffffffff1681526020016002820160009054906101000a900473ffffffffffffffffffffffffffffffffffffffff1673ffffffffffffffffffffffffffffffffffffffff1673ffffffffffffffffffffffffffffffffffffffff1681526020016003820154815260200160048201548152602001600582015481525050905092915050565b60606000610599600560008573ffffffffffffffffffffffffffffffffffffffff1673ffffffffffffffffffffffffffffffffffffffff168152602001908152602001600020611445565b905080915050919050565b6000600860009054906101000a900473ffffffffffffffffffffffffffffffffffffffff16905090565b6060600080600860009054906101000a900473ffffffffffffffffffffffffffffffffffffffff1673ffffffffffffffffffffffffffffffffffffffff16858560405160240161061f929190611bb5565b6040516020818303038152906040527f7fc27efd000000000000000000000000000000000000000000000000000000007bffffffffffffffffffffffffffffffffffffffffffffffffffffffff19166020820180517bffffffffffffffffffffffffffffffffffffffffffffffffffffffff83818316178352505050506040516106a99190611c25565b600060405180830381855af49150503d80600081146106e4576040519150601f19603f3d011682016040523d82523d6000602084013e6106e9565b606091505b50915091508161072e576040517f08c379a000000000000000000000000000000000000000000000000000000000815260040161072590611c88565b60405180910390fd5b808060200190518101906107429190611dce565b9250505092915050565b6060600061075a6006611466565b90508091505090565b6060600080600860009054906101000a900473ffffffffffffffffffffffffffffffffffffffff1673ffffffffffffffffffffffffffffffffffffffff168686866040516024016107b693929190611e26565b6040516020818303038152906040527f9a34f003000000000000000000000000000000000000000000000000000000007bffffffffffffffffffffffffffffffffffffffffffffffffffffffff19166020820180517bffffffffffffffffffffffffffffffffffffffffffffffffffffffff83818316178352505050506040516108409190611c25565b600060405180830381855af49150503d806000811461087b576040519150601f19603f3d011682016040523d82523d6000602084013e610880565b606091505b5091509150816108c5576040517f08c379a00000000000000000000000000000000000000000000000000000000081526004016108bc90611c88565b60405180910390fd5b808060200190518101906108d99190611dce565b925050509392505050565b6060600080600860009054906101000a900473ffffffffffffffffffffffffffffffffffffffff1673ffffffffffffffffffffffffffffffffffffffff1686868660405160240161093793929190611e5d565b6040516020818303038152906040527fad05f1b4000000000000000000000000000000000000000000000000000000007bffffffffffffffffffffffffffffffffffffffffffffffffffffffff19166020820180517bffffffffffffffffffffffffffffffffffffffffffffffffffffffff83818316178352505050506040516109c19190611c25565b600060405180830381855af49150503d80600081146109fc576040519150601f19603f3d011682016040523d82523d6000602084013e610a01565b606091505b509150915081610a46576040517f08c379a0000000000000000000000000000000000000000000000000000000008152600401610a3d90611c88565b60405180910390fd5b80806020019051810190610a5a9190611dce565b925050509392505050565b600080600960000160159054906101000a900460ff16600960000160149054906101000a900460ff16610a989190611ed0565b905060048160ff1603610aaf576001915050610ab5565b60009150505b90565b600080600090508273ffffffffffffffffffffffffffffffffffffffff166301ffc9a77f80ac58cd000000000000000000000000000000000000000000000000000000006040518263ffffffff1660e01b8152600401610b189190611f40565b602060405180830381865afa925050508015610b5257506040513d601f19601f82011682018060405250810190610b4f9190611f70565b60015b610b60576000915050610b69565b80915050809150505b919050565b6000600254905090565b600a60009054906101000a900473ffffffffffffffffffffffffffffffffffffffff1673ffffffffffffffffffffffffffffffffffffffff163373ffffffffffffffffffffffffffffffffffffffff161480610c215750600b60009054906101000a900473ffffffffffffffffffffffffffffffffffffffff1673ffffffffffffffffffffffffffffffffffffffff163373ffffffffffffffffffffffffffffffffffffffff16145b610c60576040517f08c379a0000000000000000000000000000000000000000000000000000000008152600401610c5790611fe9565b60405180910390fd5b600a60009054906101000a900473ffffffffffffffffffffffffffffffffffffffff1673ffffffffffffffffffffffffffffffffffffffff163373ffffffffffffffffffffffffffffffffffffffff1603610d38576000600960000160149054906101000a900460ff1660ff1614610d0d576040517f08c379a0000000000000000000000000000000000000000000000000000000008152600401610d049061207b565b60405180910390fd5b610d1681611487565b600960000160146101000a81548160ff021916908360ff160217905550610db7565b6000600960000160159054906101000a900460ff1660ff1614610d90576040517f08c379a0000000000000000000000000000000000000000000000000000000008152600401610d879061207b565b60405180910390fd5b610d9981611487565b600960000160156101000a81548160ff021916908360ff1602179055505b50565b6000806000905060008373ffffffffffffffffffffffffffffffffffffffff166301ffc9a77fad092b5c000000000000000000000000000000000000000000000000000000006040518263ffffffff1660e01b8152600401610e1c9190611f40565b602060405180830381865afa925050508015610e5657506040513d601f19601f82011682018060405250810190610e539190611f70565b60015b610e6557600092505050610f1e565b809250508373ffffffffffffffffffffffffffffffffffffffff166301ffc9a77f80ac58cd000000000000000000000000000000000000000000000000000000006040518263ffffffff1660e01b8152600401610ec29190611f40565b602060405180830381865afa925050508015610efc57506040513d601f19601f82011682018060405250810190610ef99190611f70565b60015b610f0b57600092505050610f1e565b80915050818015610f195750805b925050505b919050565b610f2b6114a2565b338073ffffffffffffffffffffffffffffffffffffffff16600160009054906101000a900473ffffffffffffffffffffffffffffffffffffffff1673ffffffffffffffffffffffffffffffffffffffff1614610fb3576040517f30cd747100000000000000000000000000000000000000000000000000000000815260040160405180910390fd5b6000600960000160149054906101000a900460ff1660ff1614158015610fef57506000600960000160159054906101000a900460ff1660ff1614155b61102e576040517f08c379a0000000000000000000000000000000000000000000000000000000008152600401611025906120e7565b60405180910390fd5b6002600960000160149054906101000a900460ff1660ff1614801561106857506002600960000160159054906101000a900460ff1660ff16145b6110a7576040517f08c379a000000000000000000000000000000000000000000000000000000000815260040161109e90612179565b60405180910390fd5b600960000160009054906101000a900473ffffffffffffffffffffffffffffffffffffffff16600860006101000a81548173ffffffffffffffffffffffffffffffffffffffff021916908373ffffffffffffffffffffffffffffffffffffffff160217905550600860009054906101000a900473ffffffffffffffffffffffffffffffffffffffff1673ffffffffffffffffffffffffffffffffffffffff16600160009054906101000a900473ffffffffffffffffffffffffffffffffffffffff1673ffffffffffffffffffffffffffffffffffffffff167f1ed34c9a7b236ee6031785cd9ca32de930e1ae39020c1279886b687a307e7fcb60405160405180910390a3506111b46114f1565b565b338073ffffffffffffffffffffffffffffffffffffffff16600160009054906101000a900473ffffffffffffffffffffffffffffffffffffffff1673ffffffffffffffffffffffffffffffffffffffff161461123e576040517f30cd747100000000000000000000000000000000000000000000000000000000815260040160405180910390fd5b81600960000160006101000a81548173ffffffffffffffffffffffffffffffffffffffff021916908373ffffffffffffffffffffffffffffffffffffffff1602179055506000600960000160146101000a81548160ff021916908360ff1602179055506000600960000160156101000a81548160ff021916908360ff1602179055505050565b6060600080600860009054906101000a900473ffffffffffffffffffffffffffffffffffffffff1673ffffffffffffffffffffffffffffffffffffffff1686868660405160240161131793929190611e5d565b6040516020818303038152906040527f979bcbb2000000000000000000000000000000000000000000000000000000007bffffffffffffffffffffffffffffffffffffffffffffffffffffffff19166020820180517bffffffffffffffffffffffffffffffffffffffffffffffffffffffff83818316178352505050506040516113a19190611c25565b600060405180830381855af49150503d80600081146113dc576040519150601f19603f3d011682016040523d82523d6000602084013e6113e1565b606091505b509150915081611426576040517f08c379a000000000000000000000000000000000000000000000000000000000815260040161141d90611c88565b60405180910390fd5b8080602001905181019061143a9190611dce565b925050509392505050565b60606000611455836000016114fb565b905060608190508092505050919050565b60606000611476836000016114fb565b905060608190508092505050919050565b60008115611498576002905061149d565b600190505b919050565b6002600054036114e7576040517f08c379a00000000000000000000000000000000000000000000000000000000081526004016114de906121e5565b60405180910390fd5b6002600081905550565b6001600081905550565b60608160000180548060200260200160405190810160405280929190818152602001828054801561154b57602002820191906000526020600020905b815481526020019060010190808311611537575b50505050509050919050565b6040518060c00160405280600073ffffffffffffffffffffffffffffffffffffffff168152602001600073ffffffffffffffffffffffffffffffffffffffff168152602001600073ffffffffffffffffffffffffffffffffffffffff1681526020016000815260200160008152602001600081525090565b6000604051905090565b600080fd5b600080fd5b600073ffffffffffffffffffffffffffffffffffffffff82169050919050565b600061160e826115e3565b9050919050565b61161e81611603565b811461162957600080fd5b50565b60008135905061163b81611615565b92915050565b6000819050919050565b61165481611641565b811461165f57600080fd5b50565b6000813590506116718161164b565b92915050565b6000806040838503121561168e5761168d6115d9565b5b600061169c8582860161162c565b92505060206116ad85828601611662565b9150509250929050565b6116c081611603565b82525050565b6116cf81611641565b82525050565b60c0820160008201516116eb60008501826116b7565b5060208201516116fe60208501826116b7565b50604082015161171160408501826116b7565b50606082015161172460608501826116c6565b50608082015161173760808501826116c6565b5060a082015161174a60a08501826116c6565b50505050565b600060c08201905061176560008301846116d5565b92915050565b600060208284031215611781576117806115d9565b5b600061178f8482850161162c565b91505092915050565b600081519050919050565b600082825260208201905092915050565b6000819050602082019050919050565b60006117d083836116c6565b60208301905092915050565b6000602082019050919050565b60006117f482611798565b6117fe81856117a3565b9350611809836117b4565b8060005b8381101561183a57815161182188826117c4565b975061182c836117dc565b92505060018101905061180d565b5085935050505092915050565b6000602082019050818103600083015261186181846117e9565b905092915050565b61187281611603565b82525050565b600060208201905061188d6000830184611869565b92915050565b600081519050919050565b600082825260208201905092915050565b60005b838110156118cd5780820151818401526020810190506118b2565b60008484015250505050565b6000601f19601f8301169050919050565b60006118f582611893565b6118ff818561189e565b935061190f8185602086016118af565b611918816118d9565b840191505092915050565b6000602082019050818103600083015261193d81846118ea565b905092915050565b600081519050919050565b600082825260208201905092915050565b6000819050602082019050919050565b600061197d83836116b7565b60208301905092915050565b6000602082019050919050565b60006119a182611945565b6119ab8185611950565b93506119b683611961565b8060005b838110156119e75781516119ce8882611971565b97506119d983611989565b9250506001810190506119ba565b5085935050505092915050565b60006020820190508181036000830152611a0e8184611996565b905092915050565b600067ffffffffffffffff82169050919050565b611a3381611a16565b8114611a3e57600080fd5b50565b600081359050611a5081611a2a565b92915050565b600080600060608486031215611a6f57611a6e6115d9565b5b6000611a7d8682870161162c565b9350506020611a8e86828701611662565b9250506040611a9f86828701611a41565b9150509250925092565b600080600060608486031215611ac257611ac16115d9565b5b6000611ad08682870161162c565b9350506020611ae186828701611662565b9250506040611af286828701611662565b9150509250925092565b60008115159050919050565b611b1181611afc565b82525050565b6000602082019050611b2c6000830184611b08565b92915050565b611b3b81611641565b82525050565b6000602082019050611b566000830184611b32565b92915050565b611b6581611afc565b8114611b7057600080fd5b50565b600081359050611b8281611b5c565b92915050565b600060208284031215611b9e57611b9d6115d9565b5b6000611bac84828501611b73565b91505092915050565b6000604082019050611bca6000830185611869565b611bd76020830184611b32565b9392505050565b600081519050919050565b600081905092915050565b6000611bff82611bde565b611c098185611be9565b9350611c198185602086016118af565b80840191505092915050565b6000611c318284611bf4565b915081905092915050565b7f7472616e73616374696f6e206661696c65640000000000000000000000000000600082015250565b6000611c7260128361189e565b9150611c7d82611c3c565b602082019050919050565b60006020820190508181036000830152611ca181611c65565b9050919050565b600080fd5b600080fd5b7f4e487b7100000000000000000000000000000000000000000000000000000000600052604160045260246000fd5b611cea826118d9565b810181811067ffffffffffffffff82111715611d0957611d08611cb2565b5b80604052505050565b6000611d1c6115cf565b9050611d288282611ce1565b919050565b600067ffffffffffffffff821115611d4857611d47611cb2565b5b611d51826118d9565b9050602081019050919050565b6000611d71611d6c84611d2d565b611d12565b905082815260208101848484011115611d8d57611d8c611cad565b5b611d988482856118af565b509392505050565b600082601f830112611db557611db4611ca8565b5b8151611dc5848260208601611d5e565b91505092915050565b600060208284031215611de457611de36115d9565b5b600082015167ffffffffffffffff811115611e0257611e016115de565b5b611e0e84828501611da0565b91505092915050565b611e2081611a16565b82525050565b6000606082019050611e3b6000830186611869565b611e486020830185611b32565b611e556040830184611e17565b949350505050565b6000606082019050611e726000830186611869565b611e7f6020830185611b32565b611e8c6040830184611b32565b949350505050565b600060ff82169050919050565b7f4e487b7100000000000000000000000000000000000000000000000000000000600052601160045260246000fd5b6000611edb82611e94565b9150611ee683611e94565b9250828201905060ff811115611eff57611efe611ea1565b5b92915050565b60007fffffffff0000000000000000000000000000000000000000000000000000000082169050919050565b611f3a81611f05565b82525050565b6000602082019050611f556000830184611f31565b92915050565b600081519050611f6a81611b5c565b92915050565b600060208284031215611f8657611f856115d9565b5b6000611f9484828501611f5b565b91505092915050565b7f4e6f7420617574686f72697a656420746f20766f746500000000000000000000600082015250565b6000611fd360168361189e565b9150611fde82611f9d565b602082019050919050565b6000602082019050818103600083015261200281611fc6565b9050919050565b7f596f75206861766520616c726561647920766f746564206f6e2074686973207060008201527f726f706f73616c00000000000000000000000000000000000000000000000000602082015250565b600061206560278361189e565b915061207082612009565b604082019050919050565b6000602082019050818103600083015261209481612058565b9050919050565b7f566f746572732068617665206e6f7420636f6d706c6574656420766f74696e67600082015250565b60006120d160208361189e565b91506120dc8261209b565b602082019050919050565b60006020820190508181036000830152612100816120c4565b9050919050565b7f566f746572732068617665206e6f7420616772656564206f6e2074686520707260008201527f6f706f73616c0000000000000000000000000000000000000000000000000000602082015250565b600061216360268361189e565b915061216e82612107565b604082019050919050565b6000602082019050818103600083015261219281612156565b9050919050565b7f5265656e7472616e637947756172643a207265656e7472616e742063616c6c00600082015250565b60006121cf601f8361189e565b91506121da82612199565b602082019050919050565b600060208201905081810360008301526121fe816121c2565b905091905056fea2646970667358221220fd6a40746916dea88385f96ae5b3e5bd96ddc15b419947b54f4334a5d67a7ebc64736f6c63430008110033",
  "linkReferences": {},
  "deployedLinkReferences": {}
}