{
  "_format": "hh-sol-artifact-1",
  "contractName": "AvianMarkett",
  "sourceName": "contracts/AvianMarkett.sol",
  "abi": [
    {
      "inputs": [],
      "stateMutability": "nonpayable",
      "type": "constructor"
    },
    {
      "inputs": [
        {
          "internalType": "address",
          "name": "nftAddress",
          "type": "address"
        },
        {
          "internalType": "uint256",
          "name": "tokenId",
          "type": "uint256"
        }
      ],
      "name": "AlreadyListed",
      "type": "error"
    },
    {
      "inputs": [],
      "name": "NoProceeds",
      "type": "error"
    },
    {
      "inputs": [],
      "name": "NotApprovedForMarketplace",
      "type": "error"
    },
    {
      "inputs": [
        {
          "internalType": "address",
          "name": "nftAddress",
          "type": "address"
        },
        {
          "internalType": "uint256",
          "name": "tokenId",
          "type": "uint256"
        }
      ],
      "name": "NotListed",
      "type": "error"
    },
    {
      "inputs": [],
      "name": "NotOwner",
      "type": "error"
    },
    {
      "inputs": [
        {
          "internalType": "address",
          "name": "nftAddress",
          "type": "address"
        },
        {
          "internalType": "uint256",
          "name": "tokenId",
          "type": "uint256"
        },
        {
          "internalType": "uint256",
          "name": "price",
          "type": "uint256"
        }
      ],
      "name": "PriceNotMet",
      "type": "error"
    },
    {
      "anonymous": false,
      "inputs": [
        {
          "indexed": true,
          "internalType": "address",
          "name": "buyer",
          "type": "address"
        },
        {
          "indexed": true,
          "internalType": "address",
          "name": "nftAddress",
          "type": "address"
        },
        {
          "indexed": true,
          "internalType": "uint256",
          "name": "tokenId",
          "type": "uint256"
        },
        {
          "indexed": false,
          "internalType": "uint256",
          "name": "price",
          "type": "uint256"
        }
      ],
      "name": "ItemBought",
      "type": "event"
    },
    {
      "anonymous": false,
      "inputs": [
        {
          "indexed": true,
          "internalType": "address",
          "name": "seller",
          "type": "address"
        },
        {
          "indexed": true,
          "internalType": "address",
          "name": "nftAddress",
          "type": "address"
        },
        {
          "indexed": true,
          "internalType": "uint256",
          "name": "tokenId",
          "type": "uint256"
        }
      ],
      "name": "ItemCanceled",
      "type": "event"
    },
    {
      "anonymous": false,
      "inputs": [
        {
          "indexed": true,
          "internalType": "address",
          "name": "seller",
          "type": "address"
        },
        {
          "indexed": true,
          "internalType": "address",
          "name": "nftAddress",
          "type": "address"
        },
        {
          "indexed": true,
          "internalType": "uint256",
          "name": "tokenId",
          "type": "uint256"
        },
        {
          "indexed": false,
          "internalType": "uint256",
          "name": "price",
          "type": "uint256"
        }
      ],
      "name": "ItemListed",
      "type": "event"
    },
    {
      "anonymous": false,
      "inputs": [
        {
          "indexed": true,
          "internalType": "address",
          "name": "owner",
          "type": "address"
        },
        {
          "indexed": true,
          "internalType": "address",
          "name": "user",
          "type": "address"
        },
        {
          "indexed": true,
          "internalType": "address",
          "name": "nftContract",
          "type": "address"
        },
        {
          "indexed": false,
          "internalType": "uint256",
          "name": "tokenId",
          "type": "uint256"
        },
        {
          "indexed": false,
          "internalType": "uint256",
          "name": "pricePerDay",
          "type": "uint256"
        },
        {
          "indexed": false,
          "internalType": "uint256",
          "name": "startDateUNIX",
          "type": "uint256"
        },
        {
          "indexed": false,
          "internalType": "uint256",
          "name": "endDateUNIX",
          "type": "uint256"
        },
        {
          "indexed": false,
          "internalType": "uint256",
          "name": "expires",
          "type": "uint256"
        }
      ],
      "name": "NFTListed",
      "type": "event"
    },
    {
      "anonymous": false,
      "inputs": [
        {
          "indexed": true,
          "internalType": "address",
          "name": "owner",
          "type": "address"
        },
        {
          "indexed": true,
          "internalType": "address",
          "name": "user",
          "type": "address"
        },
        {
          "indexed": true,
          "internalType": "address",
          "name": "nftContract",
          "type": "address"
        },
        {
          "indexed": false,
          "internalType": "uint256",
          "name": "tokenId",
          "type": "uint256"
        },
        {
          "indexed": false,
          "internalType": "uint256",
          "name": "startDateUNIX",
          "type": "uint256"
        },
        {
          "indexed": false,
          "internalType": "uint256",
          "name": "endDateUNIX",
          "type": "uint256"
        },
        {
          "indexed": false,
          "internalType": "uint64",
          "name": "expires",
          "type": "uint64"
        },
        {
          "indexed": false,
          "internalType": "uint256",
          "name": "rentalFee",
          "type": "uint256"
        }
      ],
      "name": "NFTRented",
      "type": "event"
    },
    {
      "anonymous": false,
      "inputs": [
        {
          "indexed": true,
          "internalType": "address",
          "name": "unlistSender",
          "type": "address"
        },
        {
          "indexed": true,
          "internalType": "address",
          "name": "nftContract",
          "type": "address"
        },
        {
          "indexed": true,
          "internalType": "uint256",
          "name": "tokenId",
          "type": "uint256"
        },
        {
          "indexed": false,
          "internalType": "uint256",
          "name": "refund",
          "type": "uint256"
        }
      ],
      "name": "NFTUnlisted",
      "type": "event"
    },
    {
      "inputs": [
        {
          "internalType": "address",
          "name": "nftAddress",
          "type": "address"
        },
        {
          "internalType": "uint256",
          "name": "tokenId",
          "type": "uint256"
        }
      ],
      "name": "buyItem",
      "outputs": [],
      "stateMutability": "payable",
      "type": "function"
    },
    {
      "inputs": [
        {
          "internalType": "address",
          "name": "nftAddress",
          "type": "address"
        },
        {
          "internalType": "uint256",
          "name": "tokenId",
          "type": "uint256"
        }
      ],
      "name": "cancelListing",
      "outputs": [],
      "stateMutability": "nonpayable",
      "type": "function"
    },
    {
      "inputs": [
        {
          "internalType": "address",
          "name": "nftAddress",
          "type": "address"
        },
        {
          "internalType": "uint256",
          "name": "tokenId",
          "type": "uint256"
        }
      ],
      "name": "getARListing",
      "outputs": [
        {
          "components": [
            {
              "internalType": "address",
              "name": "owner",
              "type": "address"
            },
            {
              "internalType": "address",
              "name": "user",
              "type": "address"
            },
            {
              "internalType": "address",
              "name": "nftContract",
              "type": "address"
            },
            {
              "internalType": "uint256",
              "name": "tokenId",
              "type": "uint256"
            },
            {
              "internalType": "uint256",
              "name": "pricePerDay",
              "type": "uint256"
            },
            {
              "internalType": "uint256",
              "name": "startDateUNIX",
              "type": "uint256"
            },
            {
              "internalType": "uint256",
              "name": "endDateUNIX",
              "type": "uint256"
            },
            {
              "internalType": "uint256",
              "name": "expires",
              "type": "uint256"
            }
          ],
          "internalType": "struct AvianMarkett.Listing_rent",
          "name": "",
          "type": "tuple"
        }
      ],
      "stateMutability": "view",
      "type": "function"
    },
    {
      "inputs": [
        {
          "internalType": "address",
          "name": "nftAddress",
          "type": "address"
        },
        {
          "internalType": "uint256",
          "name": "tokenId",
          "type": "uint256"
        }
      ],
      "name": "getASListing",
      "outputs": [
        {
          "components": [
            {
              "internalType": "address",
              "name": "owner",
              "type": "address"
            },
            {
              "internalType": "address",
              "name": "nftContract",
              "type": "address"
            },
            {
              "internalType": "uint256",
              "name": "tokenId",
              "type": "uint256"
            },
            {
              "internalType": "uint256",
              "name": "price",
              "type": "uint256"
            }
          ],
          "internalType": "struct AvianMarkett.Listing_sell",
          "name": "",
          "type": "tuple"
        }
      ],
      "stateMutability": "view",
      "type": "function"
    },
    {
      "inputs": [],
      "name": "getListingFee",
      "outputs": [
        {
          "internalType": "uint256",
          "name": "",
          "type": "uint256"
        }
      ],
      "stateMutability": "view",
      "type": "function"
    },
    {
      "inputs": [
        {
          "internalType": "address",
          "name": "seller",
          "type": "address"
        }
      ],
      "name": "getProceeds",
      "outputs": [
        {
          "internalType": "uint256",
          "name": "",
          "type": "uint256"
        }
      ],
      "stateMutability": "view",
      "type": "function"
    },
    {
      "inputs": [
        {
          "internalType": "address",
          "name": "nftAddress",
          "type": "address"
        }
      ],
      "name": "getRListedAdddressTokens",
      "outputs": [
        {
          "internalType": "uint256[]",
          "name": "",
          "type": "uint256[]"
        }
      ],
      "stateMutability": "view",
      "type": "function"
    },
    {
      "inputs": [],
      "name": "getRListedAdddresses",
      "outputs": [
        {
          "internalType": "address[]",
          "name": "",
          "type": "address[]"
        }
      ],
      "stateMutability": "view",
      "type": "function"
    },
    {
      "inputs": [],
      "name": "getRentListings",
      "outputs": [
        {
          "components": [
            {
              "internalType": "address",
              "name": "owner",
              "type": "address"
            },
            {
              "internalType": "address",
              "name": "user",
              "type": "address"
            },
            {
              "internalType": "address",
              "name": "nftContract",
              "type": "address"
            },
            {
              "internalType": "uint256",
              "name": "tokenId",
              "type": "uint256"
            },
            {
              "internalType": "uint256",
              "name": "pricePerDay",
              "type": "uint256"
            },
            {
              "internalType": "uint256",
              "name": "startDateUNIX",
              "type": "uint256"
            },
            {
              "internalType": "uint256",
              "name": "endDateUNIX",
              "type": "uint256"
            },
            {
              "internalType": "uint256",
              "name": "expires",
              "type": "uint256"
            }
          ],
          "internalType": "struct AvianMarkett.Listing_rent[]",
          "name": "",
          "type": "tuple[]"
        }
      ],
      "stateMutability": "view",
      "type": "function"
    },
    {
      "inputs": [
        {
          "internalType": "address",
          "name": "nftAddress",
          "type": "address"
        }
      ],
      "name": "getSListedAdddressTokens",
      "outputs": [
        {
          "internalType": "uint256[]",
          "name": "",
          "type": "uint256[]"
        }
      ],
      "stateMutability": "view",
      "type": "function"
    },
    {
      "inputs": [],
      "name": "getSListedAdddresses",
      "outputs": [
        {
          "internalType": "address[]",
          "name": "",
          "type": "address[]"
        }
      ],
      "stateMutability": "view",
      "type": "function"
    },
    {
      "inputs": [],
      "name": "getSellListings",
      "outputs": [
        {
          "components": [
            {
              "internalType": "address",
              "name": "owner",
              "type": "address"
            },
            {
              "internalType": "address",
              "name": "nftContract",
              "type": "address"
            },
            {
              "internalType": "uint256",
              "name": "tokenId",
              "type": "uint256"
            },
            {
              "internalType": "uint256",
              "name": "price",
              "type": "uint256"
            }
          ],
          "internalType": "struct AvianMarkett.Listing_sell[]",
          "name": "",
          "type": "tuple[]"
        }
      ],
      "stateMutability": "view",
      "type": "function"
    },
    {
      "inputs": [
        {
          "internalType": "address",
          "name": "nftContract",
          "type": "address"
        }
      ],
      "name": "isNFT",
      "outputs": [
        {
          "internalType": "bool",
          "name": "",
          "type": "bool"
        }
      ],
      "stateMutability": "view",
      "type": "function"
    },
    {
      "inputs": [
        {
          "internalType": "address",
          "name": "nftContract",
          "type": "address"
        }
      ],
      "name": "isRentableNFT",
      "outputs": [
        {
          "internalType": "bool",
          "name": "",
          "type": "bool"
        }
      ],
      "stateMutability": "view",
      "type": "function"
    },
    {
      "inputs": [
        {
          "internalType": "address",
          "name": "nftAddress",
          "type": "address"
        },
        {
          "internalType": "uint256",
          "name": "tokenId",
          "type": "uint256"
        },
        {
          "internalType": "uint256",
          "name": "price",
          "type": "uint256"
        }
      ],
      "name": "listItem",
      "outputs": [],
      "stateMutability": "nonpayable",
      "type": "function"
    },
    {
      "inputs": [
        {
          "internalType": "address",
          "name": "nftAddress",
          "type": "address"
        },
        {
          "internalType": "uint256",
          "name": "tokenId",
          "type": "uint256"
        },
        {
          "internalType": "uint256",
          "name": "pricePerDay",
          "type": "uint256"
        },
        {
          "internalType": "uint256",
          "name": "startDateUNIX",
          "type": "uint256"
        },
        {
          "internalType": "uint256",
          "name": "endDateUNIX",
          "type": "uint256"
        }
      ],
      "name": "listNFT",
      "outputs": [],
      "stateMutability": "payable",
      "type": "function"
    },
    {
      "inputs": [
        {
          "internalType": "address",
          "name": "nftContract",
          "type": "address"
        },
        {
          "internalType": "uint256",
          "name": "tokenId",
          "type": "uint256"
        },
        {
          "internalType": "uint64",
          "name": "numDays",
          "type": "uint64"
        }
      ],
      "name": "rentNFT",
      "outputs": [],
      "stateMutability": "payable",
      "type": "function"
    },
    {
      "inputs": [
        {
          "internalType": "address",
          "name": "nftAddress",
          "type": "address"
        },
        {
          "internalType": "uint256",
          "name": "tokenId",
          "type": "uint256"
        }
      ],
      "name": "unlistNFT",
      "outputs": [],
      "stateMutability": "payable",
      "type": "function"
    },
    {
      "inputs": [
        {
          "internalType": "address",
          "name": "nftAddress",
          "type": "address"
        },
        {
          "internalType": "uint256",
          "name": "tokenId",
          "type": "uint256"
        },
        {
          "internalType": "uint256",
          "name": "newPrice",
          "type": "uint256"
        }
      ],
      "name": "updateListing",
      "outputs": [],
      "stateMutability": "nonpayable",
      "type": "function"
    },
    {
      "inputs": [],
      "name": "withdrawProceeds",
      "outputs": [],
      "stateMutability": "nonpayable",
      "type": "function"
    }
  ],
  "bytecode": "0x608060405266038d7ea4c6800060025534801561001b57600080fd5b50600160008190555033600160006101000a81548173ffffffffffffffffffffffffffffffffffffffff021916908373ffffffffffffffffffffffffffffffffffffffff1602179055506151f3806100746000396000f3fe60806040526004361061011f5760003560e01c8063995e578b116100a0578063b8fe6abe11610064578063b8fe6abe1461039d578063be587251146103c8578063cc6b11b114610405578063e9a6f4f614610442578063f772adf11461047f5761011f565b8063995e578b146102d45780639a34f003146102ff5780639f37092a1461031b578063b2ddee0614610337578063b31b85c9146103605761011f565b80637e943afd116100e75780637e943afd146102315780637fc27efd1461024d57806389bfd38f146102695780639038e6931461029257806395046b7c146102a95761011f565b80631578e7c81461012457806330cfeda914610161578063341a0b8a1461019e578063555df3cd146101c9578063789df8db14610206575b600080fd5b34801561013057600080fd5b5061014b60048036038101906101469190613d79565b6104a8565b6040516101589190613e79565b60405180910390f35b34801561016d57600080fd5b5061018860048036038101906101839190613e95565b610648565b6040516101959190613ed1565b60405180910390f35b3480156101aa57600080fd5b506101b3610691565b6040516101c09190613f9b565b60405180910390f35b3480156101d557600080fd5b506101f060048036038101906101eb9190613e95565b6106a8565b6040516101fd919061406c565b60405180910390f35b34801561021257600080fd5b5061021b6106fe565b60405161022891906141e0565b60405180910390f35b61024b60048036038101906102469190614202565b6109fb565b005b61026760048036038101906102629190613d79565b6112b8565b005b34801561027557600080fd5b50610290600480360381019061028b919061427d565b6119c2565b005b34801561029e57600080fd5b506102a7611f94565b005b3480156102b557600080fd5b506102be612107565b6040516102cb9190613f9b565b60405180910390f35b3480156102e057600080fd5b506102e961211e565b6040516102f691906143d4565b60405180910390f35b61031960048036038101906103149190614436565b6123a6565b005b61033560048036038101906103309190613d79565b612767565b005b34801561034357600080fd5b5061035e60048036038101906103599190613d79565b612cf1565b005b34801561036c57600080fd5b5061038760048036038101906103829190613e95565b61310e565b60405161039491906144a4565b60405180910390f35b3480156103a957600080fd5b506103b26131c4565b6040516103bf9190613ed1565b60405180910390f35b3480156103d457600080fd5b506103ef60048036038101906103ea9190613e95565b6131ce565b6040516103fc919061406c565b60405180910390f35b34801561041157600080fd5b5061042c60048036038101906104279190613d79565b613224565b6040516104399190614514565b60405180910390f35b34801561044e57600080fd5b5061046960048036038101906104649190613e95565b61334f565b60405161047691906144a4565b60405180910390f35b34801561048b57600080fd5b506104a660048036038101906104a1919061427d565b6134b8565b005b6104b0613c05565b600460008473ffffffffffffffffffffffffffffffffffffffff1673ffffffffffffffffffffffffffffffffffffffff1681526020019081526020016000206000838152602001908152602001600020604051806101000160405290816000820160009054906101000a900473ffffffffffffffffffffffffffffffffffffffff1673ffffffffffffffffffffffffffffffffffffffff1673ffffffffffffffffffffffffffffffffffffffff1681526020016001820160009054906101000a900473ffffffffffffffffffffffffffffffffffffffff1673ffffffffffffffffffffffffffffffffffffffff1673ffffffffffffffffffffffffffffffffffffffff1681526020016002820160009054906101000a900473ffffffffffffffffffffffffffffffffffffffff1673ffffffffffffffffffffffffffffffffffffffff1673ffffffffffffffffffffffffffffffffffffffff16815260200160038201548152602001600482015481526020016005820154815260200160068201548152602001600782015481525050905092915050565b6000600560008373ffffffffffffffffffffffffffffffffffffffff1673ffffffffffffffffffffffffffffffffffffffff168152602001908152602001600020549050919050565b6060600061069f600861382d565b90508091505090565b606060006106f3600760008573ffffffffffffffffffffffffffffffffffffffff1673ffffffffffffffffffffffffffffffffffffffff16815260200190815260200160002061384e565b905080915050919050565b6060600061070c600d61386f565b67ffffffffffffffff8111156107255761072461452f565b5b60405190808252806020026020018201604052801561075e57816020015b61074b613c05565b8152602001906001900390816107435790505b50905060008061076e600a61382d565b905060005b81518110156109f15760008282815181106107915761079061455e565b5b6020026020010151905060006107e4600760008473ffffffffffffffffffffffffffffffffffffffff1673ffffffffffffffffffffffffffffffffffffffff16815260200190815260200160002061384e565b905060005b81518110156109db57600460008473ffffffffffffffffffffffffffffffffffffffff1673ffffffffffffffffffffffffffffffffffffffff16815260200190815260200160002060008383815181106108465761084561455e565b5b60200260200101518152602001908152602001600020604051806101000160405290816000820160009054906101000a900473ffffffffffffffffffffffffffffffffffffffff1673ffffffffffffffffffffffffffffffffffffffff1673ffffffffffffffffffffffffffffffffffffffff1681526020016001820160009054906101000a900473ffffffffffffffffffffffffffffffffffffffff1673ffffffffffffffffffffffffffffffffffffffff1673ffffffffffffffffffffffffffffffffffffffff1681526020016002820160009054906101000a900473ffffffffffffffffffffffffffffffffffffffff1673ffffffffffffffffffffffffffffffffffffffff1673ffffffffffffffffffffffffffffffffffffffff168152602001600382015481526020016004820154815260200160058201548152602001600682015481526020016007820154815250508787815181106109af576109ae61455e565b5b602002602001018190525085806109c5906145bc565b96505080806109d3906145bc565b9150506107e9565b50505080806109e9906145bc565b915050610773565b5082935050505090565b610a0361387d565b84846000600460008473ffffffffffffffffffffffffffffffffffffffff1673ffffffffffffffffffffffffffffffffffffffff1681526020019081526020016000206000838152602001908152602001600020604051806101000160405290816000820160009054906101000a900473ffffffffffffffffffffffffffffffffffffffff1673ffffffffffffffffffffffffffffffffffffffff1673ffffffffffffffffffffffffffffffffffffffff1681526020016001820160009054906101000a900473ffffffffffffffffffffffffffffffffffffffff1673ffffffffffffffffffffffffffffffffffffffff1673ffffffffffffffffffffffffffffffffffffffff1681526020016002820160009054906101000a900473ffffffffffffffffffffffffffffffffffffffff1673ffffffffffffffffffffffffffffffffffffffff1673ffffffffffffffffffffffffffffffffffffffff168152602001600382015481526020016004820154815260200160058201548152602001600682015481526020016007820154815250509050600081608001511115610be55782826040517f4a5568d5000000000000000000000000000000000000000000000000000000008152600401610bdc929190614613565b60405180910390fd5b610bee8861334f565b610c2d576040517f08c379a0000000000000000000000000000000000000000000000000000000008152600401610c2490614699565b60405180910390fd5b3373ffffffffffffffffffffffffffffffffffffffff168873ffffffffffffffffffffffffffffffffffffffff16636352211e896040518263ffffffff1660e01b8152600401610c7d9190613ed1565b602060405180830381865afa158015610c9a573d6000803e3d6000fd5b505050506040513d601f19601f82011682018060405250810190610cbe91906146ce565b73ffffffffffffffffffffffffffffffffffffffff1614610d14576040517f08c379a0000000000000000000000000000000000000000000000000000000008152600401610d0b90614747565b60405180910390fd5b6002543414610d58576040517f08c379a0000000000000000000000000000000000000000000000000000000008152600401610d4f906147b3565b60405180910390fd5b60008611610d9b576040517f08c379a0000000000000000000000000000000000000000000000000000000008152600401610d9290614845565b60405180910390fd5b42851015610dde576040517f08c379a0000000000000000000000000000000000000000000000000000000008152600401610dd5906148b1565b60405180910390fd5b84841015610e21576040517f08c379a0000000000000000000000000000000000000000000000000000000008152600401610e1890614943565b60405180910390fd5b60008890503073ffffffffffffffffffffffffffffffffffffffff168173ffffffffffffffffffffffffffffffffffffffff1663081812fc8a6040518263ffffffff1660e01b8152600401610e769190613ed1565b602060405180830381865afa158015610e93573d6000803e3d6000fd5b505050506040513d601f19601f82011682018060405250810190610eb791906146ce565b73ffffffffffffffffffffffffffffffffffffffff1614610f04576040517f4be3a2c500000000000000000000000000000000000000000000000000000000815260040160405180910390fd5b600160009054906101000a900473ffffffffffffffffffffffffffffffffffffffff1673ffffffffffffffffffffffffffffffffffffffff166108fc6002549081150290604051600060405180830381858888f19350505050158015610f6e573d6000803e3d6000fd5b506040518061010001604052803373ffffffffffffffffffffffffffffffffffffffff168152602001600073ffffffffffffffffffffffffffffffffffffffff1681526020018a73ffffffffffffffffffffffffffffffffffffffff1681526020018981526020018881526020018781526020018681526020016000815250600460008b73ffffffffffffffffffffffffffffffffffffffff1673ffffffffffffffffffffffffffffffffffffffff16815260200190815260200160002060008a815260200190815260200160002060008201518160000160006101000a81548173ffffffffffffffffffffffffffffffffffffffff021916908373ffffffffffffffffffffffffffffffffffffffff16021790555060208201518160010160006101000a81548173ffffffffffffffffffffffffffffffffffffffff021916908373ffffffffffffffffffffffffffffffffffffffff16021790555060408201518160020160006101000a81548173ffffffffffffffffffffffffffffffffffffffff021916908373ffffffffffffffffffffffffffffffffffffffff160217905550606082015181600301556080820151816004015560a0820151816005015560c0820151816006015560e08201518160070155905050611151600d6138cc565b611199600760008b73ffffffffffffffffffffffffffffffffffffffff1673ffffffffffffffffffffffffffffffffffffffff168152602001908152602001600020896138e2565b506111a5600a8a6138fc565b508873ffffffffffffffffffffffffffffffffffffffff16600073ffffffffffffffffffffffffffffffffffffffff168a73ffffffffffffffffffffffffffffffffffffffff16636352211e8b6040518263ffffffff1660e01b815260040161120e9190613ed1565b602060405180830381865afa15801561122b573d6000803e3d6000fd5b505050506040513d601f19601f8201168201806040525081019061124f91906146ce565b73ffffffffffffffffffffffffffffffffffffffff167f51961ff716bd7d3e30c6869dae4d4c0f9e0c6abbae1aa5887f3f6fa8d68f34df8b8b8b8b600060405161129d9594939291906149a8565b60405180910390a4505050506112b161392c565b5050505050565b6112c061387d565b818133600083905060008173ffffffffffffffffffffffffffffffffffffffff16636352211e856040518263ffffffff1660e01b81526004016113039190613ed1565b602060405180830381865afa158015611320573d6000803e3d6000fd5b505050506040513d601f19601f8201168201806040525081019061134491906146ce565b90508073ffffffffffffffffffffffffffffffffffffffff168373ffffffffffffffffffffffffffffffffffffffff16146113ab576040517f30cd747100000000000000000000000000000000000000000000000000000000815260040160405180910390fd5b86866000600460008473ffffffffffffffffffffffffffffffffffffffff1673ffffffffffffffffffffffffffffffffffffffff1681526020019081526020016000206000838152602001908152602001600020604051806101000160405290816000820160009054906101000a900473ffffffffffffffffffffffffffffffffffffffff1673ffffffffffffffffffffffffffffffffffffffff1673ffffffffffffffffffffffffffffffffffffffff1681526020016001820160009054906101000a900473ffffffffffffffffffffffffffffffffffffffff1673ffffffffffffffffffffffffffffffffffffffff1673ffffffffffffffffffffffffffffffffffffffff1681526020016002820160009054906101000a900473ffffffffffffffffffffffffffffffffffffffff1673ffffffffffffffffffffffffffffffffffffffff1673ffffffffffffffffffffffffffffffffffffffff168152602001600382015481526020016004820154815260200160058201548152602001600682015481526020016007820154815250509050600081608001511161158c5782826040517f6831488c000000000000000000000000000000000000000000000000000000008152600401611583929190614613565b60405180910390fd5b6000600460008c73ffffffffffffffffffffffffffffffffffffffff1673ffffffffffffffffffffffffffffffffffffffff16815260200190815260200160002060008b8152602001908152602001600020905060008073ffffffffffffffffffffffffffffffffffffffff168260010160009054906101000a900473ffffffffffffffffffffffffffffffffffffffff1673ffffffffffffffffffffffffffffffffffffffff161461173857816004015460016018603c8042876007015461165591906149fb565b61165f9190614a5e565b6116699190614a5e565b6116739190614a5e565b61167d9190614a8f565b6116879190614ac3565b9050803410156116cc576040517f08c379a00000000000000000000000000000000000000000000000000000000081526004016116c390614b51565b60405180910390fd5b8160010160009054906101000a900473ffffffffffffffffffffffffffffffffffffffff1673ffffffffffffffffffffffffffffffffffffffff166108fc829081150290604051600060405180830381858888f19350505050158015611736573d6000803e3d6000fd5b505b8b73ffffffffffffffffffffffffffffffffffffffff1663e030565e8c6000806040518463ffffffff1660e01b815260040161177693929190614ba2565b600060405180830381600087803b15801561179057600080fd5b505af11580156117a4573d6000803e3d6000fd5b505050506117f0600760008e73ffffffffffffffffffffffffffffffffffffffff1673ffffffffffffffffffffffffffffffffffffffff1681526020019081526020016000208c613936565b50600460008d73ffffffffffffffffffffffffffffffffffffffff1673ffffffffffffffffffffffffffffffffffffffff16815260200190815260200160002060008c8152602001908152602001600020600080820160006101000a81549073ffffffffffffffffffffffffffffffffffffffff02191690556001820160006101000a81549073ffffffffffffffffffffffffffffffffffffffff02191690556002820160006101000a81549073ffffffffffffffffffffffffffffffffffffffff0219169055600382016000905560048201600090556005820160009055600682016000905560078201600090555050600061192a600760008f73ffffffffffffffffffffffffffffffffffffffff1673ffffffffffffffffffffffffffffffffffffffff168152602001908152602001600020613950565b0361193c5761193a600a8d613965565b505b611946600d613995565b8a8c73ffffffffffffffffffffffffffffffffffffffff163373ffffffffffffffffffffffffffffffffffffffff167f6d7362d1e96e1739a576062b58d2055c5f8f9b50bf703c53b1c26cd3a82548c6846040516119a49190613ed1565b60405180910390a4505050505050505050506119be61392c565b5050565b82826000600360008473ffffffffffffffffffffffffffffffffffffffff1673ffffffffffffffffffffffffffffffffffffffff16815260200190815260200160002060008381526020019081526020016000206040518060800160405290816000820160009054906101000a900473ffffffffffffffffffffffffffffffffffffffff1673ffffffffffffffffffffffffffffffffffffffff1673ffffffffffffffffffffffffffffffffffffffff1681526020016001820160009054906101000a900473ffffffffffffffffffffffffffffffffffffffff1673ffffffffffffffffffffffffffffffffffffffff1673ffffffffffffffffffffffffffffffffffffffff168152602001600282015481526020016003820154815250509050600081606001511115611b2f5782826040517f4a5568d5000000000000000000000000000000000000000000000000000000008152600401611b26929190614613565b60405180910390fd5b611b388661310e565b611b77576040517f08c379a0000000000000000000000000000000000000000000000000000000008152600401611b6e90614c25565b60405180910390fd5b3373ffffffffffffffffffffffffffffffffffffffff168673ffffffffffffffffffffffffffffffffffffffff16636352211e876040518263ffffffff1660e01b8152600401611bc79190613ed1565b602060405180830381865afa158015611be4573d6000803e3d6000fd5b505050506040513d601f19601f82011682018060405250810190611c0891906146ce565b73ffffffffffffffffffffffffffffffffffffffff1614611c5e576040517f08c379a0000000000000000000000000000000000000000000000000000000008152600401611c5590614747565b60405180910390fd5b60008411611ca1576040517f08c379a0000000000000000000000000000000000000000000000000000000008152600401611c9890614cb7565b60405180910390fd5b60008690503073ffffffffffffffffffffffffffffffffffffffff168173ffffffffffffffffffffffffffffffffffffffff1663081812fc886040518263ffffffff1660e01b8152600401611cf69190613ed1565b602060405180830381865afa158015611d13573d6000803e3d6000fd5b505050506040513d601f19601f82011682018060405250810190611d3791906146ce565b73ffffffffffffffffffffffffffffffffffffffff1614611d84576040517f4be3a2c500000000000000000000000000000000000000000000000000000000815260040160405180910390fd5b60405180608001604052803373ffffffffffffffffffffffffffffffffffffffff1681526020018873ffffffffffffffffffffffffffffffffffffffff16815260200187815260200186815250600360008973ffffffffffffffffffffffffffffffffffffffff1673ffffffffffffffffffffffffffffffffffffffff168152602001908152602001600020600088815260200190815260200160002060008201518160000160006101000a81548173ffffffffffffffffffffffffffffffffffffffff021916908373ffffffffffffffffffffffffffffffffffffffff16021790555060208201518160010160006101000a81548173ffffffffffffffffffffffffffffffffffffffff021916908373ffffffffffffffffffffffffffffffffffffffff1602179055506040820151816002015560608201518160030155905050611ed0600c6138cc565b611f18600660008973ffffffffffffffffffffffffffffffffffffffff1673ffffffffffffffffffffffffffffffffffffffff168152602001908152602001600020876138e2565b50611f246008886138fc565b50858773ffffffffffffffffffffffffffffffffffffffff163373ffffffffffffffffffffffffffffffffffffffff167fd547e933094f12a9159076970143ebe73234e64480317844b0dcb36117116de488604051611f839190613ed1565b60405180910390a450505050505050565b6000600560003373ffffffffffffffffffffffffffffffffffffffff1673ffffffffffffffffffffffffffffffffffffffff16815260200190815260200160002054905060008111612012576040517fc4d8fa8700000000000000000000000000000000000000000000000000000000815260040160405180910390fd5b6000600560003373ffffffffffffffffffffffffffffffffffffffff1673ffffffffffffffffffffffffffffffffffffffff1681526020019081526020016000208190555060003373ffffffffffffffffffffffffffffffffffffffff168260405161207d90614d08565b60006040518083038185875af1925050503d80600081146120ba576040519150601f19603f3d011682016040523d82523d6000602084013e6120bf565b606091505b5050905080612103576040517f08c379a00000000000000000000000000000000000000000000000000000000081526004016120fa90614d69565b60405180910390fd5b5050565b60606000612115600a61382d565b90508091505090565b6060600061212c600c61386f565b67ffffffffffffffff8111156121455761214461452f565b5b60405190808252806020026020018201604052801561217e57816020015b61216b613c8c565b8152602001906001900390816121635790505b50905060008061218e600861382d565b905060005b815181101561239c5760008282815181106121b1576121b061455e565b5b602002602001015190506000612204600660008473ffffffffffffffffffffffffffffffffffffffff1673ffffffffffffffffffffffffffffffffffffffff16815260200190815260200160002061384e565b905060005b815181101561238657600360008473ffffffffffffffffffffffffffffffffffffffff1673ffffffffffffffffffffffffffffffffffffffff16815260200190815260200160002060008383815181106122665761226561455e565b5b602002602001015181526020019081526020016000206040518060800160405290816000820160009054906101000a900473ffffffffffffffffffffffffffffffffffffffff1673ffffffffffffffffffffffffffffffffffffffff1673ffffffffffffffffffffffffffffffffffffffff1681526020016001820160009054906101000a900473ffffffffffffffffffffffffffffffffffffffff1673ffffffffffffffffffffffffffffffffffffffff1673ffffffffffffffffffffffffffffffffffffffff1681526020016002820154815260200160038201548152505087878151811061235a5761235961455e565b5b60200260200101819052508580612370906145bc565b965050808061237e906145bc565b915050612209565b5050508080612394906145bc565b915050612193565b5082935050505090565b6123ae61387d565b6000600460008573ffffffffffffffffffffffffffffffffffffffff1673ffffffffffffffffffffffffffffffffffffffff16815260200190815260200160002060008481526020019081526020016000209050600073ffffffffffffffffffffffffffffffffffffffff168160010160009054906101000a900473ffffffffffffffffffffffffffffffffffffffff1673ffffffffffffffffffffffffffffffffffffffff1614806124645750806007015442115b6124a3576040517f08c379a000000000000000000000000000000000000000000000000000000000815260040161249a90614dd5565b60405180910390fd5b600062015180836124b49190614df5565b426124bf9190614e32565b905060008367ffffffffffffffff1683600401546124dd9190614ac3565b905080341015612522576040517f08c379a000000000000000000000000000000000000000000000000000000000815260040161251990614ee0565b60405180910390fd5b8260000160009054906101000a900473ffffffffffffffffffffffffffffffffffffffff1673ffffffffffffffffffffffffffffffffffffffff166108fc829081150290604051600060405180830381858888f1935050505015801561258c573d6000803e3d6000fd5b508573ffffffffffffffffffffffffffffffffffffffff1663e030565e8633856040518463ffffffff1660e01b81526004016125ca93929190614f0f565b600060405180830381600087803b1580156125e457600080fd5b505af11580156125f8573d6000803e3d6000fd5b50505050338360010160006101000a81548173ffffffffffffffffffffffffffffffffffffffff021916908373ffffffffffffffffffffffffffffffffffffffff1602179055508167ffffffffffffffff1683600701819055508573ffffffffffffffffffffffffffffffffffffffff163373ffffffffffffffffffffffffffffffffffffffff168773ffffffffffffffffffffffffffffffffffffffff16636352211e886040518263ffffffff1660e01b81526004016126b99190613ed1565b602060405180830381865afa1580156126d6573d6000803e3d6000fd5b505050506040513d601f19601f820116820180604052508101906126fa91906146ce565b73ffffffffffffffffffffffffffffffffffffffff167f9e281a126f51088cc2a404608130a64cb50df5e046d30d0540344ef4f1b6ec2a8887600501548860060154888860405161274f959493929190614f46565b60405180910390a450505061276261392c565b505050565b81816000600360008473ffffffffffffffffffffffffffffffffffffffff1673ffffffffffffffffffffffffffffffffffffffff16815260200190815260200160002060008381526020019081526020016000206040518060800160405290816000820160009054906101000a900473ffffffffffffffffffffffffffffffffffffffff1673ffffffffffffffffffffffffffffffffffffffff1673ffffffffffffffffffffffffffffffffffffffff1681526020016001820160009054906101000a900473ffffffffffffffffffffffffffffffffffffffff1673ffffffffffffffffffffffffffffffffffffffff1673ffffffffffffffffffffffffffffffffffffffff16815260200160028201548152602001600382015481525050905060008160600151116128d35782826040517f6831488c0000000000000000000000000000000000000000000000000000000081526004016128ca929190614613565b60405180910390fd5b6128db61387d565b6000600360008773ffffffffffffffffffffffffffffffffffffffff1673ffffffffffffffffffffffffffffffffffffffff16815260200190815260200160002060008681526020019081526020016000206040518060800160405290816000820160009054906101000a900473ffffffffffffffffffffffffffffffffffffffff1673ffffffffffffffffffffffffffffffffffffffff1673ffffffffffffffffffffffffffffffffffffffff1681526020016001820160009054906101000a900473ffffffffffffffffffffffffffffffffffffffff1673ffffffffffffffffffffffffffffffffffffffff1673ffffffffffffffffffffffffffffffffffffffff1681526020016002820154815260200160038201548152505090508060600151341015612a4b57858582606001516040517f7c934565000000000000000000000000000000000000000000000000000000008152600401612a4293929190614f99565b60405180910390fd5b3460056000836000015173ffffffffffffffffffffffffffffffffffffffff1673ffffffffffffffffffffffffffffffffffffffff1681526020019081526020016000206000828254612a9e9190614a8f565b92505081905550600360008773ffffffffffffffffffffffffffffffffffffffff1673ffffffffffffffffffffffffffffffffffffffff1681526020019081526020016000206000868152602001908152602001600020600080820160006101000a81549073ffffffffffffffffffffffffffffffffffffffff02191690556001820160006101000a81549073ffffffffffffffffffffffffffffffffffffffff0219169055600282016000905560038201600090555050612b9e600660008873ffffffffffffffffffffffffffffffffffffffff1673ffffffffffffffffffffffffffffffffffffffff16815260200190815260200160002086613936565b506000612be8600660008973ffffffffffffffffffffffffffffffffffffffff1673ffffffffffffffffffffffffffffffffffffffff168152602001908152602001600020613950565b03612bfa57612bf8600887613965565b505b612c04600c613995565b8573ffffffffffffffffffffffffffffffffffffffff166342842e0e826000015133886040518463ffffffff1660e01b8152600401612c4593929190614fd0565b600060405180830381600087803b158015612c5f57600080fd5b505af1158015612c73573d6000803e3d6000fd5b50505050848673ffffffffffffffffffffffffffffffffffffffff163373ffffffffffffffffffffffffffffffffffffffff167f263223b1dd81e51054a4e6f791d45a4a1ddb4aadcd93a2dfd892615c3fdac1878460600151604051612cd99190613ed1565b60405180910390a450612cea61392c565b5050505050565b818133600083905060008173ffffffffffffffffffffffffffffffffffffffff16636352211e856040518263ffffffff1660e01b8152600401612d349190613ed1565b602060405180830381865afa158015612d51573d6000803e3d6000fd5b505050506040513d601f19601f82011682018060405250810190612d7591906146ce565b90508073ffffffffffffffffffffffffffffffffffffffff168373ffffffffffffffffffffffffffffffffffffffff1614612ddc576040517f30cd747100000000000000000000000000000000000000000000000000000000815260040160405180910390fd5b86866000600360008473ffffffffffffffffffffffffffffffffffffffff1673ffffffffffffffffffffffffffffffffffffffff16815260200190815260200160002060008381526020019081526020016000206040518060800160405290816000820160009054906101000a900473ffffffffffffffffffffffffffffffffffffffff1673ffffffffffffffffffffffffffffffffffffffff1673ffffffffffffffffffffffffffffffffffffffff1681526020016001820160009054906101000a900473ffffffffffffffffffffffffffffffffffffffff1673ffffffffffffffffffffffffffffffffffffffff1673ffffffffffffffffffffffffffffffffffffffff1681526020016002820154815260200160038201548152505090506000816060015111612f485782826040517f6831488c000000000000000000000000000000000000000000000000000000008152600401612f3f929190614613565b60405180910390fd5b600360008b73ffffffffffffffffffffffffffffffffffffffff1673ffffffffffffffffffffffffffffffffffffffff16815260200190815260200160002060008a8152602001908152602001600020600080820160006101000a81549073ffffffffffffffffffffffffffffffffffffffff02191690556001820160006101000a81549073ffffffffffffffffffffffffffffffffffffffff0219169055600282016000905560038201600090555050613041600660008c73ffffffffffffffffffffffffffffffffffffffff1673ffffffffffffffffffffffffffffffffffffffff1681526020019081526020016000208a613936565b50600061308b600660008d73ffffffffffffffffffffffffffffffffffffffff1673ffffffffffffffffffffffffffffffffffffffff168152602001908152602001600020613950565b0361309d5761309b60088b613965565b505b6130a7600c613995565b888a73ffffffffffffffffffffffffffffffffffffffff163373ffffffffffffffffffffffffffffffffffffffff167f9ba1a3cb55ce8d63d072a886f94d2a744f50cddf82128e897d0661f5ec62315860405160405180910390a450505050505050505050565b600080600090508273ffffffffffffffffffffffffffffffffffffffff166301ffc9a77f80ac58cd000000000000000000000000000000000000000000000000000000006040518263ffffffff1660e01b815260040161316e9190615042565b602060405180830381865afa9250505080156131a857506040513d601f19601f820116820180604052508101906131a59190615089565b60015b6131b65760009150506131bf565b80915050809150505b919050565b6000600254905090565b60606000613219600660008573ffffffffffffffffffffffffffffffffffffffff1673ffffffffffffffffffffffffffffffffffffffff16815260200190815260200160002061384e565b905080915050919050565b61322c613c8c565b600360008473ffffffffffffffffffffffffffffffffffffffff1673ffffffffffffffffffffffffffffffffffffffff16815260200190815260200160002060008381526020019081526020016000206040518060800160405290816000820160009054906101000a900473ffffffffffffffffffffffffffffffffffffffff1673ffffffffffffffffffffffffffffffffffffffff1673ffffffffffffffffffffffffffffffffffffffff1681526020016001820160009054906101000a900473ffffffffffffffffffffffffffffffffffffffff1673ffffffffffffffffffffffffffffffffffffffff1673ffffffffffffffffffffffffffffffffffffffff16815260200160028201548152602001600382015481525050905092915050565b6000806000905060008373ffffffffffffffffffffffffffffffffffffffff166301ffc9a77fad092b5c000000000000000000000000000000000000000000000000000000006040518263ffffffff1660e01b81526004016133b19190615042565b602060405180830381865afa9250505080156133eb57506040513d601f19601f820116820180604052508101906133e89190615089565b60015b6133fa576000925050506134b3565b809250508373ffffffffffffffffffffffffffffffffffffffff166301ffc9a77f80ac58cd000000000000000000000000000000000000000000000000000000006040518263ffffffff1660e01b81526004016134579190615042565b602060405180830381865afa92505050801561349157506040513d601f19601f8201168201806040525081019061348e9190615089565b60015b6134a0576000925050506134b3565b809150508180156134ae5750805b925050505b919050565b82826000600360008473ffffffffffffffffffffffffffffffffffffffff1673ffffffffffffffffffffffffffffffffffffffff16815260200190815260200160002060008381526020019081526020016000206040518060800160405290816000820160009054906101000a900473ffffffffffffffffffffffffffffffffffffffff1673ffffffffffffffffffffffffffffffffffffffff1673ffffffffffffffffffffffffffffffffffffffff1681526020016001820160009054906101000a900473ffffffffffffffffffffffffffffffffffffffff1673ffffffffffffffffffffffffffffffffffffffff1673ffffffffffffffffffffffffffffffffffffffff16815260200160028201548152602001600382015481525050905060008160600151116136245782826040517f6831488c00000000000000000000000000000000000000000000000000000000815260040161361b929190614613565b60405180910390fd5b61362c61387d565b858533600083905060008173ffffffffffffffffffffffffffffffffffffffff16636352211e856040518263ffffffff1660e01b815260040161366f9190613ed1565b602060405180830381865afa15801561368c573d6000803e3d6000fd5b505050506040513d601f19601f820116820180604052508101906136b091906146ce565b90508073ffffffffffffffffffffffffffffffffffffffff168373ffffffffffffffffffffffffffffffffffffffff1614613717576040517f30cd747100000000000000000000000000000000000000000000000000000000815260040160405180910390fd5b6000891161375a576040517f08c379a000000000000000000000000000000000000000000000000000000000815260040161375190614cb7565b60405180910390fd5b88600360008d73ffffffffffffffffffffffffffffffffffffffff1673ffffffffffffffffffffffffffffffffffffffff16815260200190815260200160002060008c815260200190815260200160002060030181905550898b73ffffffffffffffffffffffffffffffffffffffff163373ffffffffffffffffffffffffffffffffffffffff167fd547e933094f12a9159076970143ebe73234e64480317844b0dcb36117116de48c6040516138109190613ed1565b60405180910390a4505050505061382561392c565b505050505050565b6060600061383d836000016139f1565b905060608190508092505050919050565b6060600061385e836000016139f1565b905060608190508092505050919050565b600081600001549050919050565b6002600054036138c2576040517f08c379a00000000000000000000000000000000000000000000000000000000081526004016138b990615102565b60405180910390fd5b6002600081905550565b6001816000016000828254019250508190555050565b60006138f4836000018360001b613a4d565b905092915050565b6000613924836000018373ffffffffffffffffffffffffffffffffffffffff1660001b613a4d565b905092915050565b6001600081905550565b6000613948836000018360001b613abd565b905092915050565b600061395e82600001613bd1565b9050919050565b600061398d836000018373ffffffffffffffffffffffffffffffffffffffff1660001b613abd565b905092915050565b600081600001549050600081116139e1576040517f08c379a00000000000000000000000000000000000000000000000000000000081526004016139d89061516e565b60405180910390fd5b6001810382600001819055505050565b606081600001805480602002602001604051908101604052809291908181526020018280548015613a4157602002820191906000526020600020905b815481526020019060010190808311613a2d575b50505050509050919050565b6000613a598383613be2565b613ab2578260000182908060018154018082558091505060019003906000526020600020016000909190919091505582600001805490508360010160008481526020019081526020016000208190555060019050613ab7565b600090505b92915050565b60008083600101600084815260200190815260200160002054905060008114613bc5576000600182613aef91906149fb565b9050600060018660000180549050613b0791906149fb565b9050818114613b76576000866000018281548110613b2857613b2761455e565b5b9060005260206000200154905080876000018481548110613b4c57613b4b61455e565b5b90600052602060002001819055508387600101600083815260200190815260200160002081905550505b85600001805480613b8a57613b8961518e565b5b600190038181906000526020600020016000905590558560010160008681526020019081526020016000206000905560019350505050613bcb565b60009150505b92915050565b600081600001805490509050919050565b600080836001016000848152602001908152602001600020541415905092915050565b604051806101000160405280600073ffffffffffffffffffffffffffffffffffffffff168152602001600073ffffffffffffffffffffffffffffffffffffffff168152602001600073ffffffffffffffffffffffffffffffffffffffff16815260200160008152602001600081526020016000815260200160008152602001600081525090565b6040518060800160405280600073ffffffffffffffffffffffffffffffffffffffff168152602001600073ffffffffffffffffffffffffffffffffffffffff16815260200160008152602001600081525090565b600080fd5b600073ffffffffffffffffffffffffffffffffffffffff82169050919050565b6000613d1082613ce5565b9050919050565b613d2081613d05565b8114613d2b57600080fd5b50565b600081359050613d3d81613d17565b92915050565b6000819050919050565b613d5681613d43565b8114613d6157600080fd5b50565b600081359050613d7381613d4d565b92915050565b60008060408385031215613d9057613d8f613ce0565b5b6000613d9e85828601613d2e565b9250506020613daf85828601613d64565b9150509250929050565b613dc281613d05565b82525050565b613dd181613d43565b82525050565b61010082016000820151613dee6000850182613db9565b506020820151613e016020850182613db9565b506040820151613e146040850182613db9565b506060820151613e276060850182613dc8565b506080820151613e3a6080850182613dc8565b5060a0820151613e4d60a0850182613dc8565b5060c0820151613e6060c0850182613dc8565b5060e0820151613e7360e0850182613dc8565b50505050565b600061010082019050613e8f6000830184613dd7565b92915050565b600060208284031215613eab57613eaa613ce0565b5b6000613eb984828501613d2e565b91505092915050565b613ecb81613d43565b82525050565b6000602082019050613ee66000830184613ec2565b92915050565b600081519050919050565b600082825260208201905092915050565b6000819050602082019050919050565b6000613f248383613db9565b60208301905092915050565b6000602082019050919050565b6000613f4882613eec565b613f528185613ef7565b9350613f5d83613f08565b8060005b83811015613f8e578151613f758882613f18565b9750613f8083613f30565b925050600181019050613f61565b5085935050505092915050565b60006020820190508181036000830152613fb58184613f3d565b905092915050565b600081519050919050565b600082825260208201905092915050565b6000819050602082019050919050565b6000613ff58383613dc8565b60208301905092915050565b6000602082019050919050565b600061401982613fbd565b6140238185613fc8565b935061402e83613fd9565b8060005b8381101561405f5781516140468882613fe9565b975061405183614001565b925050600181019050614032565b5085935050505092915050565b60006020820190508181036000830152614086818461400e565b905092915050565b600081519050919050565b600082825260208201905092915050565b6000819050602082019050919050565b610100820160008201516140d16000850182613db9565b5060208201516140e46020850182613db9565b5060408201516140f76040850182613db9565b50606082015161410a6060850182613dc8565b50608082015161411d6080850182613dc8565b5060a082015161413060a0850182613dc8565b5060c082015161414360c0850182613dc8565b5060e082015161415660e0850182613dc8565b50505050565b600061416883836140ba565b6101008301905092915050565b6000602082019050919050565b600061418d8261408e565b6141978185614099565b93506141a2836140aa565b8060005b838110156141d35781516141ba888261415c565b97506141c583614175565b9250506001810190506141a6565b5085935050505092915050565b600060208201905081810360008301526141fa8184614182565b905092915050565b600080600080600060a0868803121561421e5761421d613ce0565b5b600061422c88828901613d2e565b955050602061423d88828901613d64565b945050604061424e88828901613d64565b935050606061425f88828901613d64565b925050608061427088828901613d64565b9150509295509295909350565b60008060006060848603121561429657614295613ce0565b5b60006142a486828701613d2e565b93505060206142b586828701613d64565b92505060406142c686828701613d64565b9150509250925092565b600081519050919050565b600082825260208201905092915050565b6000819050602082019050919050565b6080820160008201516143126000850182613db9565b5060208201516143256020850182613db9565b5060408201516143386040850182613dc8565b50606082015161434b6060850182613dc8565b50505050565b600061435d83836142fc565b60808301905092915050565b6000602082019050919050565b6000614381826142d0565b61438b81856142db565b9350614396836142ec565b8060005b838110156143c75781516143ae8882614351565b97506143b983614369565b92505060018101905061439a565b5085935050505092915050565b600060208201905081810360008301526143ee8184614376565b905092915050565b600067ffffffffffffffff82169050919050565b614413816143f6565b811461441e57600080fd5b50565b6000813590506144308161440a565b92915050565b60008060006060848603121561444f5761444e613ce0565b5b600061445d86828701613d2e565b935050602061446e86828701613d64565b925050604061447f86828701614421565b9150509250925092565b60008115159050919050565b61449e81614489565b82525050565b60006020820190506144b96000830184614495565b92915050565b6080820160008201516144d56000850182613db9565b5060208201516144e86020850182613db9565b5060408201516144fb6040850182613dc8565b50606082015161450e6060850182613dc8565b50505050565b600060808201905061452960008301846144bf565b92915050565b7f4e487b7100000000000000000000000000000000000000000000000000000000600052604160045260246000fd5b7f4e487b7100000000000000000000000000000000000000000000000000000000600052603260045260246000fd5b7f4e487b7100000000000000000000000000000000000000000000000000000000600052601160045260246000fd5b60006145c782613d43565b91507fffffffffffffffffffffffffffffffffffffffffffffffffffffffffffffffff82036145f9576145f861458d565b5b600182019050919050565b61460d81613d05565b82525050565b60006040820190506146286000830185614604565b6146356020830184613ec2565b9392505050565b600082825260208201905092915050565b7f436f6e7472616374206973206e6f7420616e2045524334393037000000000000600082015250565b6000614683601a8361463c565b915061468e8261464d565b602082019050919050565b600060208201905081810360008301526146b281614676565b9050919050565b6000815190506146c881613d17565b92915050565b6000602082840312156146e4576146e3613ce0565b5b60006146f2848285016146b9565b91505092915050565b7f4e6f74206f776e6572206f66206e667400000000000000000000000000000000600082015250565b600061473160108361463c565b915061473c826146fb565b602082019050919050565b6000602082019050818103600083015261476081614724565b9050919050565b7f4e6f7420656e6f75676820657468657220666f72206c697374696e6720666565600082015250565b600061479d60208361463c565b91506147a882614767565b602082019050919050565b600060208201905081810360008301526147cc81614790565b9050919050565b7f52656e74616c2070726963652073686f756c642062652067726561746572207460008201527f68616e2030000000000000000000000000000000000000000000000000000000602082015250565b600061482f60258361463c565b915061483a826147d3565b604082019050919050565b6000602082019050818103600083015261485e81614822565b9050919050565b7f537461727420646174652063616e6e6f7420626520696e207468652070617374600082015250565b600061489b60208361463c565b91506148a682614865565b602082019050919050565b600060208201905081810360008301526148ca8161488e565b9050919050565b7f456e6420646174652063616e6e6f74206265206265666f72652074686520737460008201527f6172742064617465000000000000000000000000000000000000000000000000602082015250565b600061492d60288361463c565b9150614938826148d1565b604082019050919050565b6000602082019050818103600083015261495c81614920565b9050919050565b6000819050919050565b6000819050919050565b600061499261498d61498884614963565b61496d565b613d43565b9050919050565b6149a281614977565b82525050565b600060a0820190506149bd6000830188613ec2565b6149ca6020830187613ec2565b6149d76040830186613ec2565b6149e46060830185613ec2565b6149f16080830184614999565b9695505050505050565b6000614a0682613d43565b9150614a1183613d43565b9250828203905081811115614a2957614a2861458d565b5b92915050565b7f4e487b7100000000000000000000000000000000000000000000000000000000600052601260045260246000fd5b6000614a6982613d43565b9150614a7483613d43565b925082614a8457614a83614a2f565b5b828204905092915050565b6000614a9a82613d43565b9150614aa583613d43565b9250828201905080821115614abd57614abc61458d565b5b92915050565b6000614ace82613d43565b9150614ad983613d43565b9250828202614ae781613d43565b91508282048414831517614afe57614afd61458d565b5b5092915050565b7f4e6f7420656e6f75676820657468657220746f20636f76657220726566756e64600082015250565b6000614b3b60208361463c565b9150614b4682614b05565b602082019050919050565b60006020820190508181036000830152614b6a81614b2e565b9050919050565b6000614b8c614b87614b8284614963565b61496d565b6143f6565b9050919050565b614b9c81614b71565b82525050565b6000606082019050614bb76000830186613ec2565b614bc46020830185614604565b614bd16040830184614b93565b949350505050565b7f436f6e7472616374206973206e6f7420616e2045524337323100000000000000600082015250565b6000614c0f60198361463c565b9150614c1a82614bd9565b602082019050919050565b60006020820190508181036000830152614c3e81614c02565b9050919050565b7f6c697374696e672070726963652073686f756c6420626520677265617465722060008201527f7468616e20300000000000000000000000000000000000000000000000000000602082015250565b6000614ca160268361463c565b9150614cac82614c45565b604082019050919050565b60006020820190508181036000830152614cd081614c94565b9050919050565b600081905092915050565b50565b6000614cf2600083614cd7565b9150614cfd82614ce2565b600082019050919050565b6000614d1382614ce5565b9150819050919050565b7f5472616e73666572206661696c65640000000000000000000000000000000000600082015250565b6000614d53600f8361463c565b9150614d5e82614d1d565b602082019050919050565b60006020820190508181036000830152614d8281614d46565b9050919050565b7f4e465420616c72656164792072656e7465640000000000000000000000000000600082015250565b6000614dbf60128361463c565b9150614dca82614d89565b602082019050919050565b60006020820190508181036000830152614dee81614db2565b9050919050565b6000614e00826143f6565b9150614e0b836143f6565b9250828202614e19816143f6565b9150808214614e2b57614e2a61458d565b5b5092915050565b6000614e3d826143f6565b9150614e48836143f6565b9250828201905067ffffffffffffffff811115614e6857614e6761458d565b5b92915050565b7f4e6f7420656e6f75676820657468657220746f20636f7665722072656e74616c60008201527f20706572696f6400000000000000000000000000000000000000000000000000602082015250565b6000614eca60278361463c565b9150614ed582614e6e565b604082019050919050565b60006020820190508181036000830152614ef981614ebd565b9050919050565b614f09816143f6565b82525050565b6000606082019050614f246000830186613ec2565b614f316020830185614604565b614f3e6040830184614f00565b949350505050565b600060a082019050614f5b6000830188613ec2565b614f686020830187613ec2565b614f756040830186613ec2565b614f826060830185614f00565b614f8f6080830184613ec2565b9695505050505050565b6000606082019050614fae6000830186614604565b614fbb6020830185613ec2565b614fc86040830184613ec2565b949350505050565b6000606082019050614fe56000830186614604565b614ff26020830185614604565b614fff6040830184613ec2565b949350505050565b60007fffffffff0000000000000000000000000000000000000000000000000000000082169050919050565b61503c81615007565b82525050565b60006020820190506150576000830184615033565b92915050565b61506681614489565b811461507157600080fd5b50565b6000815190506150838161505d565b92915050565b60006020828403121561509f5761509e613ce0565b5b60006150ad84828501615074565b91505092915050565b7f5265656e7472616e637947756172643a207265656e7472616e742063616c6c00600082015250565b60006150ec601f8361463c565b91506150f7826150b6565b602082019050919050565b6000602082019050818103600083015261511b816150df565b9050919050565b7f436f756e7465723a2064656372656d656e74206f766572666c6f770000000000600082015250565b6000615158601b8361463c565b915061516382615122565b602082019050919050565b600060208201905081810360008301526151878161514b565b9050919050565b7f4e487b7100000000000000000000000000000000000000000000000000000000600052603160045260246000fdfea2646970667358221220db36f3c7988048ac398698498a856bd84661ea6360fe7b9ef9d384f917770a0e64736f6c63430008110033",
  "linkReferences": {},
  "deployedLinkReferences": {}
}