{
  "_format": "hh-sol-artifact-1",
  "contractName": "AvianInstallment",
  "sourceName": "contracts/AvianInstallment.sol",
  "abi": [
    {
      "inputs": [],
      "stateMutability": "nonpayable",
      "type": "constructor"
    },
    {
      "inputs": [
        {
          "internalType": "address",
          "name": "nftAddress",
          "type": "address"
        },
        {
          "internalType": "uint256",
          "name": "tokenId",
          "type": "uint256"
        }
      ],
      "name": "AlreadyListed",
      "type": "error"
    },
    {
      "inputs": [],
      "name": "NotApprovedForMarketplace",
      "type": "error"
    },
    {
      "inputs": [
        {
          "internalType": "address",
          "name": "nftAddress",
          "type": "address"
        },
        {
          "internalType": "uint256",
          "name": "tokenId",
          "type": "uint256"
        }
      ],
      "name": "NotListed",
      "type": "error"
    },
    {
      "inputs": [],
      "name": "NotOwner",
      "type": "error"
    },
    {
      "anonymous": false,
      "inputs": [
        {
          "indexed": true,
          "internalType": "address",
          "name": "owner",
          "type": "address"
        },
        {
          "indexed": true,
          "internalType": "address",
          "name": "user",
          "type": "address"
        },
        {
          "indexed": true,
          "internalType": "address",
          "name": "nftContract",
          "type": "address"
        },
        {
          "indexed": false,
          "internalType": "uint256",
          "name": "tokenId",
          "type": "uint256"
        },
        {
          "indexed": false,
          "internalType": "uint256",
          "name": "pricePerDay",
          "type": "uint256"
        }
      ],
      "name": "INSNFTListed",
      "type": "event"
    },
    {
      "anonymous": false,
      "inputs": [
        {
          "indexed": true,
          "internalType": "address",
          "name": "owner",
          "type": "address"
        },
        {
          "indexed": true,
          "internalType": "address",
          "name": "user",
          "type": "address"
        },
        {
          "indexed": true,
          "internalType": "address",
          "name": "nftContract",
          "type": "address"
        },
        {
          "indexed": false,
          "internalType": "uint256",
          "name": "tokenId",
          "type": "uint256"
        },
        {
          "indexed": false,
          "internalType": "uint64",
          "name": "expires",
          "type": "uint64"
        },
        {
          "indexed": false,
          "internalType": "uint64",
          "name": "ins_index",
          "type": "uint64"
        },
        {
          "indexed": false,
          "internalType": "uint256",
          "name": "amountIns",
          "type": "uint256"
        },
        {
          "indexed": false,
          "internalType": "uint256",
          "name": "paidIns",
          "type": "uint256"
        }
      ],
      "name": "NFTINSPaid",
      "type": "event"
    },
    {
      "anonymous": false,
      "inputs": [
        {
          "indexed": true,
          "internalType": "address",
          "name": "unlistSender",
          "type": "address"
        },
        {
          "indexed": true,
          "internalType": "address",
          "name": "nftContract",
          "type": "address"
        },
        {
          "indexed": true,
          "internalType": "uint256",
          "name": "tokenId",
          "type": "uint256"
        }
      ],
      "name": "NFTUnlisted",
      "type": "event"
    },
    {
      "inputs": [
        {
          "internalType": "address",
          "name": "nftAddress",
          "type": "address"
        },
        {
          "internalType": "uint256",
          "name": "tokenId",
          "type": "uint256"
        }
      ],
      "name": "getAInsListing",
      "outputs": [
        {
          "components": [
            {
              "internalType": "address",
              "name": "owner",
              "type": "address"
            },
            {
              "internalType": "address",
              "name": "user",
              "type": "address"
            },
            {
              "internalType": "address",
              "name": "nftContract",
              "type": "address"
            },
            {
              "internalType": "uint256",
              "name": "tokenId",
              "type": "uint256"
            },
            {
              "internalType": "uint256",
              "name": "pricePerDay",
              "type": "uint256"
            },
            {
              "internalType": "uint64",
              "name": "installmentCount",
              "type": "uint64"
            },
            {
              "internalType": "uint64",
              "name": "expires",
              "type": "uint64"
            },
            {
              "internalType": "uint64",
              "name": "installmentIndex",
              "type": "uint64"
            },
            {
              "internalType": "uint256",
              "name": "paidIns",
              "type": "uint256"
            }
          ],
          "internalType": "struct AvianInstallment.Listing_installment",
          "name": "",
          "type": "tuple"
        }
      ],
      "stateMutability": "view",
      "type": "function"
    },
    {
      "inputs": [
        {
          "internalType": "address",
          "name": "nftAddress",
          "type": "address"
        }
      ],
      "name": "getInsListedAdddressTokens",
      "outputs": [
        {
          "internalType": "uint256[]",
          "name": "",
          "type": "uint256[]"
        }
      ],
      "stateMutability": "view",
      "type": "function"
    },
    {
      "inputs": [],
      "name": "getInsListedAdddresses",
      "outputs": [
        {
          "internalType": "address[]",
          "name": "",
          "type": "address[]"
        }
      ],
      "stateMutability": "view",
      "type": "function"
    },
    {
      "inputs": [],
      "name": "getListingFee",
      "outputs": [
        {
          "internalType": "uint256",
          "name": "",
          "type": "uint256"
        }
      ],
      "stateMutability": "view",
      "type": "function"
    },
    {
      "inputs": [
        {
          "internalType": "address",
          "name": "nftAddress",
          "type": "address"
        },
        {
          "internalType": "uint256",
          "name": "tokenId",
          "type": "uint256"
        },
        {
          "internalType": "uint64",
          "name": "installmentCount",
          "type": "uint64"
        }
      ],
      "name": "getNftInstallment",
      "outputs": [
        {
          "internalType": "uint256",
          "name": "",
          "type": "uint256"
        }
      ],
      "stateMutability": "view",
      "type": "function"
    },
    {
      "inputs": [
        {
          "internalType": "address",
          "name": "nftContract",
          "type": "address"
        }
      ],
      "name": "isNFT",
      "outputs": [
        {
          "internalType": "bool",
          "name": "",
          "type": "bool"
        }
      ],
      "stateMutability": "view",
      "type": "function"
    },
    {
      "inputs": [
        {
          "internalType": "address",
          "name": "nftContract",
          "type": "address"
        }
      ],
      "name": "isRentableNFT",
      "outputs": [
        {
          "internalType": "bool",
          "name": "",
          "type": "bool"
        }
      ],
      "stateMutability": "view",
      "type": "function"
    },
    {
      "inputs": [
        {
          "internalType": "address",
          "name": "nftAddress",
          "type": "address"
        },
        {
          "internalType": "uint256",
          "name": "tokenId",
          "type": "uint256"
        },
        {
          "internalType": "uint256",
          "name": "pricePerDay",
          "type": "uint256"
        }
      ],
      "name": "listInsBasedNFT",
      "outputs": [],
      "stateMutability": "payable",
      "type": "function"
    },
    {
      "inputs": [
        {
          "internalType": "address",
          "name": "nftContract",
          "type": "address"
        },
        {
          "internalType": "uint256",
          "name": "tokenId",
          "type": "uint256"
        }
      ],
      "name": "payNFTIns",
      "outputs": [],
      "stateMutability": "payable",
      "type": "function"
    },
    {
      "inputs": [
        {
          "internalType": "address",
          "name": "nftContract",
          "type": "address"
        },
        {
          "internalType": "uint256",
          "name": "tokenId",
          "type": "uint256"
        },
        {
          "internalType": "uint64",
          "name": "numDays",
          "type": "uint64"
        }
      ],
      "name": "rentINSNFT",
      "outputs": [],
      "stateMutability": "payable",
      "type": "function"
    },
    {
      "inputs": [
        {
          "internalType": "address",
          "name": "nftAddress",
          "type": "address"
        },
        {
          "internalType": "uint256",
          "name": "tokenId",
          "type": "uint256"
        }
      ],
      "name": "unlistINSNFT",
      "outputs": [],
      "stateMutability": "nonpayable",
      "type": "function"
    }
  ],
  "bytecode": "0x608060405266038d7ea4c68000600255600a600360006101000a81548167ffffffffffffffff021916908367ffffffffffffffff16021790555034801561004557600080fd5b50600160008190555033600160006101000a81548173ffffffffffffffffffffffffffffffffffffffff021916908373ffffffffffffffffffffffffffffffffffffffff1602179055506139548061009e6000396000f3fe60806040526004361061009c5760003560e01c8063b31b85c911610064578063b31b85c91461018b578063b8fe6abe146101c8578063c80e712f146101f3578063cebd51451461020f578063d4a55a741461022b578063e9a6f4f6146102685761009c565b80632f4a073a146100a157806337feab07146100de5780634b30261c146101095780636bf510bf1461012557806393f332491461014e575b600080fd5b3480156100ad57600080fd5b506100c860048036038101906100c39190612840565b6102a5565b6040516100d59190612935565b60405180910390f35b3480156100ea57600080fd5b506100f36102fb565b6040516101009190612a15565b60405180910390f35b610123600480360381019061011e9190612a63565b610312565b005b34801561013157600080fd5b5061014c60048036038101906101479190612a63565b61088c565b005b34801561015a57600080fd5b5061017560048036038101906101709190612ae3565b610e20565b6040516101829190612b45565b60405180910390f35b34801561019757600080fd5b506101b260048036038101906101ad9190612840565b610f93565b6040516101bf9190612b7b565b60405180910390f35b3480156101d457600080fd5b506101dd611049565b6040516101ea9190612b45565b60405180910390f35b61020d60048036038101906102089190612b96565b611053565b005b61022960048036038101906102249190612ae3565b6119a4565b005b34801561023757600080fd5b50610252600480360381019061024d9190612a63565b611ea5565b60405161025f9190612caf565b60405180910390f35b34801561027457600080fd5b5061028f600480360381019061028a9190612840565b6120c7565b60405161029c9190612b7b565b60405180910390f35b606060006102f0600560008573ffffffffffffffffffffffffffffffffffffffff1673ffffffffffffffffffffffffffffffffffffffff168152602001908152602001600020612230565b905080915050919050565b606060006103096006612251565b90508091505090565b61031a612272565b6000600460008473ffffffffffffffffffffffffffffffffffffffff1673ffffffffffffffffffffffffffffffffffffffff168152602001908152602001600020600083815260200190815260200160002090503373ffffffffffffffffffffffffffffffffffffffff168160010160009054906101000a900473ffffffffffffffffffffffffffffffffffffffff1673ffffffffffffffffffffffffffffffffffffffff1614610400576040517f08c379a00000000000000000000000000000000000000000000000000000000081526004016103f790612d28565b60405180910390fd5b8060050160009054906101000a900467ffffffffffffffff1667ffffffffffffffff168160050160109054906101000a900467ffffffffffffffff1667ffffffffffffffff1610610486576040517f08c379a000000000000000000000000000000000000000000000000000000000815260040161047d90612d94565b60405180910390fd5b60018160050160109054906101000a900467ffffffffffffffff1667ffffffffffffffff1610156104ec576040517f08c379a00000000000000000000000000000000000000000000000000000000081526004016104e390612e00565b60405180910390fd5b8060050160089054906101000a900467ffffffffffffffff1667ffffffffffffffff164210610550576040517f08c379a000000000000000000000000000000000000000000000000000000000815260040161054790612e6c565b60405180910390fd5b6000620151808260050160089054906101000a900467ffffffffffffffff166105799190612ebb565b905060008260050160109054906101000a900467ffffffffffffffff16905060006001826105a79190612ebb565b905060006105eb85600601548660050160009054906101000a900467ffffffffffffffff1667ffffffffffffffff1687600401548567ffffffffffffffff166122c1565b905080341015610630576040517f08c379a000000000000000000000000000000000000000000000000000000000815260040161062790612f69565b60405180910390fd5b8460000160009054906101000a900473ffffffffffffffffffffffffffffffffffffffff1673ffffffffffffffffffffffffffffffffffffffff166108fc829081150290604051600060405180830381858888f1935050505015801561069a573d6000803e3d6000fd5b50838560050160086101000a81548167ffffffffffffffff021916908367ffffffffffffffff1602179055508673ffffffffffffffffffffffffffffffffffffffff1663e030565e8733876040518463ffffffff1660e01b815260040161070393929190612fa7565b600060405180830381600087803b15801561071d57600080fd5b505af1158015610731573d6000803e3d6000fd5b5050505060008186600601546107479190612fde565b9050828660050160106101000a81548167ffffffffffffffff021916908367ffffffffffffffff1602179055508086600601819055508773ffffffffffffffffffffffffffffffffffffffff163373ffffffffffffffffffffffffffffffffffffffff168973ffffffffffffffffffffffffffffffffffffffff16636352211e8a6040518263ffffffff1660e01b81526004016107e49190612b45565b602060405180830381865afa158015610801573d6000803e3d6000fd5b505050506040513d601f19601f820116820180604052508101906108259190613027565b73ffffffffffffffffffffffffffffffffffffffff167fbffba71858e59a3f9bbb8e5792d8ac859e29ecfe86d40bb1dc34e346594542778a89898888604051610872959493929190613054565b60405180910390a45050505050506108886123f8565b5050565b818133600083905060008173ffffffffffffffffffffffffffffffffffffffff16636352211e856040518263ffffffff1660e01b81526004016108cf9190612b45565b602060405180830381865afa1580156108ec573d6000803e3d6000fd5b505050506040513d601f19601f820116820180604052508101906109109190613027565b90508073ffffffffffffffffffffffffffffffffffffffff168373ffffffffffffffffffffffffffffffffffffffff1614610977576040517f30cd747100000000000000000000000000000000000000000000000000000000815260040160405180910390fd5b86866000600460008473ffffffffffffffffffffffffffffffffffffffff1673ffffffffffffffffffffffffffffffffffffffff1681526020019081526020016000206000838152602001908152602001600020604051806101200160405290816000820160009054906101000a900473ffffffffffffffffffffffffffffffffffffffff1673ffffffffffffffffffffffffffffffffffffffff1673ffffffffffffffffffffffffffffffffffffffff1681526020016001820160009054906101000a900473ffffffffffffffffffffffffffffffffffffffff1673ffffffffffffffffffffffffffffffffffffffff1673ffffffffffffffffffffffffffffffffffffffff1681526020016002820160009054906101000a900473ffffffffffffffffffffffffffffffffffffffff1673ffffffffffffffffffffffffffffffffffffffff1673ffffffffffffffffffffffffffffffffffffffff16815260200160038201548152602001600482015481526020016005820160009054906101000a900467ffffffffffffffff1667ffffffffffffffff1667ffffffffffffffff1681526020016005820160089054906101000a900467ffffffffffffffff1667ffffffffffffffff1667ffffffffffffffff1681526020016005820160109054906101000a900467ffffffffffffffff1667ffffffffffffffff1667ffffffffffffffff16815260200160068201548152505090506000816080015111610bda5782826040517f6831488c000000000000000000000000000000000000000000000000000000008152600401610bd19291906130a7565b60405180910390fd5b610c22600560008c73ffffffffffffffffffffffffffffffffffffffff1673ffffffffffffffffffffffffffffffffffffffff1681526020019081526020016000208a612402565b50600460008b73ffffffffffffffffffffffffffffffffffffffff1673ffffffffffffffffffffffffffffffffffffffff16815260200190815260200160002060008a8152602001908152602001600020600080820160006101000a81549073ffffffffffffffffffffffffffffffffffffffff02191690556001820160006101000a81549073ffffffffffffffffffffffffffffffffffffffff02191690556002820160006101000a81549073ffffffffffffffffffffffffffffffffffffffff0219169055600382016000905560048201600090556005820160006101000a81549067ffffffffffffffff02191690556005820160086101000a81549067ffffffffffffffff02191690556005820160106101000a81549067ffffffffffffffff0219169055600682016000905550506000610d9d600560008d73ffffffffffffffffffffffffffffffffffffffff1673ffffffffffffffffffffffffffffffffffffffff16815260200190815260200160002061241c565b03610daf57610dad60068b612431565b505b610db96008612461565b888a73ffffffffffffffffffffffffffffffffffffffff163373ffffffffffffffffffffffffffffffffffffffff167f5e22415fbc0319574562e44217526b07e663891c4338550fe529eac37e9e0cb260405160405180910390a450505050505050505050565b600080600460008673ffffffffffffffffffffffffffffffffffffffff1673ffffffffffffffffffffffffffffffffffffffff1681526020019081526020016000206000858152602001908152602001600020905060008160050160009054906101000a900467ffffffffffffffff1667ffffffffffffffff161115610ebc578060050160009054906101000a900467ffffffffffffffff1692505b60008160050160109054906101000a900467ffffffffffffffff1667ffffffffffffffff168260050160009054906101000a900467ffffffffffffffff1667ffffffffffffffff1603610f2c57610f2560008567ffffffffffffffff16846004015460016122c1565b9050610f87565b60008260050160109054906101000a900467ffffffffffffffff1690506000600182610f589190612ebb565b9050610f8284600601548767ffffffffffffffff1686600401548467ffffffffffffffff166122c1565b925050505b80925050509392505050565b600080600090508273ffffffffffffffffffffffffffffffffffffffff166301ffc9a77f80ac58cd000000000000000000000000000000000000000000000000000000006040518263ffffffff1660e01b8152600401610ff3919061310b565b602060405180830381865afa92505050801561102d57506040513d601f19601f8201168201806040525081019061102a9190613152565b60015b61103b576000915050611044565b80915050809150505b919050565b6000600254905090565b61105b612272565b82826000600460008473ffffffffffffffffffffffffffffffffffffffff1673ffffffffffffffffffffffffffffffffffffffff1681526020019081526020016000206000838152602001908152602001600020604051806101200160405290816000820160009054906101000a900473ffffffffffffffffffffffffffffffffffffffff1673ffffffffffffffffffffffffffffffffffffffff1673ffffffffffffffffffffffffffffffffffffffff1681526020016001820160009054906101000a900473ffffffffffffffffffffffffffffffffffffffff1673ffffffffffffffffffffffffffffffffffffffff1673ffffffffffffffffffffffffffffffffffffffff1681526020016002820160009054906101000a900473ffffffffffffffffffffffffffffffffffffffff1673ffffffffffffffffffffffffffffffffffffffff1673ffffffffffffffffffffffffffffffffffffffff16815260200160038201548152602001600482015481526020016005820160009054906101000a900467ffffffffffffffff1667ffffffffffffffff1667ffffffffffffffff1681526020016005820160089054906101000a900467ffffffffffffffff1667ffffffffffffffff1667ffffffffffffffff1681526020016005820160109054906101000a900467ffffffffffffffff1667ffffffffffffffff1667ffffffffffffffff16815260200160068201548152505090506000816080015111156112bf5782826040517f4a5568d50000000000000000000000000000000000000000000000000000000081526004016112b69291906130a7565b60405180910390fd5b6112c8866120c7565b611307576040517f08c379a00000000000000000000000000000000000000000000000000000000081526004016112fe906131cb565b60405180910390fd5b3373ffffffffffffffffffffffffffffffffffffffff168673ffffffffffffffffffffffffffffffffffffffff16636352211e876040518263ffffffff1660e01b81526004016113579190612b45565b602060405180830381865afa158015611374573d6000803e3d6000fd5b505050506040513d601f19601f820116820180604052508101906113989190613027565b73ffffffffffffffffffffffffffffffffffffffff16146113ee576040517f08c379a00000000000000000000000000000000000000000000000000000000081526004016113e590613237565b60405180910390fd5b6002543414611432576040517f08c379a0000000000000000000000000000000000000000000000000000000008152600401611429906132a3565b60405180910390fd5b60008411611475576040517f08c379a000000000000000000000000000000000000000000000000000000000815260040161146c90613335565b60405180910390fd5b60008690503073ffffffffffffffffffffffffffffffffffffffff168173ffffffffffffffffffffffffffffffffffffffff1663081812fc886040518263ffffffff1660e01b81526004016114ca9190612b45565b602060405180830381865afa1580156114e7573d6000803e3d6000fd5b505050506040513d601f19601f8201168201806040525081019061150b9190613027565b73ffffffffffffffffffffffffffffffffffffffff1614611558576040517f4be3a2c500000000000000000000000000000000000000000000000000000000815260040160405180910390fd5b600160009054906101000a900473ffffffffffffffffffffffffffffffffffffffff1673ffffffffffffffffffffffffffffffffffffffff166108fc6002549081150290604051600060405180830381858888f193505050501580156115c2573d6000803e3d6000fd5b506040518061012001604052803373ffffffffffffffffffffffffffffffffffffffff168152602001600073ffffffffffffffffffffffffffffffffffffffff1681526020018873ffffffffffffffffffffffffffffffffffffffff168152602001878152602001868152602001600067ffffffffffffffff168152602001600067ffffffffffffffff168152602001600067ffffffffffffffff1681526020016000815250600460008973ffffffffffffffffffffffffffffffffffffffff1673ffffffffffffffffffffffffffffffffffffffff168152602001908152602001600020600088815260200190815260200160002060008201518160000160006101000a81548173ffffffffffffffffffffffffffffffffffffffff021916908373ffffffffffffffffffffffffffffffffffffffff16021790555060208201518160010160006101000a81548173ffffffffffffffffffffffffffffffffffffffff021916908373ffffffffffffffffffffffffffffffffffffffff16021790555060408201518160020160006101000a81548173ffffffffffffffffffffffffffffffffffffffff021916908373ffffffffffffffffffffffffffffffffffffffff160217905550606082015181600301556080820151816004015560a08201518160050160006101000a81548167ffffffffffffffff021916908367ffffffffffffffff16021790555060c08201518160050160086101000a81548167ffffffffffffffff021916908367ffffffffffffffff16021790555060e08201518160050160106101000a81548167ffffffffffffffff021916908367ffffffffffffffff160217905550610100820151816006015590505061184660086124bd565b61188e600560008973ffffffffffffffffffffffffffffffffffffffff1673ffffffffffffffffffffffffffffffffffffffff168152602001908152602001600020876124d3565b5061189a6006886124ed565b508673ffffffffffffffffffffffffffffffffffffffff16600073ffffffffffffffffffffffffffffffffffffffff168873ffffffffffffffffffffffffffffffffffffffff16636352211e896040518263ffffffff1660e01b81526004016119039190612b45565b602060405180830381865afa158015611920573d6000803e3d6000fd5b505050506040513d601f19601f820116820180604052508101906119449190613027565b73ffffffffffffffffffffffffffffffffffffffff167f96104f93007b1903cb7ec11f7eb4cb08e84720170462e648569235ae6ae6c6d0898960405161198b929190613355565b60405180910390a45050505061199f6123f8565b505050565b6119ac612272565b600360009054906101000a900467ffffffffffffffff1667ffffffffffffffff168167ffffffffffffffff161115611a19576040517f08c379a0000000000000000000000000000000000000000000000000000000008152600401611a10906133f0565b60405180910390fd5b60018167ffffffffffffffff1611611a66576040517f08c379a0000000000000000000000000000000000000000000000000000000008152600401611a5d90613482565b60405180910390fd5b6000600460008573ffffffffffffffffffffffffffffffffffffffff1673ffffffffffffffffffffffffffffffffffffffff16815260200190815260200160002060008481526020019081526020016000209050600073ffffffffffffffffffffffffffffffffffffffff168160010160009054906101000a900473ffffffffffffffffffffffffffffffffffffffff1673ffffffffffffffffffffffffffffffffffffffff161480611b3a57508060050160089054906101000a900467ffffffffffffffff1667ffffffffffffffff1642115b611b79576040517f08c379a0000000000000000000000000000000000000000000000000000000008152600401611b70906134ee565b60405180910390fd5b60006201518042611b8a9190612ebb565b90506000611baa60008567ffffffffffffffff16856004015460016122c1565b905080341015611bef576040517f08c379a0000000000000000000000000000000000000000000000000000000008152600401611be690612f69565b60405180910390fd5b8260000160009054906101000a900473ffffffffffffffffffffffffffffffffffffffff1673ffffffffffffffffffffffffffffffffffffffff166108fc829081150290604051600060405180830381858888f19350505050158015611c59573d6000803e3d6000fd5b508573ffffffffffffffffffffffffffffffffffffffff1663e030565e8633856040518463ffffffff1660e01b8152600401611c9793929190612fa7565b600060405180830381600087803b158015611cb157600080fd5b505af1158015611cc5573d6000803e3d6000fd5b50505050338360010160006101000a81548173ffffffffffffffffffffffffffffffffffffffff021916908373ffffffffffffffffffffffffffffffffffffffff160217905550818360050160086101000a81548167ffffffffffffffff021916908367ffffffffffffffff160217905550838360050160006101000a81548167ffffffffffffffff021916908367ffffffffffffffff16021790555060018360050160106101000a81548167ffffffffffffffff021916908367ffffffffffffffff1602179055508083600601819055508573ffffffffffffffffffffffffffffffffffffffff163373ffffffffffffffffffffffffffffffffffffffff168773ffffffffffffffffffffffffffffffffffffffff16636352211e886040518263ffffffff1660e01b8152600401611dfe9190612b45565b602060405180830381865afa158015611e1b573d6000803e3d6000fd5b505050506040513d601f19601f82011682018060405250810190611e3f9190613027565b73ffffffffffffffffffffffffffffffffffffffff167fbffba71858e59a3f9bbb8e5792d8ac859e29ecfe86d40bb1dc34e34659454277888660018788604051611e8d959493929190613553565b60405180910390a4505050611ea06123f8565b505050565b611ead612731565b600460008473ffffffffffffffffffffffffffffffffffffffff1673ffffffffffffffffffffffffffffffffffffffff1681526020019081526020016000206000838152602001908152602001600020604051806101200160405290816000820160009054906101000a900473ffffffffffffffffffffffffffffffffffffffff1673ffffffffffffffffffffffffffffffffffffffff1673ffffffffffffffffffffffffffffffffffffffff1681526020016001820160009054906101000a900473ffffffffffffffffffffffffffffffffffffffff1673ffffffffffffffffffffffffffffffffffffffff1673ffffffffffffffffffffffffffffffffffffffff1681526020016002820160009054906101000a900473ffffffffffffffffffffffffffffffffffffffff1673ffffffffffffffffffffffffffffffffffffffff1673ffffffffffffffffffffffffffffffffffffffff16815260200160038201548152602001600482015481526020016005820160009054906101000a900467ffffffffffffffff1667ffffffffffffffff1667ffffffffffffffff1681526020016005820160089054906101000a900467ffffffffffffffff1667ffffffffffffffff1667ffffffffffffffff1681526020016005820160109054906101000a900467ffffffffffffffff1667ffffffffffffffff1667ffffffffffffffff168152602001600682015481525050905092915050565b6000806000905060008373ffffffffffffffffffffffffffffffffffffffff166301ffc9a77fad092b5c000000000000000000000000000000000000000000000000000000006040518263ffffffff1660e01b8152600401612129919061310b565b602060405180830381865afa92505050801561216357506040513d601f19601f820116820180604052508101906121609190613152565b60015b6121725760009250505061222b565b809250508373ffffffffffffffffffffffffffffffffffffffff166301ffc9a77f80ac58cd000000000000000000000000000000000000000000000000000000006040518263ffffffff1660e01b81526004016121cf919061310b565b602060405180830381865afa92505050801561220957506040513d601f19601f820116820180604052508101906122069190613152565b60015b6122185760009250505061222b565b809150508180156122265750805b925050505b919050565b606060006122408360000161251d565b905060608190508092505050919050565b606060006122618360000161251d565b905060608190508092505050919050565b6002600054036122b7576040517f08c379a00000000000000000000000000000000000000000000000000000000081526004016122ae906135f2565b60405180910390fd5b6002600081905550565b600083821115612306576040517f08c379a00000000000000000000000000000000000000000000000000000000081526004016122fd90613684565b60405180910390fd5b60008211612349576040517f08c379a000000000000000000000000000000000000000000000000000000000815260040161234090613716565b60405180910390fd5b600084846123579190613736565b9050600080600090506000600190505b87811161238f57808261237a9190612fde565b9150808061238790613778565b915050612367565b506000818461239e91906137ef565b9050878610156123d257600186896123b69190613820565b6123c09190612fde565b816123cb9190613736565b92506123e9565b8786036123e85788846123e59190613820565b92505b5b82945050505050949350505050565b6001600081905550565b6000612414836000018360001b612579565b905092915050565b600061242a8260000161268d565b9050919050565b6000612459836000018373ffffffffffffffffffffffffffffffffffffffff1660001b612579565b905092915050565b600081600001549050600081116124ad576040517f08c379a00000000000000000000000000000000000000000000000000000000081526004016124a4906138a0565b60405180910390fd5b6001810382600001819055505050565b6001816000016000828254019250508190555050565b60006124e5836000018360001b61269e565b905092915050565b6000612515836000018373ffffffffffffffffffffffffffffffffffffffff1660001b61269e565b905092915050565b60608160000180548060200260200160405190810160405280929190818152602001828054801561256d57602002820191906000526020600020905b815481526020019060010190808311612559575b50505050509050919050565b600080836001016000848152602001908152602001600020549050600081146126815760006001826125ab9190613820565b90506000600186600001805490506125c39190613820565b90508181146126325760008660000182815481106125e4576125e36138c0565b5b9060005260206000200154905080876000018481548110612608576126076138c0565b5b90600052602060002001819055508387600101600083815260200190815260200160002081905550505b85600001805480612646576126456138ef565b5b600190038181906000526020600020016000905590558560010160008681526020019081526020016000206000905560019350505050612687565b60009150505b92915050565b600081600001805490509050919050565b60006126aa838361270e565b612703578260000182908060018154018082558091505060019003906000526020600020016000909190919091505582600001805490508360010160008481526020019081526020016000208190555060019050612708565b600090505b92915050565b600080836001016000848152602001908152602001600020541415905092915050565b604051806101200160405280600073ffffffffffffffffffffffffffffffffffffffff168152602001600073ffffffffffffffffffffffffffffffffffffffff168152602001600073ffffffffffffffffffffffffffffffffffffffff1681526020016000815260200160008152602001600067ffffffffffffffff168152602001600067ffffffffffffffff168152602001600067ffffffffffffffff168152602001600081525090565b600080fd5b600073ffffffffffffffffffffffffffffffffffffffff82169050919050565b600061280d826127e2565b9050919050565b61281d81612802565b811461282857600080fd5b50565b60008135905061283a81612814565b92915050565b600060208284031215612856576128556127dd565b5b60006128648482850161282b565b91505092915050565b600081519050919050565b600082825260208201905092915050565b6000819050602082019050919050565b6000819050919050565b6128ac81612899565b82525050565b60006128be83836128a3565b60208301905092915050565b6000602082019050919050565b60006128e28261286d565b6128ec8185612878565b93506128f783612889565b8060005b8381101561292857815161290f88826128b2565b975061291a836128ca565b9250506001810190506128fb565b5085935050505092915050565b6000602082019050818103600083015261294f81846128d7565b905092915050565b600081519050919050565b600082825260208201905092915050565b6000819050602082019050919050565b61298c81612802565b82525050565b600061299e8383612983565b60208301905092915050565b6000602082019050919050565b60006129c282612957565b6129cc8185612962565b93506129d783612973565b8060005b83811015612a085781516129ef8882612992565b97506129fa836129aa565b9250506001810190506129db565b5085935050505092915050565b60006020820190508181036000830152612a2f81846129b7565b905092915050565b612a4081612899565b8114612a4b57600080fd5b50565b600081359050612a5d81612a37565b92915050565b60008060408385031215612a7a57612a796127dd565b5b6000612a888582860161282b565b9250506020612a9985828601612a4e565b9150509250929050565b600067ffffffffffffffff82169050919050565b612ac081612aa3565b8114612acb57600080fd5b50565b600081359050612add81612ab7565b92915050565b600080600060608486031215612afc57612afb6127dd565b5b6000612b0a8682870161282b565b9350506020612b1b86828701612a4e565b9250506040612b2c86828701612ace565b9150509250925092565b612b3f81612899565b82525050565b6000602082019050612b5a6000830184612b36565b92915050565b60008115159050919050565b612b7581612b60565b82525050565b6000602082019050612b906000830184612b6c565b92915050565b600080600060608486031215612baf57612bae6127dd565b5b6000612bbd8682870161282b565b9350506020612bce86828701612a4e565b9250506040612bdf86828701612a4e565b9150509250925092565b612bf281612aa3565b82525050565b61012082016000820151612c0f6000850182612983565b506020820151612c226020850182612983565b506040820151612c356040850182612983565b506060820151612c4860608501826128a3565b506080820151612c5b60808501826128a3565b5060a0820151612c6e60a0850182612be9565b5060c0820151612c8160c0850182612be9565b5060e0820151612c9460e0850182612be9565b50610100820151612ca96101008501826128a3565b50505050565b600061012082019050612cc56000830184612bf8565b92915050565b600082825260208201905092915050565b7f596f7520617265206e6f74207468652063757272656e742072656e7465720000600082015250565b6000612d12601e83612ccb565b9150612d1d82612cdc565b602082019050919050565b60006020820190508181036000830152612d4181612d05565b9050919050565b7f52656e74616c206665652069732066756c6c7920706169640000000000000000600082015250565b6000612d7e601883612ccb565b9150612d8982612d48565b602082019050919050565b60006020820190508181036000830152612dad81612d71565b9050919050565b7f52656e74616c2061677265656d656e74206e6f7420796574206d616465000000600082015250565b6000612dea601d83612ccb565b9150612df582612db4565b602082019050919050565b60006020820190508181036000830152612e1981612ddd565b9050919050565b7f4e46542065787069726564000000000000000000000000000000000000000000600082015250565b6000612e56600b83612ccb565b9150612e6182612e20565b602082019050919050565b60006020820190508181036000830152612e8581612e49565b9050919050565b7f4e487b7100000000000000000000000000000000000000000000000000000000600052601160045260246000fd5b6000612ec682612aa3565b9150612ed183612aa3565b9250828201905067ffffffffffffffff811115612ef157612ef0612e8c565b5b92915050565b7f4e6f7420656e6f75676820657468657220746f20636f7665722072656e74616c60008201527f20706572696f6400000000000000000000000000000000000000000000000000602082015250565b6000612f53602783612ccb565b9150612f5e82612ef7565b604082019050919050565b60006020820190508181036000830152612f8281612f46565b9050919050565b612f9281612802565b82525050565b612fa181612aa3565b82525050565b6000606082019050612fbc6000830186612b36565b612fc96020830185612f89565b612fd66040830184612f98565b949350505050565b6000612fe982612899565b9150612ff483612899565b925082820190508082111561300c5761300b612e8c565b5b92915050565b60008151905061302181612814565b92915050565b60006020828403121561303d5761303c6127dd565b5b600061304b84828501613012565b91505092915050565b600060a0820190506130696000830188612b36565b6130766020830187612f98565b6130836040830186612f98565b6130906060830185612b36565b61309d6080830184612b36565b9695505050505050565b60006040820190506130bc6000830185612f89565b6130c96020830184612b36565b9392505050565b60007fffffffff0000000000000000000000000000000000000000000000000000000082169050919050565b613105816130d0565b82525050565b600060208201905061312060008301846130fc565b92915050565b61312f81612b60565b811461313a57600080fd5b50565b60008151905061314c81613126565b92915050565b600060208284031215613168576131676127dd565b5b60006131768482850161313d565b91505092915050565b7f436f6e7472616374206973206e6f7420616e2045524334393037000000000000600082015250565b60006131b5601a83612ccb565b91506131c08261317f565b602082019050919050565b600060208201905081810360008301526131e4816131a8565b9050919050565b7f4e6f74206f776e6572206f66206e667400000000000000000000000000000000600082015250565b6000613221601083612ccb565b915061322c826131eb565b602082019050919050565b6000602082019050818103600083015261325081613214565b9050919050565b7f4e6f7420656e6f75676820657468657220666f72206c697374696e6720666565600082015250565b600061328d602083612ccb565b915061329882613257565b602082019050919050565b600060208201905081810360008301526132bc81613280565b9050919050565b7f52656e74616c2070726963652073686f756c642062652067726561746572207460008201527f68616e2030000000000000000000000000000000000000000000000000000000602082015250565b600061331f602583612ccb565b915061332a826132c3565b604082019050919050565b6000602082019050818103600083015261334e81613312565b9050919050565b600060408201905061336a6000830185612b36565b6133776020830184612b36565b9392505050565b7f4d6178696d756d206f662031302072656e74616c20646179732061726520616c60008201527f6c6f776564000000000000000000000000000000000000000000000000000000602082015250565b60006133da602583612ccb565b91506133e58261337e565b604082019050919050565b60006020820190508181036000830152613409816133cd565b9050919050565b7f4e756d626572206f6620696e7374616c6c6d656e7473206d757374206265206760008201527f726561746572207468616e203100000000000000000000000000000000000000602082015250565b600061346c602d83612ccb565b915061347782613410565b604082019050919050565b6000602082019050818103600083015261349b8161345f565b9050919050565b7f4e465420616c72656164792072656e7465640000000000000000000000000000600082015250565b60006134d8601283612ccb565b91506134e3826134a2565b602082019050919050565b60006020820190508181036000830152613507816134cb565b9050919050565b6000819050919050565b6000819050919050565b600061353d6135386135338461350e565b613518565b612aa3565b9050919050565b61354d81613522565b82525050565b600060a0820190506135686000830188612b36565b6135756020830187612f98565b6135826040830186613544565b61358f6060830185612b36565b61359c6080830184612b36565b9695505050505050565b7f5265656e7472616e637947756172643a207265656e7472616e742063616c6c00600082015250565b60006135dc601f83612ccb565b91506135e7826135a6565b602082019050919050565b6000602082019050818103600083015261360b816135cf565b9050919050565b7f496e7374616c6c6d656e7420496e6465782073686f756c64206265206c65737360008201527f6572207468616e2074686520696e7374616c6c6d656e7420636f756e74000000602082015250565b600061366e603d83612ccb565b915061367982613612565b604082019050919050565b6000602082019050818103600083015261369d81613661565b9050919050565b7f496e7374616c6c6d656e7420496e6465782073686f756c64206265206772656160008201527f746572207468616e203000000000000000000000000000000000000000000000602082015250565b6000613700602a83612ccb565b915061370b826136a4565b604082019050919050565b6000602082019050818103600083015261372f816136f3565b9050919050565b600061374182612899565b915061374c83612899565b925082820261375a81612899565b9150828204841483151761377157613770612e8c565b5b5092915050565b600061378382612899565b91507fffffffffffffffffffffffffffffffffffffffffffffffffffffffffffffffff82036137b5576137b4612e8c565b5b600182019050919050565b7f4e487b7100000000000000000000000000000000000000000000000000000000600052601260045260246000fd5b60006137fa82612899565b915061380583612899565b925082613815576138146137c0565b5b828204905092915050565b600061382b82612899565b915061383683612899565b925082820390508181111561384e5761384d612e8c565b5b92915050565b7f436f756e7465723a2064656372656d656e74206f766572666c6f770000000000600082015250565b600061388a601b83612ccb565b915061389582613854565b602082019050919050565b600060208201905081810360008301526138b98161387d565b9050919050565b7f4e487b7100000000000000000000000000000000000000000000000000000000600052603260045260246000fd5b7f4e487b7100000000000000000000000000000000000000000000000000000000600052603160045260246000fdfea2646970667358221220737fb3591b9a47710f2f332fcdfff3231a1d595ad608de63a6913870ae24917964736f6c63430008110033",
  "linkReferences": {},
  "deployedLinkReferences": {}
}