{
  "_format": "hh-sol-artifact-1",
  "contractName": "AVFXGeneral",
  "sourceName": "contracts/AVFXGeneral.sol",
  "abi": [
    {
      "inputs": [
        {
          "internalType": "string",
          "name": "_tokenName",
          "type": "string"
        },
        {
          "internalType": "string",
          "name": "_tokenSymbol",
          "type": "string"
        }
      ],
      "stateMutability": "nonpayable",
      "type": "constructor"
    },
    {
      "anonymous": false,
      "inputs": [
        {
          "indexed": true,
          "internalType": "address",
          "name": "owner",
          "type": "address"
        },
        {
          "indexed": true,
          "internalType": "address",
          "name": "approved",
          "type": "address"
        },
        {
          "indexed": true,
          "internalType": "uint256",
          "name": "tokenId",
          "type": "uint256"
        }
      ],
      "name": "Approval",
      "type": "event"
    },
    {
      "anonymous": false,
      "inputs": [
        {
          "indexed": true,
          "internalType": "address",
          "name": "owner",
          "type": "address"
        },
        {
          "indexed": true,
          "internalType": "address",
          "name": "operator",
          "type": "address"
        },
        {
          "indexed": false,
          "internalType": "bool",
          "name": "approved",
          "type": "bool"
        }
      ],
      "name": "ApprovalForAll",
      "type": "event"
    },
    {
      "anonymous": false,
      "inputs": [
        {
          "indexed": true,
          "internalType": "address",
          "name": "from",
          "type": "address"
        },
        {
          "indexed": true,
          "internalType": "address",
          "name": "to",
          "type": "address"
        },
        {
          "indexed": true,
          "internalType": "uint256",
          "name": "tokenId",
          "type": "uint256"
        }
      ],
      "name": "Transfer",
      "type": "event"
    },
    {
      "inputs": [],
      "name": "MAX_TOKENS",
      "outputs": [
        {
          "internalType": "uint256",
          "name": "",
          "type": "uint256"
        }
      ],
      "stateMutability": "view",
      "type": "function"
    },
    {
      "inputs": [
        {
          "internalType": "address",
          "name": "to",
          "type": "address"
        },
        {
          "internalType": "uint256",
          "name": "tokenId",
          "type": "uint256"
        }
      ],
      "name": "approve",
      "outputs": [],
      "stateMutability": "nonpayable",
      "type": "function"
    },
    {
      "inputs": [
        {
          "internalType": "address",
          "name": "owner",
          "type": "address"
        }
      ],
      "name": "balanceOf",
      "outputs": [
        {
          "internalType": "uint256",
          "name": "",
          "type": "uint256"
        }
      ],
      "stateMutability": "view",
      "type": "function"
    },
    {
      "inputs": [
        {
          "internalType": "uint256",
          "name": "tokenId",
          "type": "uint256"
        }
      ],
      "name": "getApproved",
      "outputs": [
        {
          "internalType": "address",
          "name": "",
          "type": "address"
        }
      ],
      "stateMutability": "view",
      "type": "function"
    },
    {
      "inputs": [
        {
          "internalType": "address",
          "name": "owner",
          "type": "address"
        },
        {
          "internalType": "address",
          "name": "operator",
          "type": "address"
        }
      ],
      "name": "isApprovedForAll",
      "outputs": [
        {
          "internalType": "bool",
          "name": "",
          "type": "bool"
        }
      ],
      "stateMutability": "view",
      "type": "function"
    },
    {
      "inputs": [
        {
          "internalType": "string",
          "name": "_tokenUri",
          "type": "string"
        }
      ],
      "name": "mint",
      "outputs": [],
      "stateMutability": "payable",
      "type": "function"
    },
    {
      "inputs": [],
      "name": "name",
      "outputs": [
        {
          "internalType": "string",
          "name": "",
          "type": "string"
        }
      ],
      "stateMutability": "view",
      "type": "function"
    },
    {
      "inputs": [
        {
          "internalType": "uint256",
          "name": "tokenId",
          "type": "uint256"
        }
      ],
      "name": "ownerOf",
      "outputs": [
        {
          "internalType": "address",
          "name": "",
          "type": "address"
        }
      ],
      "stateMutability": "view",
      "type": "function"
    },
    {
      "inputs": [
        {
          "internalType": "address",
          "name": "from",
          "type": "address"
        },
        {
          "internalType": "address",
          "name": "to",
          "type": "address"
        },
        {
          "internalType": "uint256",
          "name": "tokenId",
          "type": "uint256"
        }
      ],
      "name": "safeTransferFrom",
      "outputs": [],
      "stateMutability": "nonpayable",
      "type": "function"
    },
    {
      "inputs": [
        {
          "internalType": "address",
          "name": "from",
          "type": "address"
        },
        {
          "internalType": "address",
          "name": "to",
          "type": "address"
        },
        {
          "internalType": "uint256",
          "name": "tokenId",
          "type": "uint256"
        },
        {
          "internalType": "bytes",
          "name": "data",
          "type": "bytes"
        }
      ],
      "name": "safeTransferFrom",
      "outputs": [],
      "stateMutability": "nonpayable",
      "type": "function"
    },
    {
      "inputs": [
        {
          "internalType": "address",
          "name": "operator",
          "type": "address"
        },
        {
          "internalType": "bool",
          "name": "approved",
          "type": "bool"
        }
      ],
      "name": "setApprovalForAll",
      "outputs": [],
      "stateMutability": "nonpayable",
      "type": "function"
    },
    {
      "inputs": [
        {
          "internalType": "bytes4",
          "name": "interfaceId",
          "type": "bytes4"
        }
      ],
      "name": "supportsInterface",
      "outputs": [
        {
          "internalType": "bool",
          "name": "",
          "type": "bool"
        }
      ],
      "stateMutability": "view",
      "type": "function"
    },
    {
      "inputs": [],
      "name": "symbol",
      "outputs": [
        {
          "internalType": "string",
          "name": "",
          "type": "string"
        }
      ],
      "stateMutability": "view",
      "type": "function"
    },
    {
      "inputs": [],
      "name": "tokenCounter",
      "outputs": [
        {
          "internalType": "uint256",
          "name": "",
          "type": "uint256"
        }
      ],
      "stateMutability": "view",
      "type": "function"
    },
    {
      "inputs": [
        {
          "internalType": "uint256",
          "name": "tokenId",
          "type": "uint256"
        }
      ],
      "name": "tokenURI",
      "outputs": [
        {
          "internalType": "string",
          "name": "",
          "type": "string"
        }
      ],
      "stateMutability": "view",
      "type": "function"
    },
    {
      "inputs": [
        {
          "internalType": "address",
          "name": "from",
          "type": "address"
        },
        {
          "internalType": "address",
          "name": "to",
          "type": "address"
        },
        {
          "internalType": "uint256",
          "name": "tokenId",
          "type": "uint256"
        }
      ],
      "name": "transferFrom",
      "outputs": [],
      "stateMutability": "nonpayable",
      "type": "function"
    }
  ],
  "bytecode": "0x60806040526103e86008553480156200001757600080fd5b50604051620033ba380380620033ba83398181016040528101906200003d919062000208565b81818160009081620000509190620004d8565b508060019081620000629190620004d8565b50505060006007819055505050620005bf565b6000604051905090565b600080fd5b600080fd5b600080fd5b600080fd5b6000601f19601f8301169050919050565b7f4e487b7100000000000000000000000000000000000000000000000000000000600052604160045260246000fd5b620000de8262000093565b810181811067ffffffffffffffff821117156200010057620000ff620000a4565b5b80604052505050565b60006200011562000075565b9050620001238282620000d3565b919050565b600067ffffffffffffffff821115620001465762000145620000a4565b5b620001518262000093565b9050602081019050919050565b60005b838110156200017e57808201518184015260208101905062000161565b60008484015250505050565b6000620001a16200019b8462000128565b62000109565b905082815260208101848484011115620001c057620001bf6200008e565b5b620001cd8482856200015e565b509392505050565b600082601f830112620001ed57620001ec62000089565b5b8151620001ff8482602086016200018a565b91505092915050565b600080604083850312156200022257620002216200007f565b5b600083015167ffffffffffffffff81111562000243576200024262000084565b5b6200025185828601620001d5565b925050602083015167ffffffffffffffff81111562000275576200027462000084565b5b6200028385828601620001d5565b9150509250929050565b600081519050919050565b7f4e487b7100000000000000000000000000000000000000000000000000000000600052602260045260246000fd5b60006002820490506001821680620002e057607f821691505b602082108103620002f657620002f562000298565b5b50919050565b60008190508160005260206000209050919050565b60006020601f8301049050919050565b600082821b905092915050565b600060088302620003607fffffffffffffffffffffffffffffffffffffffffffffffffffffffffffffffff8262000321565b6200036c868362000321565b95508019841693508086168417925050509392505050565b6000819050919050565b6000819050919050565b6000620003b9620003b3620003ad8462000384565b6200038e565b62000384565b9050919050565b6000819050919050565b620003d58362000398565b620003ed620003e482620003c0565b8484546200032e565b825550505050565b600090565b62000404620003f5565b62000411818484620003ca565b505050565b5b8181101562000439576200042d600082620003fa565b60018101905062000417565b5050565b601f82111562000488576200045281620002fc565b6200045d8462000311565b810160208510156200046d578190505b620004856200047c8562000311565b83018262000416565b50505b505050565b600082821c905092915050565b6000620004ad600019846008026200048d565b1980831691505092915050565b6000620004c883836200049a565b9150826002028217905092915050565b620004e3826200028d565b67ffffffffffffffff811115620004ff57620004fe620000a4565b5b6200050b8254620002c7565b620005188282856200043d565b600060209050601f8311600181146200055057600084156200053b578287015190505b620005478582620004ba565b865550620005b7565b601f1984166200056086620002fc565b60005b828110156200058a5784890151825560018201915060208501945060208101905062000563565b86831015620005aa5784890151620005a6601f8916826200049a565b8355505b6001600288020188555050505b505050505050565b612deb80620005cf6000396000f3fe6080604052600436106100f35760003560e01c806395d89b411161008a578063d082e38111610059578063d082e3811461034c578063d85d3d2714610377578063e985e9c514610393578063f47c84c5146103d0576100f3565b806395d89b4114610292578063a22cb465146102bd578063b88d4fde146102e6578063c87b56dd1461030f576100f3565b806323b872dd116100c657806323b872dd146101c657806342842e0e146101ef5780636352211e1461021857806370a0823114610255576100f3565b806301ffc9a7146100f857806306fdde0314610135578063081812fc14610160578063095ea7b31461019d575b600080fd5b34801561010457600080fd5b5061011f600480360381019061011a9190611bea565b6103fb565b60405161012c9190611c32565b60405180910390f35b34801561014157600080fd5b5061014a6104dd565b6040516101579190611cdd565b60405180910390f35b34801561016c57600080fd5b5061018760048036038101906101829190611d35565b61056f565b6040516101949190611da3565b60405180910390f35b3480156101a957600080fd5b506101c460048036038101906101bf9190611dea565b6105b5565b005b3480156101d257600080fd5b506101ed60048036038101906101e89190611e2a565b6106cc565b005b3480156101fb57600080fd5b5061021660048036038101906102119190611e2a565b61072c565b005b34801561022457600080fd5b5061023f600480360381019061023a9190611d35565b61074c565b60405161024c9190611da3565b60405180910390f35b34801561026157600080fd5b5061027c60048036038101906102779190611e7d565b6107d2565b6040516102899190611eb9565b60405180910390f35b34801561029e57600080fd5b506102a7610889565b6040516102b49190611cdd565b60405180910390f35b3480156102c957600080fd5b506102e460048036038101906102df9190611f00565b61091b565b005b3480156102f257600080fd5b5061030d60048036038101906103089190612075565b610931565b005b34801561031b57600080fd5b5061033660048036038101906103319190611d35565b610993565b6040516103439190611cdd565b60405180910390f35b34801561035857600080fd5b50610361610aa5565b60405161036e9190611eb9565b60405180910390f35b610391600480360381019061038c9190612199565b610aab565b005b34801561039f57600080fd5b506103ba60048036038101906103b591906121e2565b610b21565b6040516103c79190611c32565b60405180910390f35b3480156103dc57600080fd5b506103e5610bb5565b6040516103f29190611eb9565b60405180910390f35b60007f80ac58cd000000000000000000000000000000000000000000000000000000007bffffffffffffffffffffffffffffffffffffffffffffffffffffffff1916827bffffffffffffffffffffffffffffffffffffffffffffffffffffffff191614806104c657507f5b5e139f000000000000000000000000000000000000000000000000000000007bffffffffffffffffffffffffffffffffffffffffffffffffffffffff1916827bffffffffffffffffffffffffffffffffffffffffffffffffffffffff1916145b806104d657506104d582610bbb565b5b9050919050565b6060600080546104ec90612251565b80601f016020809104026020016040519081016040528092919081815260200182805461051890612251565b80156105655780601f1061053a57610100808354040283529160200191610565565b820191906000526020600020905b81548152906001019060200180831161054857829003601f168201915b5050505050905090565b600061057a82610c25565b6004600083815260200190815260200160002060009054906101000a900473ffffffffffffffffffffffffffffffffffffffff169050919050565b60006105c08261074c565b90508073ffffffffffffffffffffffffffffffffffffffff168373ffffffffffffffffffffffffffffffffffffffff1603610630576040517f08c379a0000000000000000000000000000000000000000000000000000000008152600401610627906122f4565b60405180910390fd5b8073ffffffffffffffffffffffffffffffffffffffff1661064f610c70565b73ffffffffffffffffffffffffffffffffffffffff16148061067e575061067d81610678610c70565b610b21565b5b6106bd576040517f08c379a00000000000000000000000000000000000000000000000000000000081526004016106b490612386565b60405180910390fd5b6106c78383610c78565b505050565b6106dd6106d7610c70565b82610d31565b61071c576040517f08c379a000000000000000000000000000000000000000000000000000000000815260040161071390612418565b60405180910390fd5b610727838383610dc6565b505050565b61074783838360405180602001604052806000815250610931565b505050565b600080610758836110bf565b9050600073ffffffffffffffffffffffffffffffffffffffff168173ffffffffffffffffffffffffffffffffffffffff16036107c9576040517f08c379a00000000000000000000000000000000000000000000000000000000081526004016107c090612484565b60405180910390fd5b80915050919050565b60008073ffffffffffffffffffffffffffffffffffffffff168273ffffffffffffffffffffffffffffffffffffffff1603610842576040517f08c379a000000000000000000000000000000000000000000000000000000000815260040161083990612516565b60405180910390fd5b600360008373ffffffffffffffffffffffffffffffffffffffff1673ffffffffffffffffffffffffffffffffffffffff168152602001908152602001600020549050919050565b60606001805461089890612251565b80601f01602080910402602001604051908101604052809291908181526020018280546108c490612251565b80156109115780601f106108e657610100808354040283529160200191610911565b820191906000526020600020905b8154815290600101906020018083116108f457829003601f168201915b5050505050905090565b61092d610926610c70565b83836110fc565b5050565b61094261093c610c70565b83610d31565b610981576040517f08c379a000000000000000000000000000000000000000000000000000000000815260040161097890612418565b60405180910390fd5b61098d84848484611268565b50505050565b606061099e82610c25565b60006006600084815260200190815260200160002080546109be90612251565b80601f01602080910402602001604051908101604052809291908181526020018280546109ea90612251565b8015610a375780601f10610a0c57610100808354040283529160200191610a37565b820191906000526020600020905b815481529060010190602001808311610a1a57829003601f168201915b505050505090506000610a486112c4565b90506000815103610a5d578192505050610aa0565b600082511115610a92578082604051602001610a7a929190612572565b60405160208183030381529060405292505050610aa0565b610a9b846112db565b925050505b919050565b60075481565b60085460075410610af1576040517f08c379a0000000000000000000000000000000000000000000000000000000008152600401610ae8906125e2565b60405180910390fd5b610afd33600754611343565b610b0960075482611361565b6001600754610b189190612631565b60078190555050565b6000600560008473ffffffffffffffffffffffffffffffffffffffff1673ffffffffffffffffffffffffffffffffffffffff16815260200190815260200160002060008373ffffffffffffffffffffffffffffffffffffffff1673ffffffffffffffffffffffffffffffffffffffff16815260200190815260200160002060009054906101000a900460ff16905092915050565b60085481565b60007f01ffc9a7000000000000000000000000000000000000000000000000000000007bffffffffffffffffffffffffffffffffffffffffffffffffffffffff1916827bffffffffffffffffffffffffffffffffffffffffffffffffffffffff1916149050919050565b610c2e816113ce565b610c6d576040517f08c379a0000000000000000000000000000000000000000000000000000000008152600401610c6490612484565b60405180910390fd5b50565b600033905090565b816004600083815260200190815260200160002060006101000a81548173ffffffffffffffffffffffffffffffffffffffff021916908373ffffffffffffffffffffffffffffffffffffffff160217905550808273ffffffffffffffffffffffffffffffffffffffff16610ceb8361074c565b73ffffffffffffffffffffffffffffffffffffffff167f8c5be1e5ebec7d5bd14f71427d1e84f3dd0314c0f7b2291e5b200ac8c7c3b92560405160405180910390a45050565b600080610d3d8361074c565b90508073ffffffffffffffffffffffffffffffffffffffff168473ffffffffffffffffffffffffffffffffffffffff161480610d7f5750610d7e8185610b21565b5b80610dbd57508373ffffffffffffffffffffffffffffffffffffffff16610da58461056f565b73ffffffffffffffffffffffffffffffffffffffff16145b91505092915050565b8273ffffffffffffffffffffffffffffffffffffffff16610de68261074c565b73ffffffffffffffffffffffffffffffffffffffff1614610e3c576040517f08c379a0000000000000000000000000000000000000000000000000000000008152600401610e33906126d7565b60405180910390fd5b600073ffffffffffffffffffffffffffffffffffffffff168273ffffffffffffffffffffffffffffffffffffffff1603610eab576040517f08c379a0000000000000000000000000000000000000000000000000000000008152600401610ea290612769565b60405180910390fd5b610eb8838383600161140f565b8273ffffffffffffffffffffffffffffffffffffffff16610ed88261074c565b73ffffffffffffffffffffffffffffffffffffffff1614610f2e576040517f08c379a0000000000000000000000000000000000000000000000000000000008152600401610f25906126d7565b60405180910390fd5b6004600082815260200190815260200160002060006101000a81549073ffffffffffffffffffffffffffffffffffffffff02191690556001600360008573ffffffffffffffffffffffffffffffffffffffff1673ffffffffffffffffffffffffffffffffffffffff168152602001908152602001600020600082825403925050819055506001600360008473ffffffffffffffffffffffffffffffffffffffff1673ffffffffffffffffffffffffffffffffffffffff16815260200190815260200160002060008282540192505081905550816002600083815260200190815260200160002060006101000a81548173ffffffffffffffffffffffffffffffffffffffff021916908373ffffffffffffffffffffffffffffffffffffffff160217905550808273ffffffffffffffffffffffffffffffffffffffff168473ffffffffffffffffffffffffffffffffffffffff167fddf252ad1be2c89b69c2b068fc378daa952ba7f163c4a11628f55a4df523b3ef60405160405180910390a46110ba8383836001611535565b505050565b60006002600083815260200190815260200160002060009054906101000a900473ffffffffffffffffffffffffffffffffffffffff169050919050565b8173ffffffffffffffffffffffffffffffffffffffff168373ffffffffffffffffffffffffffffffffffffffff160361116a576040517f08c379a0000000000000000000000000000000000000000000000000000000008152600401611161906127d5565b60405180910390fd5b80600560008573ffffffffffffffffffffffffffffffffffffffff1673ffffffffffffffffffffffffffffffffffffffff16815260200190815260200160002060008473ffffffffffffffffffffffffffffffffffffffff1673ffffffffffffffffffffffffffffffffffffffff16815260200190815260200160002060006101000a81548160ff0219169083151502179055508173ffffffffffffffffffffffffffffffffffffffff168373ffffffffffffffffffffffffffffffffffffffff167f17307eab39ab6107e8899845ad3d59bd9653f200f220920489ca2b5937696c318360405161125b9190611c32565b60405180910390a3505050565b611273848484610dc6565b61127f8484848461153b565b6112be576040517f08c379a00000000000000000000000000000000000000000000000000000000081526004016112b590612867565b60405180910390fd5b50505050565b606060405180602001604052806000815250905090565b60606112e682610c25565b60006112f06112c4565b90506000815111611310576040518060200160405280600081525061133b565b8061131a846116c2565b60405160200161132b929190612572565b6040516020818303038152906040525b915050919050565b61135d828260405180602001604052806000815250611790565b5050565b61136a826113ce565b6113a9576040517f08c379a00000000000000000000000000000000000000000000000000000000081526004016113a0906128f9565b60405180910390fd5b806006600084815260200190815260200160002090816113c99190612ac5565b505050565b60008073ffffffffffffffffffffffffffffffffffffffff166113f0836110bf565b73ffffffffffffffffffffffffffffffffffffffff1614159050919050565b600181111561152f57600073ffffffffffffffffffffffffffffffffffffffff168473ffffffffffffffffffffffffffffffffffffffff16146114a35780600360008673ffffffffffffffffffffffffffffffffffffffff1673ffffffffffffffffffffffffffffffffffffffff168152602001908152602001600020600082825461149b9190612b97565b925050819055505b600073ffffffffffffffffffffffffffffffffffffffff168373ffffffffffffffffffffffffffffffffffffffff161461152e5780600360008573ffffffffffffffffffffffffffffffffffffffff1673ffffffffffffffffffffffffffffffffffffffff16815260200190815260200160002060008282546115269190612631565b925050819055505b5b50505050565b50505050565b600061155c8473ffffffffffffffffffffffffffffffffffffffff166117eb565b156116b5578373ffffffffffffffffffffffffffffffffffffffff1663150b7a02611585610c70565b8786866040518563ffffffff1660e01b81526004016115a79493929190612c20565b6020604051808303816000875af19250505080156115e357506040513d601f19601f820116820180604052508101906115e09190612c81565b60015b611665573d8060008114611613576040519150601f19603f3d011682016040523d82523d6000602084013e611618565b606091505b50600081510361165d576040517f08c379a000000000000000000000000000000000000000000000000000000000815260040161165490612867565b60405180910390fd5b805181602001fd5b63150b7a0260e01b7bffffffffffffffffffffffffffffffffffffffffffffffffffffffff1916817bffffffffffffffffffffffffffffffffffffffffffffffffffffffff1916149150506116ba565b600190505b949350505050565b6060600060016116d18461180e565b01905060008167ffffffffffffffff8111156116f0576116ef611f4a565b5b6040519080825280601f01601f1916602001820160405280156117225781602001600182028036833780820191505090505b509050600082602001820190505b600115611785578080600190039150507f3031323334353637383961626364656600000000000000000000000000000000600a86061a8153600a858161177957611778612cae565b5b04945060008503611730575b819350505050919050565b61179a8383611961565b6117a7600084848461153b565b6117e6576040517f08c379a00000000000000000000000000000000000000000000000000000000081526004016117dd90612867565b60405180910390fd5b505050565b6000808273ffffffffffffffffffffffffffffffffffffffff163b119050919050565b600080600090507a184f03e93ff9f4daa797ed6e38ed64bf6a1f010000000000000000831061186c577a184f03e93ff9f4daa797ed6e38ed64bf6a1f010000000000000000838161186257611861612cae565b5b0492506040810190505b6d04ee2d6d415b85acef810000000083106118a9576d04ee2d6d415b85acef8100000000838161189f5761189e612cae565b5b0492506020810190505b662386f26fc1000083106118d857662386f26fc1000083816118ce576118cd612cae565b5b0492506010810190505b6305f5e1008310611901576305f5e10083816118f7576118f6612cae565b5b0492506008810190505b612710831061192657612710838161191c5761191b612cae565b5b0492506004810190505b60648310611949576064838161193f5761193e612cae565b5b0492506002810190505b600a8310611958576001810190505b80915050919050565b600073ffffffffffffffffffffffffffffffffffffffff168273ffffffffffffffffffffffffffffffffffffffff16036119d0576040517f08c379a00000000000000000000000000000000000000000000000000000000081526004016119c790612d29565b60405180910390fd5b6119d9816113ce565b15611a19576040517f08c379a0000000000000000000000000000000000000000000000000000000008152600401611a1090612d95565b60405180910390fd5b611a2760008383600161140f565b611a30816113ce565b15611a70576040517f08c379a0000000000000000000000000000000000000000000000000000000008152600401611a6790612d95565b60405180910390fd5b6001600360008473ffffffffffffffffffffffffffffffffffffffff1673ffffffffffffffffffffffffffffffffffffffff16815260200190815260200160002060008282540192505081905550816002600083815260200190815260200160002060006101000a81548173ffffffffffffffffffffffffffffffffffffffff021916908373ffffffffffffffffffffffffffffffffffffffff160217905550808273ffffffffffffffffffffffffffffffffffffffff16600073ffffffffffffffffffffffffffffffffffffffff167fddf252ad1be2c89b69c2b068fc378daa952ba7f163c4a11628f55a4df523b3ef60405160405180910390a4611b7a600083836001611535565b5050565b6000604051905090565b600080fd5b600080fd5b60007fffffffff0000000000000000000000000000000000000000000000000000000082169050919050565b611bc781611b92565b8114611bd257600080fd5b50565b600081359050611be481611bbe565b92915050565b600060208284031215611c0057611bff611b88565b5b6000611c0e84828501611bd5565b91505092915050565b60008115159050919050565b611c2c81611c17565b82525050565b6000602082019050611c476000830184611c23565b92915050565b600081519050919050565b600082825260208201905092915050565b60005b83811015611c87578082015181840152602081019050611c6c565b60008484015250505050565b6000601f19601f8301169050919050565b6000611caf82611c4d565b611cb98185611c58565b9350611cc9818560208601611c69565b611cd281611c93565b840191505092915050565b60006020820190508181036000830152611cf78184611ca4565b905092915050565b6000819050919050565b611d1281611cff565b8114611d1d57600080fd5b50565b600081359050611d2f81611d09565b92915050565b600060208284031215611d4b57611d4a611b88565b5b6000611d5984828501611d20565b91505092915050565b600073ffffffffffffffffffffffffffffffffffffffff82169050919050565b6000611d8d82611d62565b9050919050565b611d9d81611d82565b82525050565b6000602082019050611db86000830184611d94565b92915050565b611dc781611d82565b8114611dd257600080fd5b50565b600081359050611de481611dbe565b92915050565b60008060408385031215611e0157611e00611b88565b5b6000611e0f85828601611dd5565b9250506020611e2085828601611d20565b9150509250929050565b600080600060608486031215611e4357611e42611b88565b5b6000611e5186828701611dd5565b9350506020611e6286828701611dd5565b9250506040611e7386828701611d20565b9150509250925092565b600060208284031215611e9357611e92611b88565b5b6000611ea184828501611dd5565b91505092915050565b611eb381611cff565b82525050565b6000602082019050611ece6000830184611eaa565b92915050565b611edd81611c17565b8114611ee857600080fd5b50565b600081359050611efa81611ed4565b92915050565b60008060408385031215611f1757611f16611b88565b5b6000611f2585828601611dd5565b9250506020611f3685828601611eeb565b9150509250929050565b600080fd5b600080fd5b7f4e487b7100000000000000000000000000000000000000000000000000000000600052604160045260246000fd5b611f8282611c93565b810181811067ffffffffffffffff82111715611fa157611fa0611f4a565b5b80604052505050565b6000611fb4611b7e565b9050611fc08282611f79565b919050565b600067ffffffffffffffff821115611fe057611fdf611f4a565b5b611fe982611c93565b9050602081019050919050565b82818337600083830152505050565b600061201861201384611fc5565b611faa565b90508281526020810184848401111561203457612033611f45565b5b61203f848285611ff6565b509392505050565b600082601f83011261205c5761205b611f40565b5b813561206c848260208601612005565b91505092915050565b6000806000806080858703121561208f5761208e611b88565b5b600061209d87828801611dd5565b94505060206120ae87828801611dd5565b93505060406120bf87828801611d20565b925050606085013567ffffffffffffffff8111156120e0576120df611b8d565b5b6120ec87828801612047565b91505092959194509250565b600067ffffffffffffffff82111561211357612112611f4a565b5b61211c82611c93565b9050602081019050919050565b600061213c612137846120f8565b611faa565b90508281526020810184848401111561215857612157611f45565b5b612163848285611ff6565b509392505050565b600082601f8301126121805761217f611f40565b5b8135612190848260208601612129565b91505092915050565b6000602082840312156121af576121ae611b88565b5b600082013567ffffffffffffffff8111156121cd576121cc611b8d565b5b6121d98482850161216b565b91505092915050565b600080604083850312156121f9576121f8611b88565b5b600061220785828601611dd5565b925050602061221885828601611dd5565b9150509250929050565b7f4e487b7100000000000000000000000000000000000000000000000000000000600052602260045260246000fd5b6000600282049050600182168061226957607f821691505b60208210810361227c5761227b612222565b5b50919050565b7f4552433732313a20617070726f76616c20746f2063757272656e74206f776e6560008201527f7200000000000000000000000000000000000000000000000000000000000000602082015250565b60006122de602183611c58565b91506122e982612282565b604082019050919050565b6000602082019050818103600083015261230d816122d1565b9050919050565b7f4552433732313a20617070726f76652063616c6c6572206973206e6f7420746f60008201527f6b656e206f776e6572206f7220617070726f76656420666f7220616c6c000000602082015250565b6000612370603d83611c58565b915061237b82612314565b604082019050919050565b6000602082019050818103600083015261239f81612363565b9050919050565b7f4552433732313a2063616c6c6572206973206e6f7420746f6b656e206f776e6560008201527f72206f7220617070726f76656400000000000000000000000000000000000000602082015250565b6000612402602d83611c58565b915061240d826123a6565b604082019050919050565b60006020820190508181036000830152612431816123f5565b9050919050565b7f4552433732313a20696e76616c696420746f6b656e2049440000000000000000600082015250565b600061246e601883611c58565b915061247982612438565b602082019050919050565b6000602082019050818103600083015261249d81612461565b9050919050565b7f4552433732313a2061646472657373207a65726f206973206e6f74206120766160008201527f6c6964206f776e65720000000000000000000000000000000000000000000000602082015250565b6000612500602983611c58565b915061250b826124a4565b604082019050919050565b6000602082019050818103600083015261252f816124f3565b9050919050565b600081905092915050565b600061254c82611c4d565b6125568185612536565b9350612566818560208601611c69565b80840191505092915050565b600061257e8285612541565b915061258a8284612541565b91508190509392505050565b7f4552433732313a204d617820737570706c790000000000000000000000000000600082015250565b60006125cc601283611c58565b91506125d782612596565b602082019050919050565b600060208201905081810360008301526125fb816125bf565b9050919050565b7f4e487b7100000000000000000000000000000000000000000000000000000000600052601160045260246000fd5b600061263c82611cff565b915061264783611cff565b925082820190508082111561265f5761265e612602565b5b92915050565b7f4552433732313a207472616e736665722066726f6d20696e636f72726563742060008201527f6f776e6572000000000000000000000000000000000000000000000000000000602082015250565b60006126c1602583611c58565b91506126cc82612665565b604082019050919050565b600060208201905081810360008301526126f0816126b4565b9050919050565b7f4552433732313a207472616e7366657220746f20746865207a65726f2061646460008201527f7265737300000000000000000000000000000000000000000000000000000000602082015250565b6000612753602483611c58565b915061275e826126f7565b604082019050919050565b6000602082019050818103600083015261278281612746565b9050919050565b7f4552433732313a20617070726f766520746f2063616c6c657200000000000000600082015250565b60006127bf601983611c58565b91506127ca82612789565b602082019050919050565b600060208201905081810360008301526127ee816127b2565b9050919050565b7f4552433732313a207472616e7366657220746f206e6f6e20455243373231526560008201527f63656976657220696d706c656d656e7465720000000000000000000000000000602082015250565b6000612851603283611c58565b915061285c826127f5565b604082019050919050565b6000602082019050818103600083015261288081612844565b9050919050565b7f45524337323155524953746f726167653a2055524920736574206f66206e6f6e60008201527f6578697374656e7420746f6b656e000000000000000000000000000000000000602082015250565b60006128e3602e83611c58565b91506128ee82612887565b604082019050919050565b60006020820190508181036000830152612912816128d6565b9050919050565b60008190508160005260206000209050919050565b60006020601f8301049050919050565b600082821b905092915050565b60006008830261297b7fffffffffffffffffffffffffffffffffffffffffffffffffffffffffffffffff8261293e565b612985868361293e565b95508019841693508086168417925050509392505050565b6000819050919050565b60006129c26129bd6129b884611cff565b61299d565b611cff565b9050919050565b6000819050919050565b6129dc836129a7565b6129f06129e8826129c9565b84845461294b565b825550505050565b600090565b612a056129f8565b612a108184846129d3565b505050565b5b81811015612a3457612a296000826129fd565b600181019050612a16565b5050565b601f821115612a7957612a4a81612919565b612a538461292e565b81016020851015612a62578190505b612a76612a6e8561292e565b830182612a15565b50505b505050565b600082821c905092915050565b6000612a9c60001984600802612a7e565b1980831691505092915050565b6000612ab58383612a8b565b9150826002028217905092915050565b612ace82611c4d565b67ffffffffffffffff811115612ae757612ae6611f4a565b5b612af18254612251565b612afc828285612a38565b600060209050601f831160018114612b2f5760008415612b1d578287015190505b612b278582612aa9565b865550612b8f565b601f198416612b3d86612919565b60005b82811015612b6557848901518255600182019150602085019450602081019050612b40565b86831015612b825784890151612b7e601f891682612a8b565b8355505b6001600288020188555050505b505050505050565b6000612ba282611cff565b9150612bad83611cff565b9250828203905081811115612bc557612bc4612602565b5b92915050565b600081519050919050565b600082825260208201905092915050565b6000612bf282612bcb565b612bfc8185612bd6565b9350612c0c818560208601611c69565b612c1581611c93565b840191505092915050565b6000608082019050612c356000830187611d94565b612c426020830186611d94565b612c4f6040830185611eaa565b8181036060830152612c618184612be7565b905095945050505050565b600081519050612c7b81611bbe565b92915050565b600060208284031215612c9757612c96611b88565b5b6000612ca584828501612c6c565b91505092915050565b7f4e487b7100000000000000000000000000000000000000000000000000000000600052601260045260246000fd5b7f4552433732313a206d696e7420746f20746865207a65726f2061646472657373600082015250565b6000612d13602083611c58565b9150612d1e82612cdd565b602082019050919050565b60006020820190508181036000830152612d4281612d06565b9050919050565b7f4552433732313a20746f6b656e20616c7265616479206d696e74656400000000600082015250565b6000612d7f601c83611c58565b9150612d8a82612d49565b602082019050919050565b60006020820190508181036000830152612dae81612d72565b905091905056fea264697066735822122037eb8aa10f4b30925e86786773cec853cf83fb80dff6296d81b0e1dd3e605e5564736f6c63430008110033",
  "linkReferences": {},
  "deployedLinkReferences": {}
}