{
  "_format": "hh-sol-artifact-1",
  "contractName": "AIE_Proxy",
  "sourceName": "contracts/AIEProxy.sol",
  "abi": [
    {
      "inputs": [
        {
          "internalType": "address",
          "name": "_implContract",
          "type": "address"
        },
        {
          "internalType": "address",
          "name": "address1",
          "type": "address"
        },
        {
          "internalType": "address",
          "name": "address2",
          "type": "address"
        }
      ],
      "stateMutability": "nonpayable",
      "type": "constructor"
    },
    {
      "inputs": [],
      "name": "NotOwner",
      "type": "error"
    },
    {
      "anonymous": false,
      "inputs": [
        {
          "indexed": true,
          "internalType": "address",
          "name": "owner",
          "type": "address"
        },
        {
          "indexed": true,
          "internalType": "address",
          "name": "user",
          "type": "address"
        },
        {
          "indexed": true,
          "internalType": "address",
          "name": "nftContract",
          "type": "address"
        },
        {
          "indexed": false,
          "internalType": "uint256",
          "name": "tokenId",
          "type": "uint256"
        },
        {
          "indexed": false,
          "internalType": "uint256",
          "name": "pricePerDay",
          "type": "uint256"
        }
      ],
      "name": "INSNFTListed",
      "type": "event"
    },
    {
      "anonymous": false,
      "inputs": [
        {
          "indexed": true,
          "internalType": "address",
          "name": "marketowner",
          "type": "address"
        },
        {
          "indexed": true,
          "internalType": "address",
          "name": "newImplAddrs",
          "type": "address"
        }
      ],
      "name": "ImplUpgrade",
      "type": "event"
    },
    {
      "anonymous": false,
      "inputs": [
        {
          "indexed": true,
          "internalType": "address",
          "name": "owner",
          "type": "address"
        },
        {
          "indexed": true,
          "internalType": "address",
          "name": "user",
          "type": "address"
        },
        {
          "indexed": true,
          "internalType": "address",
          "name": "nftContract",
          "type": "address"
        },
        {
          "indexed": false,
          "internalType": "uint256",
          "name": "tokenId",
          "type": "uint256"
        },
        {
          "indexed": false,
          "internalType": "uint64",
          "name": "expires",
          "type": "uint64"
        },
        {
          "indexed": false,
          "internalType": "uint64",
          "name": "insCount",
          "type": "uint64"
        },
        {
          "indexed": false,
          "internalType": "uint64",
          "name": "insIndex",
          "type": "uint64"
        },
        {
          "indexed": false,
          "internalType": "uint256",
          "name": "insAmount",
          "type": "uint256"
        },
        {
          "indexed": false,
          "internalType": "uint256",
          "name": "totalPaid",
          "type": "uint256"
        }
      ],
      "name": "NFTINSPaid",
      "type": "event"
    },
    {
      "anonymous": false,
      "inputs": [
        {
          "indexed": true,
          "internalType": "address",
          "name": "unlistSender",
          "type": "address"
        },
        {
          "indexed": true,
          "internalType": "address",
          "name": "nftContract",
          "type": "address"
        },
        {
          "indexed": true,
          "internalType": "uint256",
          "name": "tokenId",
          "type": "uint256"
        }
      ],
      "name": "NFTUnlisted",
      "type": "event"
    },
    {
      "inputs": [
        {
          "internalType": "address",
          "name": "cAddress",
          "type": "address"
        }
      ],
      "name": "createVotingProposal",
      "outputs": [],
      "stateMutability": "nonpayable",
      "type": "function"
    },
    {
      "inputs": [
        {
          "internalType": "address",
          "name": "nftAddress",
          "type": "address"
        },
        {
          "internalType": "uint256",
          "name": "tokenId",
          "type": "uint256"
        }
      ],
      "name": "getAInsListing",
      "outputs": [
        {
          "components": [
            {
              "internalType": "address",
              "name": "owner",
              "type": "address"
            },
            {
              "internalType": "address",
              "name": "user",
              "type": "address"
            },
            {
              "internalType": "address",
              "name": "nftContract",
              "type": "address"
            },
            {
              "internalType": "uint256",
              "name": "tokenId",
              "type": "uint256"
            },
            {
              "internalType": "uint256",
              "name": "pricePerDay",
              "type": "uint256"
            },
            {
              "internalType": "uint64",
              "name": "installmentCount",
              "type": "uint64"
            },
            {
              "internalType": "uint64",
              "name": "expires",
              "type": "uint64"
            },
            {
              "internalType": "uint64",
              "name": "installmentIndex",
              "type": "uint64"
            },
            {
              "internalType": "uint256",
              "name": "paidIns",
              "type": "uint256"
            }
          ],
          "internalType": "struct AIE_Proxy.Listing_installment",
          "name": "",
          "type": "tuple"
        }
      ],
      "stateMutability": "view",
      "type": "function"
    },
    {
      "inputs": [],
      "name": "getImplAddrs",
      "outputs": [
        {
          "internalType": "address",
          "name": "",
          "type": "address"
        }
      ],
      "stateMutability": "view",
      "type": "function"
    },
    {
      "inputs": [
        {
          "internalType": "address",
          "name": "nftAddress",
          "type": "address"
        }
      ],
      "name": "getInsListedAdddressTokens",
      "outputs": [
        {
          "internalType": "uint256[]",
          "name": "",
          "type": "uint256[]"
        }
      ],
      "stateMutability": "view",
      "type": "function"
    },
    {
      "inputs": [],
      "name": "getInsListedAdddresses",
      "outputs": [
        {
          "internalType": "address[]",
          "name": "",
          "type": "address[]"
        }
      ],
      "stateMutability": "view",
      "type": "function"
    },
    {
      "inputs": [],
      "name": "getListingFee",
      "outputs": [
        {
          "internalType": "uint256",
          "name": "",
          "type": "uint256"
        }
      ],
      "stateMutability": "view",
      "type": "function"
    },
    {
      "inputs": [
        {
          "internalType": "address",
          "name": "nftAddress",
          "type": "address"
        },
        {
          "internalType": "uint256",
          "name": "tokenId",
          "type": "uint256"
        },
        {
          "internalType": "uint64",
          "name": "installmentCount",
          "type": "uint64"
        }
      ],
      "name": "getNftInstallment",
      "outputs": [
        {
          "internalType": "uint256",
          "name": "",
          "type": "uint256"
        }
      ],
      "stateMutability": "view",
      "type": "function"
    },
    {
      "inputs": [
        {
          "internalType": "address",
          "name": "nftContract",
          "type": "address"
        }
      ],
      "name": "isNFT",
      "outputs": [
        {
          "internalType": "bool",
          "name": "",
          "type": "bool"
        }
      ],
      "stateMutability": "view",
      "type": "function"
    },
    {
      "inputs": [],
      "name": "isProposalApproved",
      "outputs": [
        {
          "internalType": "bool",
          "name": "",
          "type": "bool"
        }
      ],
      "stateMutability": "view",
      "type": "function"
    },
    {
      "inputs": [
        {
          "internalType": "address",
          "name": "nftContract",
          "type": "address"
        }
      ],
      "name": "isRentableNFT",
      "outputs": [
        {
          "internalType": "bool",
          "name": "",
          "type": "bool"
        }
      ],
      "stateMutability": "view",
      "type": "function"
    },
    {
      "inputs": [
        {
          "internalType": "address",
          "name": "nftAddress",
          "type": "address"
        },
        {
          "internalType": "uint256",
          "name": "tokenId",
          "type": "uint256"
        },
        {
          "internalType": "uint256",
          "name": "pricePerDay",
          "type": "uint256"
        }
      ],
      "name": "listInsBasedNFT",
      "outputs": [
        {
          "internalType": "string",
          "name": "",
          "type": "string"
        }
      ],
      "stateMutability": "payable",
      "type": "function"
    },
    {
      "inputs": [
        {
          "internalType": "address",
          "name": "nftAddress",
          "type": "address"
        },
        {
          "internalType": "uint256",
          "name": "tokenId",
          "type": "uint256"
        }
      ],
      "name": "payNFTIns",
      "outputs": [
        {
          "internalType": "string",
          "name": "",
          "type": "string"
        }
      ],
      "stateMutability": "payable",
      "type": "function"
    },
    {
      "inputs": [
        {
          "internalType": "address",
          "name": "nftAddress",
          "type": "address"
        },
        {
          "internalType": "uint256",
          "name": "tokenId",
          "type": "uint256"
        },
        {
          "internalType": "uint64",
          "name": "numDays",
          "type": "uint64"
        }
      ],
      "name": "rentINSNFT",
      "outputs": [
        {
          "internalType": "string",
          "name": "",
          "type": "string"
        }
      ],
      "stateMutability": "payable",
      "type": "function"
    },
    {
      "inputs": [
        {
          "internalType": "address",
          "name": "nftAddress",
          "type": "address"
        },
        {
          "internalType": "uint256",
          "name": "tokenId",
          "type": "uint256"
        }
      ],
      "name": "unlistINSNFT",
      "outputs": [
        {
          "internalType": "string",
          "name": "",
          "type": "string"
        }
      ],
      "stateMutability": "nonpayable",
      "type": "function"
    },
    {
      "inputs": [],
      "name": "updateImplContract",
      "outputs": [],
      "stateMutability": "nonpayable",
      "type": "function"
    },
    {
      "inputs": [
        {
          "internalType": "bool",
          "name": "supportChanges",
          "type": "bool"
        }
      ],
      "name": "voteOnProposal",
      "outputs": [],
      "stateMutability": "nonpayable",
      "type": "function"
    }
  ],
  "bytecode": "0x6080604052662386f26fc10000600255600a600360006101000a81548167ffffffffffffffff021916908367ffffffffffffffff1602179055503480156200004657600080fd5b5060405162002c6838038062002c6883398181016040528101906200006c9190620001eb565b600160008190555033600160006101000a81548173ffffffffffffffffffffffffffffffffffffffff021916908373ffffffffffffffffffffffffffffffffffffffff16021790555082600860006101000a81548173ffffffffffffffffffffffffffffffffffffffff021916908373ffffffffffffffffffffffffffffffffffffffff16021790555081600a60006101000a81548173ffffffffffffffffffffffffffffffffffffffff021916908373ffffffffffffffffffffffffffffffffffffffff16021790555080600b60006101000a81548173ffffffffffffffffffffffffffffffffffffffff021916908373ffffffffffffffffffffffffffffffffffffffff16021790555050505062000247565b600080fd5b600073ffffffffffffffffffffffffffffffffffffffff82169050919050565b6000620001b38262000186565b9050919050565b620001c581620001a6565b8114620001d157600080fd5b50565b600081519050620001e581620001ba565b92915050565b60008060006060848603121562000207576200020662000181565b5b60006200021786828701620001d4565b93505060206200022a86828701620001d4565b92505060406200023d86828701620001d4565b9150509250925092565b612a1180620002576000396000f3fe6080604052600436106100f35760003560e01c8063b8fe6abe1161008a578063e3ccb80911610059578063e3ccb80914610365578063e9a6f4f61461038e578063f5fa4d47146103cb578063f8e97ef9146103e2576100f3565b8063b8fe6abe1461029d578063c80e712f146102c8578063cebd5145146102f8578063d4a55a7414610328576100f3565b80636bf510bf116100c65780636bf510bf146101bb57806393f33249146101f8578063ae546f7e14610235578063b31b85c914610260576100f3565b80632f4a073a146100f857806337feab07146101355780634b30261c146101605780636ae012c814610190575b600080fd5b34801561010457600080fd5b5061011f600480360381019061011a9190611ac0565b61040b565b60405161012c9190611bb5565b60405180910390f35b34801561014157600080fd5b5061014a610461565b6040516101579190611c95565b60405180910390f35b61017a60048036038101906101759190611ce3565b610478565b6040516101879190611db3565b60405180910390f35b34801561019c57600080fd5b506101a56105f6565b6040516101b29190611de4565b60405180910390f35b3480156101c757600080fd5b506101e260048036038101906101dd9190611ce3565b610620565b6040516101ef9190611db3565b60405180910390f35b34801561020457600080fd5b5061021f600480360381019061021a9190611e3f565b61079e565b60405161022c9190611ea1565b60405180910390f35b34801561024157600080fd5b5061024a610b06565b6040516102579190611ed7565b60405180910390f35b34801561026c57600080fd5b5061028760048036038101906102829190611ac0565b610b59565b6040516102949190611ed7565b60405180910390f35b3480156102a957600080fd5b506102b2610c0f565b6040516102bf9190611ea1565b60405180910390f35b6102e260048036038101906102dd9190611ef2565b610c19565b6040516102ef9190611db3565b60405180910390f35b610312600480360381019061030d9190611e3f565b610d9a565b60405161031f9190611db3565b60405180910390f35b34801561033457600080fd5b5061034f600480360381019061034a9190611ce3565b610f1b565b60405161035c919061200b565b60405180910390f35b34801561037157600080fd5b5061038c60048036038101906103879190612053565b61113d565b005b34801561039a57600080fd5b506103b560048036038101906103b09190611ac0565b61137f565b6040516103c29190611ed7565b60405180910390f35b3480156103d757600080fd5b506103e06114e8565b005b3480156103ee57600080fd5b5061040960048036038101906104049190611ac0565b611782565b005b60606000610456600560008573ffffffffffffffffffffffffffffffffffffffff1673ffffffffffffffffffffffffffffffffffffffff168152602001908152602001600020611890565b905080915050919050565b6060600061046f60066118b1565b90508091505090565b6060600080600860009054906101000a900473ffffffffffffffffffffffffffffffffffffffff1673ffffffffffffffffffffffffffffffffffffffff1685856040516024016104c9929190612080565b6040516020818303038152906040527f4b30261c000000000000000000000000000000000000000000000000000000007bffffffffffffffffffffffffffffffffffffffffffffffffffffffff19166020820180517bffffffffffffffffffffffffffffffffffffffffffffffffffffffff838183161783525050505060405161055391906120f0565b600060405180830381855af49150503d806000811461058e576040519150601f19603f3d011682016040523d82523d6000602084013e610593565b606091505b5091509150816105d8576040517f08c379a00000000000000000000000000000000000000000000000000000000081526004016105cf90612153565b60405180910390fd5b808060200190518101906105ec9190612299565b9250505092915050565b6000600860009054906101000a900473ffffffffffffffffffffffffffffffffffffffff16905090565b6060600080600860009054906101000a900473ffffffffffffffffffffffffffffffffffffffff1673ffffffffffffffffffffffffffffffffffffffff168585604051602401610671929190612080565b6040516020818303038152906040527f6bf510bf000000000000000000000000000000000000000000000000000000007bffffffffffffffffffffffffffffffffffffffffffffffffffffffff19166020820180517bffffffffffffffffffffffffffffffffffffffffffffffffffffffff83818316178352505050506040516106fb91906120f0565b600060405180830381855af49150503d8060008114610736576040519150601f19603f3d011682016040523d82523d6000602084013e61073b565b606091505b509150915081610780576040517f08c379a000000000000000000000000000000000000000000000000000000000815260040161077790612153565b60405180910390fd5b808060200190518101906107949190612299565b9250505092915050565b6000600360009054906101000a900467ffffffffffffffff1667ffffffffffffffff168267ffffffffffffffff16111561080d576040517f08c379a00000000000000000000000000000000000000000000000000000000081526004016108049061237a565b60405180910390fd5b60008267ffffffffffffffff161161085a576040517f08c379a00000000000000000000000000000000000000000000000000000000081526004016108519061240c565b60405180910390fd5b6000600460008673ffffffffffffffffffffffffffffffffffffffff1673ffffffffffffffffffffffffffffffffffffffff1681526020019081526020016000206000858152602001908152602001600020905060008160050160109054906101000a900467ffffffffffffffff16905060006001826108da919061245b565b905060008360050160009054906101000a900467ffffffffffffffff1667ffffffffffffffff16111561097a578260050160009054906101000a900467ffffffffffffffff1694508467ffffffffffffffff168167ffffffffffffffff161115610979576040517f08c379a0000000000000000000000000000000000000000000000000000000008152600401610970906124e3565b60405180910390fd5b5b600080600860009054906101000a900473ffffffffffffffffffffffffffffffffffffffff1673ffffffffffffffffffffffffffffffffffffffff168560060154888760040154866040516024016109d59493929190612512565b6040516020818303038152906040527f6d48cf02000000000000000000000000000000000000000000000000000000007bffffffffffffffffffffffffffffffffffffffffffffffffffffffff19166020820180517bffffffffffffffffffffffffffffffffffffffffffffffffffffffff8381831617835250505050604051610a5f91906120f0565b600060405180830381855afa9150503d8060008114610a9a576040519150601f19603f3d011682016040523d82523d6000602084013e610a9f565b606091505b509150915081610ae4576040517f08c379a0000000000000000000000000000000000000000000000000000000008152600401610adb90612153565b60405180910390fd5b80806020019051810190610af8919061256c565b955050505050509392505050565b600080600960000160159054906101000a900460ff16600960000160149054906101000a900460ff16610b3991906125a6565b905060048160ff1603610b50576001915050610b56565b60009150505b90565b600080600090508273ffffffffffffffffffffffffffffffffffffffff166301ffc9a77f80ac58cd000000000000000000000000000000000000000000000000000000006040518263ffffffff1660e01b8152600401610bb99190612616565b602060405180830381865afa925050508015610bf357506040513d601f19601f82011682018060405250810190610bf09190612646565b60015b610c01576000915050610c0a565b80915050809150505b919050565b6000600254905090565b6060600080600860009054906101000a900473ffffffffffffffffffffffffffffffffffffffff1673ffffffffffffffffffffffffffffffffffffffff16868686604051602401610c6c93929190612673565b6040516020818303038152906040527fc80e712f000000000000000000000000000000000000000000000000000000007bffffffffffffffffffffffffffffffffffffffffffffffffffffffff19166020820180517bffffffffffffffffffffffffffffffffffffffffffffffffffffffff8381831617835250505050604051610cf691906120f0565b600060405180830381855af49150503d8060008114610d31576040519150601f19603f3d011682016040523d82523d6000602084013e610d36565b606091505b509150915081610d7b576040517f08c379a0000000000000000000000000000000000000000000000000000000008152600401610d7290612153565b60405180910390fd5b80806020019051810190610d8f9190612299565b925050509392505050565b6060600080600860009054906101000a900473ffffffffffffffffffffffffffffffffffffffff1673ffffffffffffffffffffffffffffffffffffffff16868686604051602401610ded939291906126aa565b6040516020818303038152906040527fcebd5145000000000000000000000000000000000000000000000000000000007bffffffffffffffffffffffffffffffffffffffffffffffffffffffff19166020820180517bffffffffffffffffffffffffffffffffffffffffffffffffffffffff8381831617835250505050604051610e7791906120f0565b600060405180830381855af49150503d8060008114610eb2576040519150601f19603f3d011682016040523d82523d6000602084013e610eb7565b606091505b509150915081610efc576040517f08c379a0000000000000000000000000000000000000000000000000000000008152600401610ef390612153565b60405180910390fd5b80806020019051810190610f109190612299565b925050509392505050565b610f236119a2565b600460008473ffffffffffffffffffffffffffffffffffffffff1673ffffffffffffffffffffffffffffffffffffffff1681526020019081526020016000206000838152602001908152602001600020604051806101200160405290816000820160009054906101000a900473ffffffffffffffffffffffffffffffffffffffff1673ffffffffffffffffffffffffffffffffffffffff1673ffffffffffffffffffffffffffffffffffffffff1681526020016001820160009054906101000a900473ffffffffffffffffffffffffffffffffffffffff1673ffffffffffffffffffffffffffffffffffffffff1673ffffffffffffffffffffffffffffffffffffffff1681526020016002820160009054906101000a900473ffffffffffffffffffffffffffffffffffffffff1673ffffffffffffffffffffffffffffffffffffffff1673ffffffffffffffffffffffffffffffffffffffff16815260200160038201548152602001600482015481526020016005820160009054906101000a900467ffffffffffffffff1667ffffffffffffffff1667ffffffffffffffff1681526020016005820160089054906101000a900467ffffffffffffffff1667ffffffffffffffff1667ffffffffffffffff1681526020016005820160109054906101000a900467ffffffffffffffff1667ffffffffffffffff1667ffffffffffffffff168152602001600682015481525050905092915050565b600a60009054906101000a900473ffffffffffffffffffffffffffffffffffffffff1673ffffffffffffffffffffffffffffffffffffffff163373ffffffffffffffffffffffffffffffffffffffff1614806111e65750600b60009054906101000a900473ffffffffffffffffffffffffffffffffffffffff1673ffffffffffffffffffffffffffffffffffffffff163373ffffffffffffffffffffffffffffffffffffffff16145b611225576040517f08c379a000000000000000000000000000000000000000000000000000000000815260040161121c9061272d565b60405180910390fd5b600a60009054906101000a900473ffffffffffffffffffffffffffffffffffffffff1673ffffffffffffffffffffffffffffffffffffffff163373ffffffffffffffffffffffffffffffffffffffff16036112fd576000600960000160149054906101000a900460ff1660ff16146112d2576040517f08c379a00000000000000000000000000000000000000000000000000000000081526004016112c9906127bf565b60405180910390fd5b6112db816118d2565b600960000160146101000a81548160ff021916908360ff16021790555061137c565b6000600960000160159054906101000a900460ff1660ff1614611355576040517f08c379a000000000000000000000000000000000000000000000000000000000815260040161134c906127bf565b60405180910390fd5b61135e816118d2565b600960000160156101000a81548160ff021916908360ff1602179055505b50565b6000806000905060008373ffffffffffffffffffffffffffffffffffffffff166301ffc9a77fad092b5c000000000000000000000000000000000000000000000000000000006040518263ffffffff1660e01b81526004016113e19190612616565b602060405180830381865afa92505050801561141b57506040513d601f19601f820116820180604052508101906114189190612646565b60015b61142a576000925050506114e3565b809250508373ffffffffffffffffffffffffffffffffffffffff166301ffc9a77f80ac58cd000000000000000000000000000000000000000000000000000000006040518263ffffffff1660e01b81526004016114879190612616565b602060405180830381865afa9250505080156114c157506040513d601f19601f820116820180604052508101906114be9190612646565b60015b6114d0576000925050506114e3565b809150508180156114de5750805b925050505b919050565b6114f06118ed565b600160009054906101000a900473ffffffffffffffffffffffffffffffffffffffff1673ffffffffffffffffffffffffffffffffffffffff163373ffffffffffffffffffffffffffffffffffffffff1614611580576040517f08c379a000000000000000000000000000000000000000000000000000000000815260040161157790612851565b60405180910390fd5b6000600960000160149054906101000a900460ff1660ff16141580156115bc57506000600960000160159054906101000a900460ff1660ff1614155b6115fb576040517f08c379a00000000000000000000000000000000000000000000000000000000081526004016115f2906128bd565b60405180910390fd5b6002600960000160149054906101000a900460ff1660ff1614801561163557506002600960000160159054906101000a900460ff1660ff16145b611674576040517f08c379a000000000000000000000000000000000000000000000000000000000815260040161166b9061294f565b60405180910390fd5b600960000160009054906101000a900473ffffffffffffffffffffffffffffffffffffffff16600860006101000a81548173ffffffffffffffffffffffffffffffffffffffff021916908373ffffffffffffffffffffffffffffffffffffffff160217905550600860009054906101000a900473ffffffffffffffffffffffffffffffffffffffff1673ffffffffffffffffffffffffffffffffffffffff16600160009054906101000a900473ffffffffffffffffffffffffffffffffffffffff1673ffffffffffffffffffffffffffffffffffffffff167f1ed34c9a7b236ee6031785cd9ca32de930e1ae39020c1279886b687a307e7fcb60405160405180910390a361178061193c565b565b338073ffffffffffffffffffffffffffffffffffffffff16600160009054906101000a900473ffffffffffffffffffffffffffffffffffffffff1673ffffffffffffffffffffffffffffffffffffffff161461180a576040517f30cd747100000000000000000000000000000000000000000000000000000000815260040160405180910390fd5b81600960000160006101000a81548173ffffffffffffffffffffffffffffffffffffffff021916908373ffffffffffffffffffffffffffffffffffffffff1602179055506000600960000160146101000a81548160ff021916908360ff1602179055506000600960000160156101000a81548160ff021916908360ff1602179055505050565b606060006118a083600001611946565b905060608190508092505050919050565b606060006118c183600001611946565b905060608190508092505050919050565b600081156118e357600290506118e8565b600190505b919050565b600260005403611932576040517f08c379a0000000000000000000000000000000000000000000000000000000008152600401611929906129bb565b60405180910390fd5b6002600081905550565b6001600081905550565b60608160000180548060200260200160405190810160405280929190818152602001828054801561199657602002820191906000526020600020905b815481526020019060010190808311611982575b50505050509050919050565b604051806101200160405280600073ffffffffffffffffffffffffffffffffffffffff168152602001600073ffffffffffffffffffffffffffffffffffffffff168152602001600073ffffffffffffffffffffffffffffffffffffffff1681526020016000815260200160008152602001600067ffffffffffffffff168152602001600067ffffffffffffffff168152602001600067ffffffffffffffff168152602001600081525090565b6000604051905090565b600080fd5b600080fd5b600073ffffffffffffffffffffffffffffffffffffffff82169050919050565b6000611a8d82611a62565b9050919050565b611a9d81611a82565b8114611aa857600080fd5b50565b600081359050611aba81611a94565b92915050565b600060208284031215611ad657611ad5611a58565b5b6000611ae484828501611aab565b91505092915050565b600081519050919050565b600082825260208201905092915050565b6000819050602082019050919050565b6000819050919050565b611b2c81611b19565b82525050565b6000611b3e8383611b23565b60208301905092915050565b6000602082019050919050565b6000611b6282611aed565b611b6c8185611af8565b9350611b7783611b09565b8060005b83811015611ba8578151611b8f8882611b32565b9750611b9a83611b4a565b925050600181019050611b7b565b5085935050505092915050565b60006020820190508181036000830152611bcf8184611b57565b905092915050565b600081519050919050565b600082825260208201905092915050565b6000819050602082019050919050565b611c0c81611a82565b82525050565b6000611c1e8383611c03565b60208301905092915050565b6000602082019050919050565b6000611c4282611bd7565b611c4c8185611be2565b9350611c5783611bf3565b8060005b83811015611c88578151611c6f8882611c12565b9750611c7a83611c2a565b925050600181019050611c5b565b5085935050505092915050565b60006020820190508181036000830152611caf8184611c37565b905092915050565b611cc081611b19565b8114611ccb57600080fd5b50565b600081359050611cdd81611cb7565b92915050565b60008060408385031215611cfa57611cf9611a58565b5b6000611d0885828601611aab565b9250506020611d1985828601611cce565b9150509250929050565b600081519050919050565b600082825260208201905092915050565b60005b83811015611d5d578082015181840152602081019050611d42565b60008484015250505050565b6000601f19601f8301169050919050565b6000611d8582611d23565b611d8f8185611d2e565b9350611d9f818560208601611d3f565b611da881611d69565b840191505092915050565b60006020820190508181036000830152611dcd8184611d7a565b905092915050565b611dde81611a82565b82525050565b6000602082019050611df96000830184611dd5565b92915050565b600067ffffffffffffffff82169050919050565b611e1c81611dff565b8114611e2757600080fd5b50565b600081359050611e3981611e13565b92915050565b600080600060608486031215611e5857611e57611a58565b5b6000611e6686828701611aab565b9350506020611e7786828701611cce565b9250506040611e8886828701611e2a565b9150509250925092565b611e9b81611b19565b82525050565b6000602082019050611eb66000830184611e92565b92915050565b60008115159050919050565b611ed181611ebc565b82525050565b6000602082019050611eec6000830184611ec8565b92915050565b600080600060608486031215611f0b57611f0a611a58565b5b6000611f1986828701611aab565b9350506020611f2a86828701611cce565b9250506040611f3b86828701611cce565b9150509250925092565b611f4e81611dff565b82525050565b61012082016000820151611f6b6000850182611c03565b506020820151611f7e6020850182611c03565b506040820151611f916040850182611c03565b506060820151611fa46060850182611b23565b506080820151611fb76080850182611b23565b5060a0820151611fca60a0850182611f45565b5060c0820151611fdd60c0850182611f45565b5060e0820151611ff060e0850182611f45565b50610100820151612005610100850182611b23565b50505050565b6000610120820190506120216000830184611f54565b92915050565b61203081611ebc565b811461203b57600080fd5b50565b60008135905061204d81612027565b92915050565b60006020828403121561206957612068611a58565b5b60006120778482850161203e565b91505092915050565b60006040820190506120956000830185611dd5565b6120a26020830184611e92565b9392505050565b600081519050919050565b600081905092915050565b60006120ca826120a9565b6120d481856120b4565b93506120e4818560208601611d3f565b80840191505092915050565b60006120fc82846120bf565b915081905092915050565b7f7472616e73616374696f6e206661696c65640000000000000000000000000000600082015250565b600061213d601283611d2e565b915061214882612107565b602082019050919050565b6000602082019050818103600083015261216c81612130565b9050919050565b600080fd5b600080fd5b7f4e487b7100000000000000000000000000000000000000000000000000000000600052604160045260246000fd5b6121b582611d69565b810181811067ffffffffffffffff821117156121d4576121d361217d565b5b80604052505050565b60006121e7611a4e565b90506121f382826121ac565b919050565b600067ffffffffffffffff8211156122135761221261217d565b5b61221c82611d69565b9050602081019050919050565b600061223c612237846121f8565b6121dd565b90508281526020810184848401111561225857612257612178565b5b612263848285611d3f565b509392505050565b600082601f8301126122805761227f612173565b5b8151612290848260208601612229565b91505092915050565b6000602082840312156122af576122ae611a58565b5b600082015167ffffffffffffffff8111156122cd576122cc611a5d565b5b6122d98482850161226b565b91505092915050565b7f696e7374616c6c6d656e7420636f756e74206d757374206d65206c657373207460008201527f68616e20746865206d6178696d756d20616c6c6f77656420696e7374616c6c6d60208201527f656e747300000000000000000000000000000000000000000000000000000000604082015250565b6000612364604483611d2e565b915061236f826122e2565b606082019050919050565b6000602082019050818103600083015261239381612357565b9050919050565b7f696e7374616c6c6d656e7420636f756e74206d7573742062652067726561746560008201527f72207468616e2031000000000000000000000000000000000000000000000000602082015250565b60006123f6602883611d2e565b91506124018261239a565b604082019050919050565b60006020820190508181036000830152612425816123e9565b9050919050565b7f4e487b7100000000000000000000000000000000000000000000000000000000600052601160045260246000fd5b600061246682611dff565b915061247183611dff565b9250828201905067ffffffffffffffff8111156124915761249061242c565b5b92915050565b7f4e46542066756c6c792070616964000000000000000000000000000000000000600082015250565b60006124cd600e83611d2e565b91506124d882612497565b602082019050919050565b600060208201905081810360008301526124fc816124c0565b9050919050565b61250c81611dff565b82525050565b60006080820190506125276000830187611e92565b6125346020830186612503565b6125416040830185611e92565b61254e6060830184612503565b95945050505050565b60008151905061256681611cb7565b92915050565b60006020828403121561258257612581611a58565b5b600061259084828501612557565b91505092915050565b600060ff82169050919050565b60006125b182612599565b91506125bc83612599565b9250828201905060ff8111156125d5576125d461242c565b5b92915050565b60007fffffffff0000000000000000000000000000000000000000000000000000000082169050919050565b612610816125db565b82525050565b600060208201905061262b6000830184612607565b92915050565b60008151905061264081612027565b92915050565b60006020828403121561265c5761265b611a58565b5b600061266a84828501612631565b91505092915050565b60006060820190506126886000830186611dd5565b6126956020830185611e92565b6126a26040830184611e92565b949350505050565b60006060820190506126bf6000830186611dd5565b6126cc6020830185611e92565b6126d96040830184612503565b949350505050565b7f4e6f7420617574686f72697a656420746f20766f746500000000000000000000600082015250565b6000612717601683611d2e565b9150612722826126e1565b602082019050919050565b600060208201905081810360008301526127468161270a565b9050919050565b7f596f75206861766520616c726561647920766f746564206f6e2074686973207060008201527f726f706f73616c00000000000000000000000000000000000000000000000000602082015250565b60006127a9602783611d2e565b91506127b48261274d565b604082019050919050565b600060208201905081810360008301526127d88161279c565b9050919050565b7f6d61726b6574706c6163652063616e206f6e6c7920626520757067726164656460008201527f20627920746865206f776e657200000000000000000000000000000000000000602082015250565b600061283b602d83611d2e565b9150612846826127df565b604082019050919050565b6000602082019050818103600083015261286a8161282e565b9050919050565b7f566f746572732068617665206e6f7420636f6d706c6574656420766f74696e67600082015250565b60006128a7602083611d2e565b91506128b282612871565b602082019050919050565b600060208201905081810360008301526128d68161289a565b9050919050565b7f566f746572732068617665206e6f7420616772656564206f6e2074686520707260008201527f6f706f73616c0000000000000000000000000000000000000000000000000000602082015250565b6000612939602683611d2e565b9150612944826128dd565b604082019050919050565b600060208201905081810360008301526129688161292c565b9050919050565b7f5265656e7472616e637947756172643a207265656e7472616e742063616c6c00600082015250565b60006129a5601f83611d2e565b91506129b08261296f565b602082019050919050565b600060208201905081810360008301526129d481612998565b905091905056fea2646970667358221220ec856c5bbce4008de2a160ab57f9b274745f87e0532208a9a4a854fa61dd811464736f6c63430008110033",
  "linkReferences": {},
  "deployedLinkReferences": {}
}